:020000040800F2
:100000008839002055020008E3310008412E00081D
:10001000E1310008290800086D40000800000000D8
:100020000000000000000000000000007B37000816
:100030006708000800000000E53100087D3700086F
:100040006F0200086F0200086F0200086F020008CC
:100050006F0200086F0200086F0200086F020008BC
:100060006F0200086F0200086F0200082D080008E8
:100070006F0200086F0200086F0200086F0200089C
:100080006F0200086F0200086F0200086F0200088C
:100090006F0200086F0200086F0200086F0200087C
:1000A0006F0200086F0200086F0200086F0200086C
:1000B0006F0200086F0200086F0200086F0200085C
:1000C0006F0200086F0200086F0200086F0200084C
:1000D0006F0200086F0200085540000861400008E8
:1000E0006F0200086F0200086F0200080D38000858
:1000F0003138000825380008193800086F02000858
:100100006F0200086F0200086F0200086F0200080B
:100110006F0200086F0200086F0200086F020008FB
:100120006F0200086F0200086F0200086F020008EB
:100130006F0200086F0200086F0200086F020008DB
:100140006F0200086F0200086F0200086F020008CB
:100150006F0200086F020008A52E00086F02000859
:100160006F0200086F0200086F0200086F020008AB
:100170006F0200086F0200086F0200080000000014
:100180006F0200086F0200086F0200086F0200088B
:100190006F0200086F0200086F0200086F0200087B
:1001A0006F0200086F0200086F02000800F002F8FA
:1001B00000F041F80AA090E8000C82448344AAF1C0
:1001C0000107DA4501D100F036F8AFF2090EBAE8BE
:1001D0000F0013F0010F18BFFB1A43F0010318477B
:1001E000CC430000EC430000103A24BF78C878C12B
:1001F000FAD8520724BF30C830C144BF04680C602D
:10020000704700000023002400250026103A28BF74
:1002100078C1FBD8520728BF30C148BF0B60704778
:10022000642900F0F780002070471FB504F07CF9C6
:100230001FBD10B510BD00F0E8F91146FFF7F5FF3E
:1002400003F026FF00F006FA03B4FFF7F2FF03BC49
:1002500000F00EFA0948804709480047FEE7FEE72C
:10026000FEE7FEE7FEE7FEE7FEE7FEE7FEE7FEE766
:1002700004480549054A064B70470000FD37000851
:10028000AD0100088833002088390020883500201F
:100290008835002053EA020C00F069802DE9F04B0C
:1002A0004FF00006002B1FBFB3FA83F503FA05F4E5
:1002B00024FA05F65E4012BF1643B2FA82F502FA3E
:1002C00005F4C5F120051EBF22FA05FC44EA0C0422
:1002D000203556EA044C4FEA144418BF641C4FF012
:1002E00000084FF00009904271EB030C39D300294C
:1002F00019BFB1FA81F701FA07F6B0FA80F700FAF0
:1003000007F6C7F120071EBF20FA07FC46EA0C06D5
:100310002037B6FBF4FCA7EB0507103F07F01F0BD7
:10032000CBF120060CFA0BFB2CFA06F644BFB346C1
:100330000026202FA4BF5E464FF0000B5BEA060CA0
:1003400008BF4FF0010B19EB0B09ABFB027C48EB2C
:100350000608C01B06FB02CC0BFB03CC71EB0C01A7
:10036000C1E70B46024641464846BDE8F08B13B54F
:100370004FF000004FF00001AFF30080BDE81C40DB
:10038000704700000FB41CB5074B06AA7B446946B2
:100390000090059800F021F90020694600F030F93E
:1003A0001CBC5DF814FB0000710200002DE9F04157
:1003B0000E460446002020622046E168884730B39C
:1003C000252805D0D4E901219047206A401CF2E796
:1003D000E168204600278847050018D0A5F14100B4
:1003E000192802D820354FF40067324629462046A6
:1003F0002760FFF715FF40B1012804D0F61D26F055
:1004000007060836D8E7361DD6E72846DAE7206A19
:10041000BDE8F0812DE9F0410646002410687529F9
:10042000314616A510D0AFF30080002802DA404212
:1004300013A507E031688A0701D512A502E0490734
:1004400004D511A5012401E0AFF3008000210A22A8
:1004500006F1240709E0B0FBF2FCB0FBF2F302FB6B
:100460001C00303078541846491C0028F3D123462C
:100470002A463046BDE8F04100F051B800000000C7
:100480002D0000002B0000002000000010B5431CD0
:1004900002E010F8011B71B18107FAD14FF001326F
:1004A00002C88C1A8C4314EAC211F9D0C01A0A0689
:1004B00003D0C01E10BDC01A10BD0A0401D0801E9A
:1004C00010BD0902FCD0401E10BD4FF0000200B567
:1004D000134694469646203922BFA0E80C50A0E867
:1004E0000C50B1F12001BFF4F7AF090728BFA0E815
:1004F0000C5048BF0CC05DF804EB890028BF40F8E1
:10050000042B08BF704748BF20F8022B11F0804F22
:1005100018BF00F8012B70477047704770472DE9EE
:10052000F0470D4699469246044600F124080168BA
:10053000880604D5E06921F01001216000E0012067
:10054000A84201DD471B00E00027A1697A1902EBF0
:100550000900081AA0612078C00602D42046AFF333
:100560000080002608E0D4E901211AF8060090472F
:10057000206A401C761C20624E45F4DB2078C006C1
:100580000AD52046AFF3008006E0D4E901213020EF
:100590009047206A401C2062381EA7F10107F4DC56
:1005A00007E0D4E9012118F805009047206A401CB3
:1005B0002062281EA5F10105F3DC2046AFF3008080
:1005C0002078000602D50220BDE8F0870120FBE775
:1005D00001694A1C02610878704700B58FB0CDE907
:1005E00001310021059105497944CDE903101146F7
:1005F0006846FFF7DBFE0FB000BD0000E5FFFFFF20
:100600000A6802F8010B0A607047754600F02CF882
:10061000AE4605006946534620F00700854618B0EF
:1006200020B5FFF725FEBDE820404FF000064FF053
:1006300000074FF000084FF0000B21F00701AC4617
:10064000ACE8C009ACE8C009ACE8C009ACE8C00936
:100650008D46704710B50446AFF300802046BDE8D4
:100660001040FFF7F1BD000000487047283300201C
:1006700001491820ABBEFEE726000200704710B506
:10068000846AA16D11F0500F06D0A16DC90625D561
:10069000204600F0C2FB10BDA06D40F40070A065C4
:1006A00020680168090716D502F0DDFB78B12068E3
:1006B000C068800400280ADBA06D20F48070A0656B
:1006C000A06DC00403D4A06D40F00100A0652046D9
:1006D00000F0A1FB10BDC0688007EBE7216D496BFE
:1006E000BDE81040084710B5806A816D41F04001B7
:1006F0008165C16D41F00401C16500F08EFB10BD44
:1007000010B5806A00F088FB10BD000070B504468B
:10071000006881688268C1F3400112F0010F28D09F
:1007200039BB816801F00D01012914D18168124A99
:100730001140891C816021680320086000F0F0FFEF
:10074000054612E000F0ECFF401B02280DD920689E
:100750008068C00709D0A06D40F01000A065E06D72
:1007600040F00100E065012070BD20688068C0078E
:10077000E8D1002070BD0000C0FFFF7FF8B504463F
:10078000002000902068816811F0010F41D181683C
:10079000214A11422ED18168D5432940491C8160EC
:1007A0001E48806800F0E07000020DD51C481D490D
:1007B0000068B0FBF1F0401C00EB4000800000E05E
:1007C000401E00900028FBD100F0AAFF06461BE067
:1007D000816811F0010F03D181682940491C8160B3
:1007E00000F09EFF801B02280ED920680068C043DD
:1007F000C00709D0A06D40F01000A065E06D40F08A
:100800000100E0650120F8BD20680168C943C907FF
:10081000DED10020F8BD00003F000080000304503E
:1008200038000020400D0300FEE70000014800F002
:1008300039BD0000FC30002030B590F8444004F091
:100840001C050124AC40056C6C600468636083681F
:10085000102B036803D099600068C26030BD9A60B5
:100860000068C16030BD704772B6FEE7F8B500267B
:100870000446009690F854000D4601280BD0012044
:1008800084F854002046FFF741FF0100A06D04D01A
:1008900040F010002BE00220F8BD20F4885040F01A
:1008A0000200A06520688268134B1A4005F080435F
:1008B0001A4342F0004282604FF4912320680EE018
:1008C000009A521C00929A4209D3A06D20F00200B7
:1008D00040F01000A06584F854600120F8BD8268E3
:1008E000D20FEDD1A06D20F0020040F00100A06514
:1008F00084F854600846F8BDC0FFFF3F2DE9F0477B
:10090000044690F854009AB00E464FF000090128B2
:1009100016D0012084F85400002516951795324F03
:100920002068B84210D1DFF8C480CDF8008040467E
:1009300002F095FA8246206802F091FA60B10EE06A
:1009400002201AB0BDE8F087A06D40F02000A0653D
:1009500084F854500120F4E7BAF1000F0AD0A06DDA
:1009600040F02000A0654FF0010900BF84F854500A
:100970004846E6E71E4831681E4A0029816840F66D
:100980001F7321F460411CD094F830C041EA4C310F
:10099000D6F804C041EA0C018160B968D8F8087043
:1009A00001F0010107F001079268394302F00102EA
:1009B0001143DBD1B2683168114382689A43114315
:1009C0000FE08160B968D8F8086001F0010106F015
:1009D00001069268314302F001021143C6D18168D9
:1009E00099438160C2E700000000045000010450F8
:1009F00000030450000204502DE9F84F002704467C
:100A0000009790F85400DFF8D8930D46B8460128B7
:100A100011D0012684F85460206802F01CFA60B1FD
:100A2000A06D40F02000A0655FF0010784F85480BD
:100A3000384600F0EDB90220FBE76868052808D8C1
:100A4000022825D0032825D0042825D0052825D024
:100A5000062021680C2303EA901319442A680B6BC3
:100A600000F01F004FF01F0C0CFA00FCC2F3846270
:100A700023EA0C03824013430B63206802F0EBF976
:100A80008246206802F0E3F95AEA000009D0AAE0A1
:100A90000C20DEE71220DCE71820DAE74FF4807044
:100AA000D7E7AA6829682068B2F1004F20D002F089
:100AB000E2F92068416921F00041416120686969DB
:100AC000C268C2F3C102520091402A69042A17D0B9
:100AD00000EB82002B68026EDFF808C303F0F843D6
:100AE00002EA0C020B431A4342F0004101667AE02D
:100AF000002202F0C0F92068416941F00041DCE7C2
:100B0000002102F09EF9400320684FF0000172D0EE
:100B100002F097F990FAA0F0B0FA80F12868420349
:100B20006ED090FAA0F0B0FA80F0814204D1002299
:100B30001146206802F0AEF90121206802F081F927
:100B4000400320684FF001015DD002F07AF990FA7D
:100B5000A0F0B0FA80F12868420359D090FAA0F0D2
:100B6000B0FA80F0814204D100220121206802F015
:100B700091F90221206802F064F9400320684FF0E7
:100B8000020148D002F05DF990FAA0F0B0FA80F1CD
:100B90002868420344D090FAA0F0B0FA80F0814275
:100BA00004D100220221206802F074F90321206898
:100BB00002F047F9400320684FF0030133D002F000
:100BC00040F990FAA0F0B0FA80F1286842032FD0E3
:100BD00090FAA0F0B0FA80F0814204D10022032103
:100BE000206802F057F92068816811F0010F22D0C7
:100BF000ABE000E004E002F024F9C0F384618DE78B
:100C0000C0F3846091E702F01CF9C0F38461A2E7AD
:100C1000C0F38460A6E702F014F9C0F38461B7E77B
:100C2000C0F38460BBE702F00CF9C0F38461CCE749
:100C3000C0F38460D0E72A7B296850F8B03FC1F345
:100C4000120C23EA0C0302F0180C674A22FA0CF289
:100C50000A4013430360E968494576D12868410397
:100C60001BD090FAA0F1B1FA81F1491C01F01F01EB
:100C700009294FEA403131D8002911D090FAA0F16A
:100C8000B1FA81F101F1010101F01F0106FA01F64B
:100C900009D100BFC0F3846109E0C0F38461E4E7D7
:100CA000C0F38461EEE790FAA0F1B1FA81F101F1AD
:100CB000010101F01F0146EA816102D1C0F38460A5
:100CC00003E090FAA0F0B0FA80F000F1010000F02B
:100CD0001F0000EB400041EA005132E000290ED035
:100CE00090FAA0F1B1FA81F101F1010101F01F01C7
:100CF00006FA01F606D100BFC0F3846106E0C0F336
:100D00008461F1E790FAA0F1B1FA81F101F10101FA
:100D100001F01F0146EA816102D1C0F3846003E063
:100D200090FAA0F0B0FA80F000F1010000F01F008E
:100D30002E4A00EB400002EB005041EA000141F076
:100D40000071AA68206802F096F829482A680242D1
:100D50003FF46CAE27488168274E284B284D01F0A0
:100D6000E071B2421DD10E021BD422689A4202D019
:100D7000AA427FF45BAE826841F4000122F0E07287
:100D80000A4382601F4820490068B0FBF1F0401C14
:100D900000EB4000800000E0401E00900028FBD1E6
:100DA00044E61A4EB24209D1CE0107D422689A42D3
:100DB00001D0AA42F4D141F080710AE06FF0004501
:100DC000EA42EDD14A02EBD422689A42E8D141F4DA
:100DD0008001826822F0E0720A43826026E6000009
:100DE00000007F4000F0FF03FFFF0700000020FE2F
:100DF0000000088000030450000052C700000450A7
:100E00000002045038000020400D0300000084CB95
:100E100018BCBDE8E08F704770477047F8B54FF0D9
:100E2000000504002E46009502D0A06D10B107E029
:100E30000120F8BD204600F0D5F8E66584F854603E
:100E400020688168C1F3407119B181685B4A114023
:100E5000816020688168C1F3007189B98168584A4E
:100E6000114041F080518160564857490068B0FBFD
:100E7000F1F04000801C00E0401E00900028FBD1F3
:100E800020688168C1F3007141B9A16D41F0100182
:100E9000A165E16D41F00101E165012501F0DBFF94
:100EA000A16DC90600D430B1A06D40F01000A0655E
:100EB00001252846F8BDA06D20F4807040F00200A6
:100EC000A0652068806810F0010F15D13F48806848
:100ED0003F4900F00100896801F0010108433D49E4
:100EE000896801F00101084306D13B4861688268C6
:100EF00022F47C120A438260E168606B627E0843E0
:100F0000A16841EA4231084394F8201040EA0140C8
:100F1000012904D1A18C314A02EB41410843A16A65
:100F200029B101F47071E26A014342EA01002268CA
:100F3000D1682B4B19400143D160206801F087FF35
:100F4000B8B9207E94F83010800340EA4100E16C8B
:100F500008432168CA6844F206039A430243CA6000
:100F600094F8380001280CD02068016921F00101B3
:100F70000161206901282068016B21F00F0111D067
:100F800013E0D4E90F010843D4E9111211430843D7
:100F900021680A6940F2FC739A43104340F0010053
:100FA0000861E6E7E269521E11430163A06D20F07B
:100FB000020040F00100A0657BE70000C0FFFF5F7A
:100FC000C0FFFF7F38000020400D030000000450E8
:100FD0000001045000020450000304500000FEFF12
:100FE00007C0F0FF2DE9F041AAB00646142123A85E
:100FF000FFF76BFA8C216846FFF767FA3B493068C8
:1010000088426FD14FF48040012500908003019504
:101010001F90029510200224CDE903040005CDE9BC
:1010200006400594684600F055FC08B1FFF71CFC2B
:101030002F49C86C40F40050C864C86C00F40050DC
:101040002890C86C40F00400C864C86C00F004002C
:101050002890C86C40F00100C864C86C00F0010022
:101060002890C86C40F00200C864C86C032700F0E8
:1010700002002890CDE92357DFF87880002523A9C6
:101080004046259500F016FA2595CDE9234723A97A
:10109000404600F00FFA04202595CDE9230723A947
:1010A000404600F007FA08202595CDE9230723A93B
:1010B000404600F0FFF9114C0F48C4E900058020BC
:1010C000A560C4E90350800060618000A061202019
:1010D000C4E90705204600F043F908B1FFF7C4FB57
:1010E0003465A6622AB0BDE8F0810000000004501B
:1010F000001002400008004808000240FC300020B8
:101100002DE9F0410446394817468846806800F0CA
:101110001F05206801F09FFE002864D194F8540058
:10112000012860D0012084F85400314920688842A9
:1011300001D1012000E00020401E28424FF00006AF
:1011400005D0052D03D0092D01D0012003E0204654
:10115000FFF714FB18B184F85460BDE8F081A06D6E
:1011600040F60161884340F48070A0652149206801
:10117000884201D1204900E00146814200D01DB9DA
:10118000A06D20F48010A065A06DC00404D5E06DB2
:1011900020F00600E06500E0E665216D1748C862B2
:1011A000216D17480863216D1648486321681C208B
:1011B000086084F854602068416841F01001416083
:1011C0002068C16841F00101C16021683B46424688
:1011D0004031206D00F024F921688A680A4B1A40DA
:1011E000121D8A60B9E70220B7E70000000304502F
:1011F0000002045000010450000004507F06000863
:1012000001070008E7060008C0FFFF7F10B590F84F
:1012100025100022022905D00421C16380F8242072
:10122000012010BD01680B6823F00E030B600168FC
:101230000B6823F001030B6090F84410046C01F07C
:101240001C03012101FA03F3636080F8251080F884
:101250002420104610BD10B590F825100024022956
:1012600003D00421C16301241AE001680A6822F056
:101270000E020A6001680A6822F001020A6090F812
:101280004410036C01F01C02012101FA02F25A60C1
:1012900080F82510002180F82410816B01B1884767
:1012A000204610BDF0B4016C0C6801680D6890F820
:1012B000442002F01C06042202FA06F3234211D055
:1012C0006B070FD50B689B0603D40B6823F0040350
:1012D0000B6090F8441001F01C018A40016C4A60D8
:1012E000016B1DE0022303FA06F727424FF0000CC2
:1012F0004FF0010218D0AF0716D50C68A40605D42C
:101300000C6824F00A040C6080F8252090F8441042
:1013100001F01C018B40016C4B6080F824C0C16A55
:1013200000291AD0F0BC08470823B340234214D048
:101330002B0712D50B6823F00E030B6090F84410B6
:10134000036C01F01C0102FA01F15960C26380F8DC
:10135000252080F824C0416BE2E7F0BC7047000014
:1013600070B568B12B4C036814212B4AA34209D2F3
:101370002A4C1C44B4FBF1F18900C0E910210BE0B8
:10138000012070BD234C64421C44B4FBF1F1890080
:101390004164204908390164022180F825101C6845
:1013A00047F6F0718C43D0E902152943D0E9045681
:1013B0003543294385692943C5692943056A29437A
:1013C000214319608168B1F5804F19D0036C0F215A
:1013D000934202D152F8A83F02E00E4AA0321368AD
:1013E00090F8444004F01C04A1408B43136090F833
:1013F0004430416803F01C0399401368194311609D
:101400000021C163012280F8252080F824100846BD
:1014100070BD00000804024000000240F8FFFDBF5C
:1014200070B5044690F82400002501280CD0012056
:1014300084F8240094F825600020012E06D084F85A
:1014400024000225284670BD022070BD022684F8C3
:101450002560E0632068066826F0010606602046E5
:10146000FFF7EAF9206B00282068016802D041F0FC
:101470000E0106E021F0040101602068016841F0DE
:101480000A0101602068016841F001010160D9E7AB
:1014900070B5044600F044F90546601C02D00448CB
:1014A0000078044400F03CF9401BA042FAD370BD20
:1014B0002C0000202DE9F04FDFF8209200230126B8
:1014C0000325A9F1040B85B00F2709F1040AABF13C
:1014D000040EFBE006FA03FC12EA0C027ED00C7943
:1014E00004F00304012C01D0022C20D18468009464
:1014F0005C0005FA04F80494009C24EA08040094B3
:10150000D1F80C80049C08FA04F8009C48EA04080E
:10151000C0F80880446824EA0C0491F804C0CCF3B5
:10152000001C0CFA03FC4CEA040CC0F804C00C7953
:10153000E443A4070ED0C4684FEA430805FA08FC48
:1015400024EA0C04D1F808C00CFA08FC4CEA040C9C
:10155000C0F80CC00C7904F00304022C15D1DC088F
:1015600000EB84040294246A4FEA437C4FEADC686F
:1015700007FA08FC24EA0C04D1F810C00CFA08FCA5
:101580004CEA040C029CC4F820C004684FEA4308EB
:1015900005FA08FC24EA0C0491F804C00CF0030CD2
:1015A0000CFA08FC4CEA040CC0F800C04C6814F4B7
:1015B000403F13D04A4CD4F860C04CF0010CC4F842
:1015C00060C0246E23F0030C04F001040094454C29
:1015D00064440294A4684FEA837C00E075E04FEA1B
:1015E0001C7807FA08FC24EA0C04B0F1904F06D0EE
:1015F000DFF8F4C0604505D14FF0010C2EE04FF04C
:10160000000C2BE0DFF8E4C0604502D14FF0020C83
:1016100024E0DFF8DCC0604502D14FF0030C1DE090
:10162000DFF8D0C0604502D14FF0040C16E0DFF8BF
:10163000C8C0604502D14FF0050C0FE0DFF8BCC018
:10164000604502D14FF0060C08E0DFF8B4C06045F9
:1016500002D14FF0070C01E04FF0080C0CFA08FC27
:101660004CEA040C029CC4F808C0D9F80040CC46EF
:10167000D1F8048094435FEAC82800D51443CCF81D
:101680000040DAF80040D446D1F8048094435FEA81
:10169000882800D51443CCF80040DBF80040DC4635
:1016A000D1F8048094435FEA883800D51443CCF81D
:1016B0000040DEF80040F446D1F8048094435FEA2D
:1016C000C83800D51443CCF800405B1C0A6832FAD5
:1016D00003F47FF4FFAE05B000F014B80804014035
:1016E00000100240000001400004004800080048CB
:1016F000000C004800100048001400480018004882
:10170000001C004830BCBDE8C08F0069084000D014
:10171000012070470AB18161704781627047000003
:1017200001488068704700002C0000200248816852
:1017300002781144816070472C00002010B500240D
:10174000032000F071F80F2000F008F808B1012420
:1017500001E000F025F8204610BD000070B50E4EE7
:1017600005460024307898B14FF47A71B1FBF0F05F
:101770000A490968B1FBF0F000F05EFE40B9102D97
:1017800006D200222946501E00F02EF8756000E0B7
:101790000124204670BD00002C00002038000020ED
:1017A000094808B5016E41F001010166016E01F0C2
:1017B00001010091816D41F080518165806D00F0E3
:1017C0008050009008BD000000100240002809DB96
:1017D00000F01F02012191404009800000F1E0204B
:1017E000C0F8001170470000F0B40E4B1B680C46A7
:1017F000C3F30223C3F10705042D00D90425191DE5
:10180000072901D2002300E0DB1E012606FA05F1BC
:10181000491E214099409E40761E16403143F0BC3F
:1018200002F025BC0CED00E0064900F00702086854
:101830004FF6FF03184040EA0220034A10430860B5
:10184000704700000CED00E00000FA051649B0F505
:10185000007F0868C0F3412009D0022805D008683D
:1018600020F4C06040F480600860002070470128C8
:10187000FBD0086820F4C06040F4007008600B489A
:101880003222006850430A4AB0FBF2F0401C00E0EC
:10189000401E4A69520501D50028F9D14869400522
:1018A000E3D503207047000000700040380000209E
:1018B00040420F000248416841F4007141607047A6
:1018C000007000400248006800F4C06070470000EB
:1018D000007000402DE9F84F044600270088EC4DC9
:1018E0003E46010504F1200B1DD5A06E78B1B0F580
:1018F000800F11D0B0F5000F04D0B0F5400F22D00A
:1019000001270FE0E86840F48030E8601BE0002128
:10191000201D01F069FC03E00021584601F0FAFCAB
:10192000070010D03E462088C00426D5E06EC0B126
:10193000B0F1807F1AD0B0F1007F0DD0B0F1407FC0
:1019400019D0012718E0D5F88800A16E20F44000D6
:101950000843C5F88800E6E7E86840F48030E860AE
:1019600009E00021201D01F03FFC03E00021584662
:1019700001F0D0FC0746F7B13E46206880033AD517
:10198000A86D4FF00008C00009D4A86D40F0805049
:10199000A865A86D4FF0010800F080500090DFF8B6
:1019A000F4A2DAF8001041F48071CAF80010FFF7D1
:1019B000B7FE814610E0D5F88800E16E20F0407057
:1019C0000843C5F88800D8E7FFF7AAFEA0EB090096
:1019D000022801D9032705E0DAF80000C005F3D595
:1019E000002F7CD04FEA0706B8F1000F03D0A86D96
:1019F00020F08050A8652078C00707D0D5F888006F
:101A0000A16B20F003000843C5F888002078800708
:101A100007D5D5F88800E16B20F00C000843C5F825
:101A200088002078400707D5D5F88800216C20F081
:101A300030000843C5F888002078000707D5D5F89E
:101A40008800616C20F0C0000843C5F88800207849
:101A5000C00607D5D5F88800A16C20F44070084373
:101A6000C5F888002078800607D5D5F88800E16C95
:101A700020F440600843C5F888002088800507D519
:101A8000D5F88800216E20F440200843C5F888006E
:101A90002088400507D5D5F88800616E20F44010F5
:101AA0000843C5F888002078400607D5D5F8880097
:101AB000216D20F440500843C5F8880020780006C6
:101AC00007D5D5F88800616D20F440400843C5F87B
:101AD00088002088C00509D5D5F8880000E027E0F7
:101AE000A16D20F440300843C5F888002068C0028A
:101AF00007D5D5F89C00E16D20F003000843C5F838
:101B00009C0020884FF0006780044FF0806850D51B
:101B1000D5F88800216F20F040600843C5F88800A0
:101B2000206FB8423DD1E86840F48010E86040E0A2
:101B3000D5F8900010F4407015D0D4F88810814288
:101B400011D0D5F89000D5F8901020F4407041F4F1
:101B50008031C5F89010D5F8901021F48031C5F887
:101B60009010C5F89000C00711D0FFF7D9FD0746C7
:101B700041F2883907E000BFFFF7D2FDC11B49459C
:101B800001D9032630E7D5F890008007F4D5D5F8C1
:101B90009000D4F8881020F440700843C5F89000F5
:101BA00022E7404505D10121201D01F01DFB00B1B8
:101BB00006462068000317D5D5F88800616F20F02D
:101BC00040600843C5F88800606FB84204D1E868F7
:101BD00040F48010E86007E0404505D10121201D58
:101BE00001F002FB00B106462068400317D5D5F886
:101BF0008800A16F20F040600843C5F88800A06FFE
:101C0000B84204D1E86840F48010E86007E040453D
:101C100005D10121201D01F0E7FA00B10646208818
:101C200040041AD5D5F88800E16F20F040500843F1
:101C3000C5F88800E06FB0F1805F03D0B0F1005FBD
:101C400005D00AE00221201D01F0CEFA03E00221B6
:101C5000584601F05FFB00B106462088000408D515
:101C6000D5F88800D4F8801020F080400843C5F8EB
:101C700088002068C00307D555F8880FD4F8841071
:101C800020F0004008432860304600F005B800000E
:101C9000001002400070004018BCBDE8E08F00005A
:101CA0002DE9F0470F4605006BD0494E306800F033
:101CB0000700B84209D2306820F00700384330608E
:101CC000306800F00700B8425BD12878414C8007AB
:101CD0000AD5A868A16801F0F001884204D9A1687A
:101CE00021F0F0010143A1602878C0072CD068687A
:101CF000032811D0022812D0216898B14905002983
:101D00003FDAA16821F003010143A160FFF708FD5C
:101D1000804641F2883910E021688901EFE72168A7
:101D20008903ECE78907EAE7FFF7FAFCA0EB080173
:101D3000494502D90320BDE8F087A068696800F032
:101D40000C00B0EB810FEFD1287880070AD5A86886
:101D5000A16801F0F001884204D2A16821F0F001ED
:101D60000143A160306800F00700B8420BD9306829
:101D700020F0070038433060306800F00700B842B8
:101D800001D00120D7E72878400705D5A068E96889
:101D900020F4E0600843A0602878000706D5A0681A
:101DA000296920F4605040EAC100A06000F03EF8CC
:101DB000A168094AC1F30311515C01F01F01C84039
:101DC0000649086006480068BDE8F047FFF7C6BC52
:101DD0000020024000100240344500083800002076
:101DE000300000200548064900688968054AC1F3AB
:101DF0000221515C01F01F01C840704738000020EB
:101E000000100240744500080548064900688968CA
:101E1000054AC1F3C221515C01F01F01C84070475F
:101E200038000020001002407445000870B52549B4
:101E3000002318468A68CC6812F00C0204F00306EE
:101E4000214C4FEA640509D00C2A05D0042A32D06F
:101E5000082A00D1284670BD012E10D10B681B073F
:101E600004D4D1F89430C3F3032302E00B68C3F326
:101E70000313164E56F82330DAB10C2AEBD1C8689A
:101E800000F00300022818D0032818D01846CA68AA
:101E9000CB68C2F30212C3F306234343521CB3FBC5
:101EA000F2F2C868C0F34160401C4000B2FBF0F0A1
:101EB00070BD184670BD204670BD2046E7E7284635
:101EC000E5E70000001002400024F400444500084B
:101ED0002DE9F84304006FD0FA4DA86800F00C0615
:101EE000E86800F003072078C00664D576B10C2EB0
:101EF00001D1012F0AD0A069002828687AD040F0CB
:101F000001002860FFF70CFC80465DE02868800730
:101F100002D5A0690028DED0216A2868000703D511
:101F2000286800F0F00004E0D5F89400F02202EAFE
:101F30001010814216D9084601F070FA00283BD1F2
:101F4000286840F0080028602868216A20F0F00026
:101F5000084328606868E16920F47F4040EA012076
:101F6000686016E0286840F0080028602868216A48
:101F700020F0F000084328606868E16920F47F40A1
:101F800040EA0120686026B9206A01F047FA00287B
:101F9000D5D1FFF74BFFA968CB4AC1F30311515CC0
:101FA00001F01F01C840C9490860C9480068FFF72F
:101FB000D5FB00287ED12EE0CAE000BFFFF7B0FBC2
:101FC000A0EB0800022876D828688007F6D5286894
:101FD00040F0080028602868216A20F0F0000843DB
:101FE00028606868E16920F47F4040EA0120686069
:101FF00011E0FFE720F001002860FFF791FB804629
:1020000006E000BFFFF78CFBA0EB08000228DAD83F
:1020100028688007F6D42078C00740D0082E18D052
:102020000C2E01D1032F14D06068B0F5803F17D07B
:10203000B0F5A02F286817D020F4803028602868D9
:1020400020F4802028606068E0B1FFF769FB8046DB
:1020500014E02868800322D56068002878D01EE04C
:10206000286840F48030EDE740F480202860F7E7EE
:10207000FFF756FBA0EB08006428A4D8286880036B
:10208000F6D50CE0FFF74CFB804605E0FFF748FB78
:10209000A0EB0800642896D828688003F6D420783E
:1020A00080073BD5042E11D00C2E01D1022F0DD06C
:1020B000E06801E0AEE1FFE0002828681ED040F4AF
:1020C00080702860FFF72CFB07460CE0286840056D
:1020D0000CD5E0680028C1D008E000BFFFF720FB66
:1020E000C01B022893D828684005F7D56868217C72
:1020F00020F0FE4040EA016068600FE020F480704C
:102100002860FFF70DFB074605E000BFFFF708FB5F
:10211000C01B0228B1D828684005F7D420780007F2
:1021200029D560690028D5F8940012D040F001004C
:10213000C5F89400FFF7F4FA074604E0FFF7F0FA59
:10214000C01B022899D8D5F894008007F6D512E074
:102150002BE120F00100C5F89400FFF7E1FA0746F3
:1021600005E000BFFFF7DCFAC01B022885D8D5F8D0
:1021700094008007F6D42078400766D5A86D002724
:10218000C00008D4A86D40F08050A865A86D012754
:1021900000F0805000904F480168C90512D40168D2
:1021A000814641F480710160FFF7BAFA804605E08C
:1021B000FFF7B6FAA0EB080002287DD8D9F8000096
:1021C000C005F5D5A068012816D00528D5F89000DF
:1021D00017D020F00100C5F89000D5F8900020F04D
:1021E000040000BFC5F89000A06841F28839C0B172
:1021F000FFF796FA80460FE0D5F8900040F0010016
:10220000F0E740F00400C5F89000F5E7FFF788FA22
:10221000A0EB080149454FD8D5F890008007F5D5C7
:102220000EE0FFF77DFA804606E000BFFFF778FA80
:10223000A0EB080149453FD8D5F890008007F5D4B8
:102240001FB1A86D20F08050A8652078800628D5A1
:10225000606A0028D5F8980012D040F00100C5F857
:102260009800FFF75DFA074605E000BFFFF758FA50
:10227000C01B022820D8D5F898008007F6D510E0BA
:1022800020F00100C5F89800FFF74AFA074604E07D
:10229000FFF746FAC01B02280ED8D5F89800800731
:1022A000F6D4A06AF0B3022816D00C2E7DD0286890
:1022B00020F08070286000E0ABE0FFF731FA0446C0
:1022C000AAE0000000100240344500083800002059
:1022D0003000002000700040E868E26A00F003016E
:1022E000914228D1216B00F070020901103991420E
:1022F00021D1626B00F4FE41B1EB022F1BD194F8A7
:10230000382000F07841B1EBC26F14D1A18F00F4F6
:10231000C00249084905A1F5001191420BD194F87A
:10232000401000E06EE04908490600F0C060A1F1ED
:10233000007181424FD00C2E77D02868400174D4B0
:102340002868C00071D4286820F080702860FFF7EA
:10235000E7F9064605E000BFFFF7E2F9801B022817
:1023600057D828688001F7D4F4E90B016FF00F0209
:1023700002EB01110843218A5204490802EB415142
:10238000A26841EA02210843217D4FF07E424908BC
:1023900002EB41610843217B40EAC160E968244ABD
:1023A00011400843E860286800E03EE040F080709B
:1023B0002860E86840F08070E860FFF7B1F90446F3
:1023C00005E000BFFFF7ACF9001B022821D8286800
:1023D0008001F7D527E02868800124D4286840F0E0
:1023E00080702860E86840F08070E860FFF798F936
:1023F000044604E0FFF794F9001B022809D8286876
:102400008001F7D50FE000BFFFF78AF9001B022813
:1024100002D90320BDE8F88328688001F4D4E86875
:1024200004490840E8600020F4E70120F2E70000DA
:102430008C809D01FCFFEEFE10B5401EB0F1807F48
:1024400001D3012010BD4FF0E02460610F2160171F
:1024500001F00DFE0020A06107202061002010BDCA
:102460007047704770470000F0B590F83C20012A93
:1024700039D0012480F83C40022280F83D200268D7
:1024800053689568194E1A4FB24201D0BA4204D12E
:1024900023F4700C4B6843EA0C0323F0700C0B68B8
:1024A00043EA0C0353600268B24210D0B2F1804F8D
:1024B0000DD0104B9A420AD00F4B9A4207D00F4BC7
:1024C0009A4204D0BA4202D00D4B9A4204D1896894
:1024D00025F080031943916080F83D40002180F889
:1024E0003C100846F0BD0220F0BD0000002C014069
:1024F000003401400004004000080040000C00408F
:102500000040014010B5040003D094F83D0010B124
:1025100007E0012010BD002084F83C00204600F0B8
:1025200023F8022084F83D00211D206801F086F97F
:10253000012084F8480084F83E0084F83F0084F8C5
:10254000400084F8410084F8420084F8430084F895
:10255000440084F8450084F8460084F8470084F875
:102560003D00002010BD000008B5006817498842F2
:102570002AD11748016E41F400510166006E002215
:1025800000F40050009011462B20FFF72DF92B206E
:10259000FFF71CF9002211462C20FFF725F92C200B
:1025A000FFF714F9002211462D20FFF71DF92D2009
:1025B000FFF70CF9002211462E20FFF715F9BDE8B0
:1025C00008402E20FFF702B908BD0000003401408A
:1025D0000010024090F83D10012901D00120704701
:1025E000022180F83D1000681149884211D0B0F1F5
:1025F000804F0ED00F4988420BD00F49884208D037
:102600000E49884205D00E49884202D00D498842C1
:1026100007D181680C4A1140062906D0B1F5803FE8
:1026200003D0016841F00101016000207047000003
:10263000002C01400004004000080040000C004055
:1026400000340140004001400700010070B504461D
:1026500090F83C000025012817D0012684F83C6042
:10266000022084F83D00226890682F4B184020F427
:102670007F4090600868502838D00DDC20284FD06B
:1026800005DC90B3102811D14AE0022070BD30283B
:1026900046D040280AD13BE060282FD070280DD0CA
:1026A000B0F5805F03D0B0F5005F12D0012584F84B
:1026B0003D60002084F83C00284670BDCB68D1E91D
:1026C0000121206801F01AF92068816841F0770142
:1026D00009E0CB68D1E90121206801F00FF92068F9
:1026E000816841F480418160E1E719E0CA68496886
:1026F000206801F015F95021206806E0CA68496891
:10270000206801F01EF96021206801F001F9CEE790
:10271000CA684968206801F003F940212068F4E79D
:10272000226801461046F0E788FFFEFF70472DE95A
:10273000F04104460068C66805694FF00007A90724
:1027400013D5B10711D5F91E01610120207720684A
:1027500080698007204602D0FFF7E8FF04E000F020
:1027600089F8204600F087F82777680716D57007A4
:1027700014D521686FF004000861022020772068DA
:10278000806910F4407F204602D0FFF7CFFF04E0BD
:1027900000F070F8204600F06EF82777280715D56E
:1027A000300713D521686FF00800086104202077F6
:1027B0002068C0698007204602D0FFF7B7FF04E019
:1027C00000F058F8204600F056F82777E80616D5AE
:1027D000F00614D521686FF01000086108202077FA
:1027E0002068C06910F4407F204602D0FFF79EFFAA
:1027F00004E000F03FF8204600F03DF82777E807B6
:1028000008D0F00706D021686FF00100086120466B
:1028100000F032F8280608D5300606D521686FF09A
:10282000800008612046FFF71CFEE80508D5300649
:1028300006D521686FF4807008612046FFF710FE0E
:10284000680608D5700606D521686FF0400008615B
:10285000204600F012F8A8060AD5B00608D521686F
:102860006FF0200008612046BDE8F041FFF7FABD97
:10287000BDE8F081704770477047704770477047F8
:10288000704700002DE9F04102680446D0691168E4
:10289000936840F60F0528424FF000054FF00206FE
:1028A00005D187067ED58F067CD5A16E2BE1DFF89A
:1028B00084C203F0010701EA0C0C57EA0C0C71D03A
:1028C0005FEAC07C0CD05FEAC15C09D54FF0010C17
:1028D000C2F820C0D4F8842042F00102C4F8842059
:1028E000820709D5DA0707D022681662D4F8842057
:1028F00042F00402C4F8842042070AD5DA0708D05F
:10290000236804221A62D4F8842042F00202C4F838
:10291000842002070CD501F020023A4308D0236836
:1029200008221A62D4F8842042F00802C4F88420F5
:1029300002050BD54A0109D523684FF400621A62DB
:10294000D4F8842042F02002C4F88420D4F88420F3
:10295000002A36D0800605D5880603D5A16E09B1B8
:1029600020468847D4F8840021688968490602D443
:1029700010F0280F27D0204601F0B7F820688068B3
:1029800040061BD52068083050E8001F21F04001A8
:1029900040E80012002AF5D1606F78B16649816382
:1029A000606F00E015E0FEF756FC002809D0606F6C
:1029B000816B00E02046BDE8F04108472046FFF764
:1029C0005FFFBDE8F0812046FFF75AFFC4F884504E
:1029D000F7E7D4F860C02027BCF1010F7ED15FEA91
:1029E000C06C7FD55FEAC16C7CD510201062206876
:1029F0008068400643D5616F086840680004000C99
:102A0000DFD0B4F858208242DBD9A4F85A00086815
:102A1000006880062BD4216851E8000F20F48070F4
:102A200041E80002002AF6D12068083050E8001F73
:102A300021F0010140E80012002AF5D12068083099
:102A400050E8001F21F0400140E80012002AF5D1B3
:102A5000C4F880702566206850E8001F21F010013E
:102A600040E80012002AF6D1606FFEF7CFFB6666E1
:102A7000B4F85800B4F85A10401A81B22CE0B4F8F7
:102A80005800B4F85A10401A81B2B4F85A0000281D
:102A900097D0002995D0226852E8000F20F490705A
:102AA00042E80003002BF6D12068083050E8002FE0
:102AB00022F0010240E80023002BF5D1C4F8807019
:102AC0002566A566226852E8000F20F0100042E853
:102AD0000003002BF6D16666204600E002E0FFF717
:102AE000CDFE6EE7C60209D55B0207D54FF4801014
:102AF00010622046BDE8F041FFF7C1BE020606D5D0
:102B00000A0604D5E16E00297FF454AF59E7400668
:102B1000E7D54806E5D52046026852E8001F21F0B7
:102B2000400142E80013002BF6D1C767C56600F0EC
:102B300081F946E720010004D73A000810B50400E7
:102B400002D0E06F10B107E0012010BD002084F832
:102B50007800204600F026F82420E067206801680D
:102B600021F001010160606A10B1204600F0FBFE17
:102B7000204601F0A9F80128E7D02068416821F437
:102B8000904141602068816821F02A0181602068BD
:102B9000016841F0010101602046BDE8104000F0ED
:102BA00046BF00002DE9F043A9B00446142123A834
:102BB000FDF78BFC8C216846FDF787FC4C492068AB
:102BC0004C4C03270226002588422ED1202000905D
:102BD000800113906846FEF77DFE08B1FDF744FEC4
:102BE000E06D40F00100E065E06D00F0010028902C
:102BF000E06C40F04000E064E06C00F040002890A1
:102C0000FEF758FE4FF4C0702595CDE92306082045
:102C1000CDE9267023A93848FEF74CFC0022114666
:102C20004620FEF7E1FD46202EE03449DFF8D09043
:102C30004FF0070888422CD1009668460F95FEF7A2
:102C400049FE08B1FDF710FEA06D40F40030A0650C
:102C5000A06D00F400302890E06C40F00800E064C3
:102C6000E06C25AA00F0080028906020CDE923063A
:102C700082E8A00123A94846FEF71CFC0022114669
:102C80002620FEF7B1FD2620FEF7A0FD29B0BDE805
:102C9000F0831C498842F9D10420009010956846C1
:102CA000FEF718FE08B1FDF7DFFDA06D40F48020AF
:102CB000A065A06D00F480202890E06C40F0080032
:102CC000E064E06C25AA00F0080028904FF4407002
:102CD000CDE9230682E8A00123A94846FEF7EAFBD6
:102CE000002211462720FEF77FFD2720CCE70000B9
:102CF00000800040001002400018004800440040DE
:102D0000000C00480048004030B4D0F88030202B40
:102D100002D0022030BC7047A9B1A2B100230366E3
:102D20000A4C0368A3420BD05B681B0208D50468F9
:102D300054E8003F43F0806344E80035002DF6D1AD
:102D400030BC01F0E5B80120E4E70000008000405D
:102D50000B480D4A0B490378906A0B54401C906253
:102D6000084410F8011CFF2905D110F8040C0A28AA
:102D700001D100209062012201490448FFF7C4BF3D
:102D8000743000203C00002000000020443100206E
:102D90002DE9F8430446C06F984616460D46202894
:102DA00002D00220BDE8F88395B18EB10020C4F8AE
:102DB00084002120E067FEF7B3FCA4F85060814650
:102DC000A4F85260A0682027B0F5805F02D003E02D
:102DD0000120E7E7206910B12E46002510E000260B
:102DE0000EE08021204601F0EFF8C0B9D6B116F808
:102DF000010B21680885B4F85200401EA4F8520067
:102E0000B4F852004B464FF00002CDF80080002885
:102E1000E7D14FF04001204601F0D6F838B1E7671E
:102E20000320BFE735F8020BC0F30800E1E7E767CE
:102E30000020B7E70149012008707047000000201A
:102E4000FEE700EB8100006E00F0F84070478068FC
:102E5000C0F3C00070478068C0F38000704780688E
:102E6000C0F380007047C06810F4406F01D00020AC
:102E7000704701207047042303EAD15310B518446A
:102E80004369C1F3045107248C40A3438A40134390
:102E9000436110BD00EB8100016E21F00041114340
:102EA000016670470148FFF7EDBC00004431002087
:102EB00030B589B000240694079418216846089418
:102EC000FDF703FB2E482D490425C0E90014456198
:102ED00001218460C0E90341047644760321C16185
:102EE00080F820404FF4B86181622902C16280F805
:102EF0003040446380F83840FDF790FF08B1FDF79B
:102F0000B3FC06A91E480694FDF7F8FC08B1FDF7CE
:102F1000ABFC1C4800900620019002907F20059495
:102F2000CDE9030569461648FDF766FD08B1FDF7D2
:102F30009BFC154800900C20019069461048FDF755
:102F40005BFD08B1FDF790FC104800901220019045
:102F500069460B48FDF750FD08B1FDF785FC0C48AC
:102F600000901820019069460548FDF745FD0028AE
:102F700001D0FDF779FC09B030BD0000000004501D
:102F80009430002002003004040060080800900C17
:102F90001000C010094808B5816C41F0010181643E
:102FA000806C002200F00100009011460B20FEF71B
:102FB0001BFCBDE808400B20FEF708BC00100240D7
:102FC00070B586B014216846FDF77FFA3748C16CAA
:102FD00041F00401C164C16C01F004010591C16CB0
:102FE00041F08001C164C16C01F080010591C16CA8
:102FF00041F00101C164C16C01F001010591C16C96
:1030000041F00201C164C16C01F002010591C16C83
:1030100041F00801C164C16C01F008010591C16C67
:1030200041F04001C164C16C01F040010591C16CE7
:1030300041F01001C164C06C00F010000590FEF773
:1030400039FC1B4D002280212846FEF763FB00223D
:103050004FF480412846FEF75DFB164E01221021F9
:103060003046FEF757FB4FF48140009001200024CA
:10307000CDE90104694628460394FEF71BFA1020A7
:1030800000901120CDE90104694630460394FEF713
:1030900011FA4FF40050CDE9000402946946064845
:1030A0000394FEF707FA06B070BD0000001002405E
:1030B0000004004800100048000800480D4810B502
:1030C0000B4901604FF416514160002181600C22D0
:1030D000C160C0E90412816101624162FFF72EFD07
:1030E000002803D0BDE81040FDF7BEBB10BD0000B6
:1030F000008000404431002010B588B000241948F9
:103100000594069403940494009401941449029441
:1031100001600A21C0E9011441F28831C0E90314B9
:1031200044618461FFF7EEF908B1FDF79DFB4FF4B0
:103130008050039003A90B48FFF788FA08B1FDF708
:1031400093FB202000900004CDE901046946054866
:10315000FFF78AF9002801D0FDF786FB08B010BD03
:1031600000340140DC3200200D4810B50B490160ED
:103170004FF416514160002181600C22C160C0E90A
:1031800004128161C16101624162FFF7D7FC00282E
:1031900003D0BDE81040FDF767BB10BD0044004000
:1031A000CC3100200D4810B50B4901604FF4165189
:1031B0004160002181600C22C160C0E9041281617C
:1031C000C16101624162FFF7B9FC002803D0BDE88C
:1031D0001040FDF749BB10BD0048004054320020AC
:1031E000FEE7FEE7704700002DE9F041444C05463C
:1031F0008846E0680026810728680DD0E16801F064
:103200000301814216D1A8B1E0686968C0F30210D9
:10321000401C88420ED120E0012804D0022805D0AD
:10322000032807D108E02168890701E021684905E2
:10323000002907DB01265FE02168890302D42168A9
:103240004903F5E7E1686A686FF00F0321F0730145
:1032500003EB021211430143E160206820F080601B
:103260002060FEF75DFA074605E000BFFEF758FA5A
:10327000C01B022837D820680001F7D4B8F1000F2E
:1032800018D0B8F1010F1DD0287D4FF07E414008C5
:1032900001EB4060A96840EA01202169194A114008
:1032A00008432061206840F080602060FEF738FA13
:1032B00007461AE0A868297B000240EAC16021693C
:1032C000114AECE7288A1149400801EB4050A968EF
:1032D00040EA012021690E4AE1E700BFFEF720FA2B
:1032E000C01B022801D9032606E020680001F5D59D
:1032F0002069A969084320613046BDE8F0810000DB
:1033000000100240FF80FFF9FF80FF070000E0FF90
:10331000FF809FFF2DE9F0413D4C06468846E0685E
:103320000025810730680DD0E16801F0030181427A
:1033300016D1A8B1E0687168C0F30210401C884241
:103340000ED120E0012804D0022805D0032807D19F
:1033500008E02168890701E021684905002907DBA9
:10336000012551E02168890302D421684903F5E76A
:10337000E16872686FF00F0321F0730103EB021232
:1033800011430143E160206820F080502060FEF787
:10339000C7F9074605E000BFFEF7C2F9C01B0228C7
:1033A00029D820688000F7D4B8F1000F15D0307C00
:1033B0004FF07E41400801EB4060B16840EA0120D7
:1033C0006169144A114008436061206840F08050F0
:1033D0002060FEF7A5F907460FE0B068317B0002D8
:1033E00040EAC16061690C4AECE700BFFEF798F95A
:1033F000C01B022801D9032506E020688000F5D50E
:1034000060697169084360612846BDE8F081000089
:1034100000100240FF80FFF9FF80FF07F8B51C4D48
:1034200006460024A86DC00002D5FEF74BFA0DE059
:10343000A86D40F08050A865A86D00F08050009005
:10344000FEF740FAA96D21F08051A965B0F5007F23
:1034500004D0802E07D94FF003040AE0802E08D94B
:10346000A02E01D804E001D1022402E0702E00D188
:1034700001240848016821F0070121430160006828
:1034800000F00700A04201D00120F8BD0020F8BDE7
:10349000001002400020024010B59FED0C0B9FED84
:1034A0000D1B4AF2D33453EC112B51EC100B01F0ED
:1034B00005F800D8641C2146012000F0B5F821462B
:1034C000BDE81040002000F0AFB800000000000090
:1034D00000000000000000000000E03F30B585B0B3
:1034E000A020009001250024CDE9015469464FF049
:1034F00090400394FDF7DEFFA8030090CDE901544E
:10350000694603480394FDF7D5FF05B030BD0000C0
:10351000000C004810B5FFF7E1FFBDE8104000F0D7
:1035200009B900002DE9F047DFF8F8901746054685
:103530000C464FF48048012241464846FEF7EAF81F
:103540004FF0904A002220215046FEF7E3F8012078
:10355000FDF79EFF0DB1012D11D1012245464146D7
:103560004E464846FEF7D6F80120FDF791FF0022AF
:1035700029463046FEF7CEF80120FDF789FF0026E8
:103580005546200601D5012200E000228021284670
:10359000FEF7C0F80120FDF77BFF0122202128461D
:1035A000FEF7B8F80120FDF773FF6006040E012056
:1035B000FDF76EFF002220212846FEF7ABF8012020
:1035C000FDF766FF761CF6B2082EDAD30024380425
:1035D00001D5012200E0002280212846FEF79AF85A
:1035E0000120FDF755FF012220212846FEF792F821
:1035F0000120FDF74DFF7F000120FDF749FF00226C
:1036000020212846FEF786F80120FDF741FF641CC3
:10361000E4B2102CDBD341464846BDE8F047012216
:10362000FEF778B8000C00482DE9F047DFF800916C
:103630000F4604464FF48048012241464846FEF7B3
:1036400069F84FF0904A002220215046FEF762F8B8
:103650000120FDF71DFF14B1012C15D101E0182543
:1036600000E019250122444641464E464846FEF7F1
:1036700051F80120FDF70CFF002221463046FEF7ED
:1036800049F80120FDF704FF00265446280601D51D
:10369000012200E0002280212046FEF73BF80120B5
:1036A000FDF7F6FE012220212046FEF733F8012027
:1036B000FDF7EEFE6806050E0120FDF7E9FE00228B
:1036C00020212046FEF726F80120FDF7E1FE761CBA
:1036D000F6B2082EDAD30025380401D5012200E025
:1036E000002280212046FEF715F80120FDF7D0FECC
:1036F000012220212046FEF70DF80120FDF7C8FE2B
:103700007F000120FDF7C4FE002220212046FEF7A5
:1037100001F80120FDF7BCFE6D1CEDB2102DDBD3CE
:1037200041464846BDE8F0470122FDF7F3BF0000DF
:10373000000C004810B501223F210020FFF7F2FEE7
:1037400001223F211046FFF7EDFE03222021002039
:10375000FFF7E8FE032220210120FFF7E3FE03220A
:1037600030210020FFF7DEFE032230210120FFF789
:10377000D9FEBDE81040FFF78FBE7047FDF7D6BFFA
:1037800010B596B044216846FCF79FFE142111A89D
:10379000FCF79BFE4FF40070FEF758F808B172B6C4
:1037A000FEE7122000904FF480700390402001212A
:1037B0000490002406916020CDE907400220CDE965
:1037C0000A010C912821CDE90D100F901090684648
:1037D000FEF77EFB08B172B6FEE70F2011900320C2
:1037E000CDE912041494042111A81594FEF758FA97
:1037F000002801D072B6FEE716B010BD024801687D
:1038000041F470010160704788ED00E00148FEF767
:103810008EBF0000DC3200200148FEF788BF0000A8
:10382000DC3200200148FEF782BF0000DC320020BD
:103830000148FEF77CBF0000DC3200202DE9F04794
:103840000268264B264D274E274F284C4FF0804AC2
:10385000984209D0504507D0A84205D0B04203D0C5
:10386000B84201D0A04204D122F0700C4A6842EA6A
:103870000C02DFF87CC0DFF87C80DFF87C90984297
:103880000FD050450DD0A8420BD0B04209D0B8425D
:1038900007D0A04205D0604503D0404501D048453F
:1038A00003D122F44075CA682A434D6922F0800290
:1038B0002A4302608A68C2620A688262984207D01C
:1038C000A04205D0604503D0404501D0484501D114
:1038D0000969016301214161BDE8F087002C0140C5
:1038E0000004004000080040000C0040003401408B
:1038F00000400140004401400048014010B5846888
:1039000042EA032224F47F440A432243826010BD2A
:10391000826822F070020A4342F00701816070471A
:1039200010B5036A046A24F001040462846924F077
:10393000F00444EA021423F00A020A43846102629A
:1039400010BD10B5036A046A24F01004046284698F
:1039500023F0A00324F4704444EA023243EA011144
:103960008261016210BD90F82410090706D5016834
:103970004A68436B22F400421A434A6090F82410CC
:10398000C90706D001684A68836A22F400321A43E4
:103990004A6090F82410890706D501684A68C36A0E
:1039A00022F480321A434A6090F82410490706D561
:1039B00001684A68036B22F480221A434A6090F837
:1039C0002410C90606D501688A68836B22F48052E8
:1039D0001A438A6090F82410890606D501688A681F
:1039E000C36B22F400521A438A6090F824104906EF
:1039F00011D501684A68036C22F480121A434A60A8
:103A0000016CB1F5801F06D101684A68436C22F44D
:103A1000C0021A434A6090F82410090606D50168CE
:103A20004A68806C22F4002202434A6070472DE904
:103A3000F84300260446C0F88460FDF771FE804616
:103A4000206800684FF0200500076FF07E4712D510
:103A50004346002229042046009700F0B5FA50B1F1
:103A6000216851E8000F20F0800041E80002002AA0
:103A7000F6D1E56721E020680068400722D543467B
:103A800000224FF480012046009700F09DFAC8B153
:103A9000216851E8000F20F4907041E80002002AEC
:103AA000F6D12068083050E8001F21F0010140E8FD
:103AB0000012002AF5D1C4F8805084F87860032001
:103AC000BDE8F883E567C4F8805044F8606F66602D
:103AD00026760020F4E710B5806A0021A0F85A107D
:103AE000A0F85210FEF7CCFE10BD016851E8002F7F
:103AF00022F4907241E80023002BF6D101680831CE
:103B000051E8002F22F0010241E80023002BF5D1FB
:103B1000016E012908D1026852E8001F21F010014E
:103B200042E80013002BF6D12021C0F880100021BC
:103B3000016681667047000010B5B0F85C20D0F8CF
:103B400080300168222B04D0088B40F008000883E5
:103B500010BD898C436D11401980416D891C4165F0
:103B6000B0F85A10491EA0F85A10B0F85A1000299F
:103B7000EED1016851E8002F22F4907241E8002351
:103B8000002BF6D10168083151E8002F22F0010224
:103B900041E80023002BF5D12021C0F8801000213E
:103BA00081664166154B02689A420BD05268120238
:103BB00008D5036853E8002F22F0806243E8002410
:103BC000002CF6D1026E012A02D0FFF7C1F810BD19
:103BD0000166026852E8001F21F0100142E800135C
:103BE000002BF6D10168CA69D243D20601D4102253
:103BF0000A62B0F85810FEF741FE10BD0080004088
:103C000010B5B0F85C20D0F880300168222B04D0C9
:103C1000088B40F00800088310BD898C1140426D6C
:103C20001170416D491C4165B0F85A10491EA0F849
:103C30005A10B0F85A100029EED1026852E8001F5D
:103C400021F4907142E80013002BF6D1016808318D
:103C500051E8002F22F0010241E80023002BF5D1AA
:103C60002021C0F88010002181664166154B026852
:103C70009A420BD05268120208D5036853E8002F0D
:103C800022F0806243E80024002CF6D1026E012A63
:103C900002D0FFF75DF810BD0166026852E8001F10
:103CA00021F0100142E80013002BF6D10168CA6927
:103CB000D243D20601D410220A62B0F85810FEF79F
:103CC000DDFD10BD008000402DE9F0410446016893
:103CD00080682269E3691043626900251A43104332
:103CE000814F0A68814B1A4002430A60206841688C
:103CF000E26821F44051114341602168A069B94252
:103D000001D0226A10438A6822F4306202438A603A
:103D10007749226877488A420DD1D0F8880010F0A0
:103D2000030006D0012866D0022854D0032851D1C0
:103D300063E001204FE070498A420BD1D0F888003F
:103D400010F00C0047D0042845D0082851D00C288A
:103D500040D152E069498A420BD1D0F8880010F076
:103D6000300038D0102846D0202842D0302831D119
:103D700043E063498A420BD1D0F8880010F0C000BC
:103D800029D0402837D0802833D0C02822D134E031
:103D90005C498A420ED1D0F8880010F440701AD0E5
:103DA000B0F5807F27D0B0F5007F22D0B0F5407FFE
:103DB00010D122E0BA420DD1D0F8880010F4406052
:103DC00009D0B0F5806F16D0B0F5006F11D0B0F506
:103DD000406F12D010204C4900264FF40043BA42E5
:103DE0002ED160B102280DD004280DD008286FD143
:103DF0000EE00220EFE70420EDE70820EBE7FDF7F7
:103E0000F1FF03E00B4603E0FEF710F8030060D07B
:103E1000626802EB420098425AD8B3EB023F57D88F
:103E2000190E1B025008181871410023FCF732FAD2
:103E3000364AA0F5407191424AD82168C86048E0EE
:103E4000E2694FF6EF779A4227D1092840D2DFE89E
:103E500000F005080D3F213F3F3F0E00FDF7C2FF78
:103E600001E0FDF7D1FF030001D132E00B466068AD
:103E7000590001EB5001B1FBF0F0A0F11001B94283
:103E800026D84FF6F0710140C0F34200014320688C
:103E9000C1601EE0FDF7CAFFE5E7092818D2DFE898
:103EA00000F005080D171D1717170E00FDF79AFFF4
:103EB00001E0FDF7A9FF030001D10AE00B466068AD
:103EC00003EB5001B1FBF0F0A0F11001B94208D9A9
:103ED0000125A6662846E666BDE8F081FDF7A6FF47
:103EE000E9E780B2A9E7000000800040F369FFEF36
:103EF00000380140001002400044004000480040EB
:103F0000004C0040005000400024F400FFFC0F0073
:103F100030B54165A0F85820A0F85A2000228266EA
:103F200081684FF48055FF23A94204D1016969BB20
:103F300040F2FF1130E07F2431B3B1F1805F28D02F
:103F4000A0F85C20C0F884202221C0F8801001680D
:103F5000083151E8002F42F0010241E80023002B14
:103F6000F5D18168A94201D10169D9B114498166AD
:103F70000169C9B1016851E8002F42F4907241E82B
:103F80000023002BF6D118E0016941B9A0F85C309C
:103F9000D8E7016919B13F21A0F85C10D2E7A0F879
:103FA0005C40CFE707498166026852E8001F41F094
:103FB000200142E80013002BF6D1002030BD0000A4
:103FC000013C0008393B00082DE9F04799461746A7
:103FD0000E4604464FF00008089D2FE0681C2DD0C7
:103FE000FDF79EFBA0EB0900A84214D89DB1206804
:103FF0000168490722D5C169C94309070DD40825BD
:1040000005622046FFF771FDC4F8845084F878807B
:104010000120BDE8F0870320FBE7C069C04300052D
:104020000CD421684FF4006008622046FFF75DFD64
:104030002020C4F8840084F87880ECE72068C06908
:1040400036EA000004D00020B842C7D00020E0E7E4
:104050000120F9E70148FEF715BC0000CC31002033
:104060000148FEF70FBC000054320020FEE70907AC
:10407000090E002804DB00F1E02080F800147047EE
:1040800000F00F0000F1E02080F8141D70470000E0
:10409000A520B34CE071FDF751FBFFF771FB4FF426
:1040A0007A7A55465046FDF7F3F92846FDF7F0F9C0
:1040B0002846FDF7EDF9FEF783FFFEF76BFFFEF7ED
:1040C000FDFFFEF7F5FEFFF717F8FFF74DF8FFF7D6
:1040D00069F8FFF71FFA0120FDF7DAF97F21A148FF
:1040E000FCF7C4FBA048FEF775FA0120FDF7D0F9F4
:1040F000DFF878820122802145464046FDF70AFB21
:104100004FF4804B012259462846FDF703FB01225C
:1041100010219748FDF7FEFA0A20FDF7B9F90522AC
:1041200094499548FEF7F0FD6423032204F1100141
:104130009148FEF72DFE6069FCF7A8F982B264236E
:104140008D486169FEF724FE6423032204F1100107
:104150008948FEF71DFE6423032204F110018648FE
:10416000FEF716FEA069FCF791F982B2642382483B
:10417000A169FEF70DFE6423032204F110017E48BD
:10418000FEF706FE4FF000097C4E4FF4005529461D
:104190003046FDF7BAFA01280BD10A20FDF778F96D
:1041A00029463046FDF7B1FA012802D1E079C04333
:1041B000E071E0795A287DD0012210216C48FDF78A
:1041C000A9FA6C494E464D4637464FF440621431C9
:1041D0006448FCF795FF6749002014314FF4806371
:1041E00000EB4002401C51F822C001EB8202654402
:1041F000D2F804C09268664417449842F0DB01226A
:1042000080214046FDF786FA002259464046FDF7D8
:1042100081FA05EB45114FF4204091FBF0F258492B
:1042200064250A6006EB461292FBF0F24A6007EB47
:10423000471292FBF0F088605146B0FBF1F2B0FB00
:10424000FAF30AFB1202628130336370B2FBF5F3BA
:1042500005FB1323B2FBF5F2A3703032E2700A259E
:10426000B3FBF5F205FB1232B3FBF5F322713033E9
:1042700063713032A27132225043B0FBFAF080B247
:10428000A081FF2801D9FF20A08182B23C483DA136
:104290000C30FCF777F83248617824300170E1780F
:1042A00041706179817036480C30FCF7EFF882B2CA
:1042B000642300E051E032492F480C31FEF768FDDD
:1042C000274920726423032210312B48FEF760FD3A
:1042D000E089401C80B2E08114282FD32049A4F843
:1042E0000E906423032210312348FEF751FD206A0B
:1042F000FCF7CCF882B264231F48216AFEF748FD20
:1043000017496423032210311B48FEF741FD14496D
:104310006423032210311848FEF73AFDE069FCF7E8
:10432000B5F882B264231448E169FEF731FD0C4907
:104330006423032210311048FEF72AFD0022802159
:1043400045464046FDF7E6F9012259462846FDF765
:10435000E1F90A20FDF79CF816E700222DE700009E
:104360000000002094300020DC32002000040048CF
:10437000001000483C000020CC310020000800481C
:104380005030002061646420312C302C2564000002
:10439000491058BFC1F140415B1058BFC3F14043C1
:1043A0008B42EFF30080704751EA030C17D41CF5E1
:1043B000801F58BFBCF5801F00F10680994218BFCE
:1043C000704708BF9042704707D711F5801F58BF4C
:1043D00013F5801F19D499427047894270471CF524
:1043E000801F08D5BCF5801FF7D58B4218BF7047DA
:1043F00008BF824270474FF4001C1CEB410F38BFCE
:104400001CEB430F01D28B42704770B500F008F8E7
:10441000922449004FF000514FF08053FFF7B8BF8E
:104420000EF1020E2EF0030E5EF8046B364205D438
:10443000012A43EB030515F5001F12D8012841EBB3
:10444000010C1CF5001F0CD80ED14FEAD17C15F5DC
:10445000001F0CEB4C0C0CF1020C08BF4CEBD37C96
:1044600004E04FF0080C01E04FEAD37C0CEB4C0564
:1044700026FA05F606F00706B6F1040C06D20EEB96
:10448000860CBDE870404CF0010C6047DFE80CF092
:10449000090B02024FF000414FF00000A1F500218E
:1044A00070BD19461046012851EB010418BFD4F520
:1044B000001484BF002001F0004170BD53EA010CDC
:1044C00017D41CF5801F58BFBCF5801F00F1068073
:1044D0008B4218BF704708BF8242704707D713F559
:1044E000801F58BF11F5801F19D48B4270479B4223
:1044F00070471CF5801F08D5BCF5801FF7D5994281
:1045000018BF704708BF904270474FF4001C1CEB67
:10451000430F38BF1CEB410F01D2994270470FB4D3
:104520000CBC03BCFFF771BF4FF04070E1EE100A06
:1045300070470000000000000000000001020304BA
:1045400006070809A0860100400D0300801A060036
:1045500000350C0040420F0080841E0000093D0021
:1045600000127A000024F40000366E010048E801D1
:10457000006CDC020000000001020304706167654A
:10458000207061676532000061646420312C322C38
:104590003130370061646420312C332C3537000012
:1045A000636C7320424C41434B000000CC45000833
:1045B000000000203C000000E80100080846000858
:1045C0003C0000204C3900000402000800000000FC
:1045D000000000000000000000000000FFFFFF00DE
:1045E000A04500087C45000888450008944500085F
:1045F00000000000000000000100000010000000AA
:084600000000000000093D006C
:04000005080001AD41
:00000001FF
