:020000040800F2
:1000000000000520791900087D1600087F160008F9
:1000100081160008831600088516000800000000FD
:10002000000000000000000000000000871600082B
:1000300089160008000000008B1600088D160008C5
:10004000C9190008C9190008C9190008C919000808
:10005000C9190008C9190008C9190008C9190008F8
:10006000C9190008C9190008C9190008951600081F
:10007000C9190008C9190008C9190008C9190008D8
:10008000C9190008C9190008C9190008C9190008C8
:10009000C9190008C9190008C9190008C9190008B8
:1000A000C9190008C9190008C9190008C9190008A8
:1000B000C9190008C9190008C9190008C919000898
:1000C000C9190008C9190008C9190008C919000888
:1000D000C9190008C9190008C9190008C919000878
:1000E000C9190008C9190008C9190008A51600088F
:1000F000B5160008C5160008D5160008C91900086D
:10010000C9190008C9190008C9190008C919000847
:10011000C9190008C9190008C9190008C919000837
:10012000C9190008C9190008C9190008C919000827
:10013000C9190008C9190008C9190008C919000817
:10014000C9190008C9190008C9190008C919000807
:10015000C9190008C9190008C9190008C9190008F7
:10016000C9190008C9190008C9190008C9190008E7
:10017000C9190008C9190008C919000800000000C1
:10018000C9190008C9190008C9190008C9190008C7
:10019000C9190008C9190008C9190008C9190008B7
:0C01A000C9190008C9190008000000007F
:1001C00010B5054C237833B9044B13B10448AFF391
:1001D00000800123237010BDB8090020000000003A
:1001E00028A8000808B5034B1BB103490348AFF327
:1001F000008008BD00000000BC09002028A80008FD
:1002000081F0004102E000BF83F0004330B54FEAC7
:1002100041044FEA430594EA050F08BF90EA020F34
:100220001FBF54EA000C55EA020C7FEA645C7FEAC7
:10023000655C00F0E2804FEA5454D4EB5555B8BFEA
:100240006D420CDD2C4480EA020281EA030382EA5B
:10025000000083EA010180EA020281EA0303362DED
:1002600088BF30BD11F0004F4FEA01314FF4801CC0
:100270004CEA113102D0404261EB410113F0004FD2
:100280004FEA03334CEA133302D0524263EB430389
:1002900094EA050F00F0A780A4F10104D5F1200E27
:1002A0000DDB02FA0EFC22FA05F2801841F1000182
:1002B00003FA0EF2801843FA05F359410EE0A5F156
:1002C00020050EF1200E012A03FA0EFC28BF4CF087
:1002D000020C43FA05F3C01851EBE37101F000453D
:1002E00007D54FF0000EDCF1000C7EEB00006EEB4A
:1002F0000101B1F5801F1BD3B1F5001F0CD34908D4
:100300005FEA30004FEA3C0C04F101044FEA44522A
:1003100012F5800F80F09A80BCF1004F08BF5FEAB1
:10032000500C50F1000041EB045141EA050130BD91
:100330005FEA4C0C404141EB0101013C28BFB1F5A3
:10034000801FE9D291F0000F04BF01460020B1FAEE
:1003500081F308BF2033A3F10B03B3F120020CDAC1
:100360000C3208DD02F1140CC2F10C0201FA0CF09F
:1003700021FA02F10CE002F11402D8BFC2F1200C04
:1003800001FA02F120FA0CFCDCBF41EA0C019040BA
:10039000E41AA2BF01EB0451294330BD6FEA040403
:1003A0001F3C1CDA0C340EDC04F11404C4F12002EE
:1003B00020FA04F001FA02F340EA030021FA04F300
:1003C00045EA030130BDC4F10C04C4F1200220FA57
:1003D00002F001FA04F340EA0300294630BD21FA95
:1003E00004F0294630BD94F0000F83F4801306BF5B
:1003F00081F480110134013D4EE77FEA645C18BF4F
:100400007FEA655C29D094EA050F08BF90EA020FE5
:1004100005D054EA000C04BF1946104630BD91EADD
:10042000030F1EBF0021002030BD5FEA545C05D1E0
:100430004000494128BF41F0004130BD14F580041F
:100440003CBF01F5801130BD01F0004545F0FE4193
:1004500041F470014FF0000030BD7FEA645C1ABFC8
:10046000194610467FEA655C1CBF0B46024650EAFF
:10047000013406BF52EA033591EA030F41F400212B
:1004800030BD00BF90F0000F04BF0021704730B5B1
:100490004FF4806404F132044FF000054FF0000186
:1004A00050E700BF90F0000F04BF0021704730B547
:1004B0004FF4806404F1320410F0004548BF40421C
:1004C0004FF000013EE700BF42004FEAE2014FEA71
:1004D00031014FEA02701FBF12F07F4393F07F4F4C
:1004E00081F06051704732F07F4208BF704793F04F
:1004F0007F4F04BF41F40021704730B54FF4607462
:1005000001F0004521F000411CE700BF50EA010264
:1005100008BF704730B54FF000050AE050EA01020D
:1005200008BF704730B511F0004502D5404261EB7D
:1005300041014FF4806404F132045FEA915C3FF4BE
:10054000D8AE4FF003025FEADC0C18BF03325FEA5B
:10055000DC0C18BF033202EBDC02C2F1200300FA0C
:1005600003FC20FA02F001FA03FE40EA0E0021FA31
:1005700002F11444BDE600BF4FEA4102B2F1E0438C
:1005800024BFB3F5001CDCF1FE5C0DD901F0004C7A
:100590004FEAC0024CEA5070B2F1004F40EB8300CA
:1005A00008BF20F00100704711F0804F21D113F1F6
:1005B0003872BCBF01F00040704741F480114FEA2F
:1005C0005252C2F11802C2F1200C10FA0CF320FAB8
:1005D00002F018BF40F001004FEAC1234FEAD323D5
:1005E00003FA0CFC40EA0C0023FA02F34FEA43033F
:1005F000CCE77FEA625307D150EA01331EBF4FF0C8
:10060000FE4040F44000704701F0004040F0FE40E2
:1006100040F40000704700BF53B94AB9002908BF31
:1006200000281CBF4FF0FF314FF0FF3000F074B9CD
:10063000ADF1080C6DE904CE00F006F8DDF804E039
:10064000DDE9022304B070472DE9F047089E0D460E
:1006500004468846002B4DD18A42944668D9B2FAA6
:1006600082F252B101FA02F3C2F1200120FA01F143
:100670000CFA02FC41EA030894404FEA1C45210CA5
:10068000B8FBF5FE1FFA8CF705FB1E8341EA034316
:100690000EFB07F199420BD91CEB03030EF1FF305F
:1006A00080F01E81994240F21B81AEF1020E63443C
:1006B0005B1AA4B2B3FBF5F005FB103344EA034424
:1006C00000FB07F7A7420AD91CEB040400F1FF3333
:1006D00080F00881A74240F2058164440238E41B9F
:1006E00040EA0E4000211EB1D4400023C6E9004379
:1006F000BDE8F0878B4208D9002E00F0EE80002183
:10070000C6E900050846BDE8F087B3FA83F1002981
:100710004AD1AB4202D3824200F2F980841A65EBDF
:10072000030301209846002EE2D0C6E90048DFE727
:1007300002B9FFDEB2FA82F2002A40F09180A1EB0A
:100740000C054FEA1C471FFA8CFE0121B5FBF7F39D
:1007500007FB1350250C45EA00450EFB03F0A842A9
:1007600008D91CEB050503F1FF3802D2A84200F2BC
:10077000CB8043462D1AA4B2B5FBF7F007FB10550A
:1007800044EA05440EFB00FEA64508D91CEB040410
:1007900000F1FF3502D2A64500F2BB802846A4EB4B
:1007A0000E0440EA03409EE7C1F120078B4022FA85
:1007B00007FC4CEA030C20FA07F405FA01F31C438A
:1007C000FD404FEA1C4900FA01F3B5FBF9F8200C93
:1007D0001FFA8CFE09FB185540EA054508FB0EF090
:1007E000A84202FA01F20BD91CEB050508F1FF3A09
:1007F00080F08880A84240F28580A8F10208654414
:100800002D1AA4B2B5FBF9F009FB105544EA0545D1
:1008100000FB0EFEAE4508D91CEB050500F1FF34C8
:100820006CD2AE456AD90238654440EA0840A0FB64
:100830000294A5EB0E05A542C846A64656D353D052
:100840005EB1B3EB080265EB0E0505FA07F722FA75
:1008500001F3CD401F43C6E900750021BDE8F087D4
:10086000C2F1200320FA03F10CFA02FC25FA03F38B
:1008700095400D434FEA1C471FFA8CFEB3FBF7F17E
:1008800007FB11302B0C43EA004301FB0EF09842AA
:1008900004FA02F408D91CEB030301F1FF382FD24C
:1008A00098422DD9023963441B1AADB2B3FBF7F05D
:1008B00007FB103345EA034500FB0EF3AB4208D9B2
:1008C0001CEB050500F1FF3816D2AB4214D90238F3
:1008D0006544ED1A40EA014138E73146304607E702
:1008E0008646E5E61846FAE64B45A9D2B9EB02087A
:1008F00064EB0C0E0138A3E74046EAE7204694E794
:100900004146D1E7D0467BE7023B654432E70846E3
:1009100009E76444023842E7704700BF0000000066
:1009200001F0FF01102A2BDB10F0070F08D010F8A0
:10093000013B013A8B422DD010F0070F42B3F6D1A4
:10094000F0B441EA012141EA014122F007047FF0BD
:1009500000070023F0E80256083C85EA010586EA14
:10096000010685FA47F5A3FA87F586FA47F6A5FA50
:1009700087F68EB9EED1F0BC01F0FF0102F007025C
:1009800032B110F8013B013A83EA010313B1F8D107
:100990000020704701387047002D06BF35460338E8
:1009A000073815F0010F07D1013015F4807F02BF21
:1009B000013015F4C03F0130F0BC0138704700BF72
:1009C000844641EA000313F003036DD1403A41D35A
:1009D00051F8043B40F8043B51F8043B40F8043B19
:1009E00051F8043B40F8043B51F8043B40F8043B09
:1009F00051F8043B40F8043B51F8043B40F8043BF9
:100A000051F8043B40F8043B51F8043B40F8043BE8
:100A100051F8043B40F8043B51F8043B40F8043BD8
:100A200051F8043B40F8043B51F8043B40F8043BC8
:100A300051F8043B40F8043B51F8043B40F8043BB8
:100A400051F8043B40F8043B51F8043B40F8043BA8
:100A5000403ABDD2303211D351F8043B40F8043B48
:100A600051F8043B40F8043B51F8043B40F8043B88
:100A700051F8043B40F8043B103AEDD20C3205D358
:100A800051F8043B40F8043B043AF9D2043208D050
:100A9000D2071CBF11F8013B00F8013B01D30B88C2
:100AA00003806046704700BF082A13D38B078DD0A0
:100AB00010F003038AD0C3F10403D21ADB071CBF72
:100AC00011F8013B00F8013B80D331F8023B20F8DC
:100AD000023B7BE7043AD9D3013A11F8013B00F815
:100AE000013BF9D20B7803704B7843708B7883709D
:100AF0006046704700000000000000000000000099
:100B000090F800F06DE9024520F007016FF0000C4D
:100B100010F0070491F820F040F049804FF00004F5
:100B20006FF00700D1E9002391F840F000F10800D0
:100B300082FA4CF2A4FA8CF283FA4CF3A2FA8CF308
:100B40004BBBD1E9022382FA4CF200F10800A4FA6F
:100B50008CF283FA4CF3A2FA8CF3E3B9D1E90423C3
:100B600082FA4CF200F10800A4FA8CF283FA4CF3FA
:100B7000A2FA8CF37BB9D1E9062301F1200182FAB4
:100B80004CF200F10800A4FA8CF283FA4CF3A2FABA
:100B90008CF3002BC6D0002A04BF04301A4612BAC8
:100BA000B2FA82F2FDE8024500EBD2007047D1E9CB
:100BB000002304F00305C4F100004FEAC50514F05A
:100BC000040F91F840F00CFA05F562EA05021CBF2B
:100BD00063EA050362464FF00004A9E770B54FF0E1
:100BE000FF0C4CF4E06C1CEA11541DBF1CEA1355B9
:100BF00094EA0C0F95EA0C0F00F0DEF82C4481EA21
:100C0000030621EA4C5123EA4C5350EA013518BF40
:100C100052EA033541F4801143F4801338D0A0FB2D
:100C200002CE4FF00005E1FB02E506F00042E0FBDA
:100C300003E54FF00006E1FB03569CF0000F18BFE0
:100C40004EF0010EA4F1FF04B6F5007F64F5407488
:100C500004D25FEA4E0E6D4146EB060642EAC6211B
:100C600041EA55514FEAC52040EA5E504FEACE2E88
:100C7000B4F1FD0C88BFBCF5E06F1ED8BEF1004F8B
:100C800008BF5FEA500E50F1000041EB045170BD07
:100C900006F0004646EA010140EA020081EA03014B
:100CA000B4EB5C04C2BFD4EB0C0541EA045170BD47
:100CB00041F480114FF0000E013C00F3AB8014F1C1
:100CC000360FDEBF002001F0004170BDC4F100040A
:100CD000203C35DA0C341BDC04F11404C4F120058B
:100CE00000FA05F320FA04F001FA05F240EA0200E6
:100CF00001F0004221F0004110EBD37021FA04F61C
:100D000042EB06015EEA430E08BF20EAD37070BDD5
:100D1000C4F10C04C4F1200500FA04F320FA05F034
:100D200001FA04F240EA020001F0004110EBD37036
:100D300041F100015EEA430E08BF20EAD37070BDA6
:100D4000C4F1200500FA05F24EEA020E20FA04F37F
:100D500001FA05F243EA020321FA04F001F000412E
:100D600021FA04F220EA020000EBD3705EEA430E9F
:100D700008BF20EAD37070BD94F0000F0FD101F0CE
:100D80000046400041EB010111F4801F08BF013C07
:100D9000F7D041EA060195F0000F18BF704703F045
:100DA0000046520043EB030313F4801F08BF013DCC
:100DB000F7D043EA0603704794EA0C0F0CEA135588
:100DC00018BF95EA0C0F0CD050EA410618BF52EA42
:100DD0004306D1D181EA030101F000414FF0000048
:100DE00070BD50EA410606BF1046194652EA430656
:100DF00019D094EA0C0F02D150EA013613D195EACA
:100E00000C0F05D152EA03361CBF104619460AD111
:100E100081EA030101F0004141F0FE4141F470011B
:100E20004FF0000070BD41F0FE4141F4780170BD0B
:100E300070B54FF0FF0C4CF4E06C1CEA11541DBF70
:100E40001CEA135594EA0C0F95EA0C0F00F0A7F872
:100E5000A4EB050481EA030E52EA03354FEA01319F
:100E600000F088804FEA03334FF0805545EA1313B2
:100E700043EA12634FEA022245EA111545EA10657A
:100E80004FEA00260EF000419D4208BF964244F111
:100E9000FD0404F5407402D25B084FEA3202B61A30
:100EA00065EB03055B084FEA32024FF480104FF404
:100EB000002CB6EB020E75EB030E22BFB61A754678
:100EC00040EA0C005B084FEA3202B6EB020E75EB0B
:100ED000030E22BFB61A754640EA5C005B084FEA73
:100EE0003202B6EB020E75EB030E22BFB61A754640
:100EF00040EA9C005B084FEA3202B6EB020E75EB4B
:100F0000030E22BFB61A754640EADC0055EA060E0B
:100F100018D04FEA051545EA16754FEA06164FEA4E
:100F2000C30343EA52734FEAC2025FEA1C1CC0D1FA
:100F300011F4801F0BD141EA00014FF000004FF087
:100F4000004CB6E711F4801F04BF01430020B4F148
:100F5000FD0C88BFBCF5E06F3FF6AFAEB5EB030C00
:100F600004BFB6EB020C5FEA500C50F1000041EBFD
:100F7000045170BD0EF0004E4EEA113114EB5C04CA
:100F8000C2BFD4EB0C0541EA045170BD41F480119D
:100F90004FF0000E013C90E645EA060E8DE60CEAA5
:100FA000135594EA0C0F08BF95EA0C0F3FF43BAFC2
:100FB00094EA0C0F0AD150EA01347FF434AF95EA79
:100FC0000C0F7FF425AF104619462CE795EA0C0F5D
:100FD00006D152EA03353FF4FDAE1046194622E72A
:100FE00050EA410618BF52EA43067FF4C5AE50EA04
:100FF00041047FF40DAF52EA43057FF4EBAE12E7F4
:101000004FF0FF3C06E000BF4FF0010C02E000BFD4
:101010004FF0010C4DF804CD4FEA410C7FEA6C5CB7
:101020004FEA430C18BF7FEA6C5C1BD001B050EA5A
:10103000410C0CBF52EA430C91EA030F02BF90EA45
:10104000020F0020704710F1000F91EA030F58BF04
:10105000994208BF90422CBFD8176FEAE37040F066
:10106000010070474FEA410C7FEA6C5C02D150EA04
:10107000013C07D14FEA430C7FEA6C5CD6D152EABF
:10108000033CD3D05DF8040B704700BF8446104684
:1010900062468C461946634600E000BF01B5FFF783
:1010A000B7FF002848BF10F1000F01BD4DF808ED53
:1010B000FFF7F4FF0CBF012000205DF808FB00BF24
:1010C0004DF808EDFFF7EAFF34BF012000205DF87E
:1010D00008FB00BF4DF808EDFFF7E0FF94BF0120CB
:1010E00000205DF808FB00BF4DF808EDFFF7CEFFCC
:1010F00094BF012000205DF808FB00BF4DF808ED0B
:10110000FFF7C4FF34BF012000205DF808FB00BFDB
:101110004FEA410C7FEA6C5C02D150EA013C0AD1F3
:101120004FEA430C7FEA6C5C02D152EA033C02D1E5
:101130004FF0000070474FF0010070474FEA410246
:1011400012F5001215D211D56FF47873B3EB625219
:1011500012D94FEAC12343F0004343EA505311F040
:10116000004F23FA02F018BF404270474FF00000D2
:10117000704750EA013005D111F0004008BF6FF010
:10118000004070474FF00000704700BF00B58BB0C3
:101190000023079308930993019302930393049305
:1011A000059306932C482D4A026043608360C36018
:1011B0000122026104224261037643760322C26166
:1011C00080F820304FF4B86282624FF48062C262CD
:1011D00080F83030436380F8383000F055FC002848
:1011E0002BD10023079307A91B4801F0A3F938BBB3
:1011F0001B4B01930623029303937F230493042341
:1012000005930023069301A9134800F095FDD0B97A
:10121000144B01930C23029301A90F4800F08CFD9D
:10122000A0B9114B01931223029301A90A4800F0BF
:1012300083FD70B90BB05DF804FB00F013F9D0E743
:1012400000F010F9D4E700F00DF9E1E700F00AF939
:10125000E7E700F007F9EDE7D409002000000450AB
:101260000800900C4000201900002143F0B5ADB0FB
:10127000044600212791289129912A912B918C22B3
:1012800004A803F087FB22683C4B9A4201D02DB0A2
:10129000F0BD4FF4804304934FF080532393012318
:1012A00005930693102307930223089309930A9347
:1012B0004FF080730B9304A802F002FB002856D174
:1012C0002F4BDA6C42F40052DA64DA6C02F400520A
:1012D0000092009ADA6C42F00402DA64DA6C02F0EE
:1012E00004020192019ADA6C42F00102DA64DA6CCB
:1012F00002F001020292029ADA6C42F00202DA640F
:10130000DB6C03F002030393039B04232793032660
:1013100028960025299527A91A4801F051FB022794
:1013200027972896299527A94FF0904001F048FB70
:1013300027972896299527A9134801F041FB1348C0
:10134000134B036045608560C560802303614FF4E3
:10135000007343614FF4006383612023C36105621E
:1013600001F00CFA30B9094B23659C628FE700F05D
:1013700079F8A5E700F076F8F5E700BF0000045023
:101380000010024000080048000400483C0A002009
:101390000800024000B583B00A4B9A6C42F001028B
:1013A0009A649B6C03F001030193019B0022114698
:1013B0000B2001F06DF90B2001F0A2F903B05DF8EC
:1013C00004FB00BF0010024030B58BB00024059430
:1013D0000694079408940994204BDA6C42F00402B6
:1013E000DA64DA6C02F004020092009ADA6C42F0DD
:1013F0008002DA64DA6C02F080020192019ADA6CFF
:1014000042F00102DA64DA6C02F001020292029AFE
:10141000DA6C42F00202DA64DA6C02F00202039241
:10142000039ADA6C42F04002DA64DB6C03F04003AA
:101430000493049B01F014FC094D224680212846A8
:1014400001F0B8FB802305930123069307940894C9
:1014500005A9284601F0B4FA0BB030BD00100240D7
:101460000004004872B6FEE700B597B044220021A0
:1014700005A803F08FFA00230093019302930393CE
:1014800004934FF4007001F0A3FB20BB10230593DD
:1014900001220B9200230C9360230D9302230F93E0
:1014A000109211922822129213931493159305A867
:1014B00001F080FC88B90F230093032301930023DC
:1014C0000293039304930421684601F0B1FF30B9FD
:1014D00017B05DF804FBFFF7C5FFFFF7C3FFFFF789
:1014E000C1FF000000000000F0B589B000F096FADE
:1014F000FFF7BAFFFFF768FFFFF74CFF00F0C8F9EE
:10150000FFF744FE00F04EF9012000F0A9FA464929
:10151000464800F0C3FF464802F038FC012000F0C6
:101520009FFA01228021434801F044FB0A2000F089
:1015300097FA68E002EB42033F4951F823400598CF
:1015400020440590581C51F82040069820440690ED
:10155000023351F82310079B0B4407930132B2F575
:10156000806FE7DB0598FEF79DFF2DA3D3E90023ED
:10157000FFF734FB0022314BFFF730FB0022304BEA
:10158000FFF72CFBFEF7F8FF06462E4F3860069853
:10159000FEF788FF22A3D3E90023FFF71FFB0022F9
:1015A000264BFFF71BFB0022254BFFF717FBFEF72F
:1015B000E3FF044678600798FEF774FF18A3D3E9A9
:1015C0000023FFF70BFB00221C4BFFF707FB002259
:1015D0001B4BFFF703FBFEF7CFFF0546B860304615
:1015E000FEF772FF06460F462846FEF76DFFCDE96F
:1015F00002012046FEF768FFCDE9000132463B4676
:10160000114803F019FA00240594069407944FF446
:1016100040620949054800F06FFE22469FE700BF7F
:101620006666666666660A4000007F40D409002050
:10163000983A002000040048840A00200000303F4F
:101640000000503F843A002040A8000882B00A4BB6
:101650001A6E42F001021A661A6E02F0010200923E
:10166000009A9A6D42F080529A659B6D03F0805308
:101670000193019B02B0704700100240FEE7FEE7B5
:10168000FEE7FEE7FEE770477047704708B500F0D9
:10169000D5F908BD08B5024801F02FF908BD00BF13
:1016A0003C0A002008B5024802F0B7FB08BD00BFA5
:1016B000983A002008B5024802F0AFFB08BD00BF11
:1016C000983A002008B5024802F0A7FB08BD00BF09
:1016D000983A002008B5024802F09FFB08BD00BF01
:1016E000983A00200120704708B503F029F9162325
:1016F00003604FF0FF3008BD08B54FF0FF31FFF732
:10170000F3FFFEE770B50C461646002506E0AFF382
:101710000080214601F8010B01350C46B542F6DB8D
:10172000304670BD70B50C461646002504E014F82E
:10173000010B00F011F90135B542F8DB304670BD00
:101740004FF0FF3070474FF400534B60002070475C
:10175000012070470020704710B503460C4A0D4920
:101760000D48006840B10C4800680344521A934287
:1017700006D8094A136010BD0748084C0460F2E718
:1017800003F0DEF80C2303604FF0FF30F3E700BFF7
:101790000000052000040000943A0020B83B00201F
:1017A0007047000000B589B00023049305930693A9
:1017B00007930193029303931748184A02600A2281
:1017C0004260836041F28832C26003614361836199
:1017D00002F044FCB0B94FF48053049304A90E48BE
:1017E00002F078FC88B9202301934FF40013029390
:1017F0000023039301A9084802F0ECFC40B909B0AA
:101800005DF804FBFFF72EFEE5E7FFF72BFEEAE7A6
:10181000FFF728FEF3E700BF983A002000340140AC
:1018200002681A4B9A4200D0704700B583B003F5A6
:101830005C431A6E42F400521A661B6E03F40053A6
:101840000193019B002211462B2000F021FF2B2049
:1018500000F056FF002211462C2000F019FF2C202A
:1018600000F04EFF002211462D2000F011FF2D2028
:1018700000F046FF002211462E2000F009FF2E2026
:1018800000F03EFF03B05DF804FB00BF00340140F0
:1018900008B50B480B4B03604FF4E1334360002362
:1018A0008360C36003610C2242618361036243620F
:1018B00003F015F800B908BDFFF7D4FDFBE700BF42
:1018C000E43A00200080004010B5AAB00446002190
:1018D000259126912791289129918C2202A803F025
:1018E00059F82268194B9A4201D02AB010BD202322
:1018F000029302A801F0E4FF20BB154BDA6D42F021
:101900000102DA65DA6D02F001020092009ADA6CE7
:1019100042F04002DA64DB6C03F040030193019B68
:1019200001F09EF94FF4C073259302232693002300
:101930002793032328930823299325A9054801F019
:101940003FF8D2E7FFF78EFDD7E700BF00800040E9
:10195000001002400018004800B583B001904FF617
:10196000FF73012201A9034802F0F2FE019803B0BF
:101970005DF804FBE43A0020DFF834D0FFF710FFF5
:101980000C480D490D4A002302E0D458C4500433DA
:10199000C4188C42F9D30A4A0A4C002301E01360B0
:1019A0000432A242FBD302F0D1FFFFF79DFDFEE718
:1019B0000000052000000020B80900206CAC0008E1
:1019C000B8090020B83B0020FEE70000104B1B7850
:1019D0000BB90120704710B504464FF47A70B0FB84
:1019E000F3F30C4A1068B0FBF3F000F097FE68B90F
:1019F0000F2C01D901200AE0002221464FF0FF30D0
:101A000000F046FE044B1C60002000E0012010BDE9
:101A100004000020000000200800002010B5032072
:101A200000F024FE0F20FFF7D1FF10B10124204663
:101A300010BD0446FFF70AFEF9E70000034B1B78D0
:101A4000034A11680B441360704700BF0400002074
:101A50006C3B0020014B1868704700BF6C3B0020B6
:101A600038B50446FFF7F6FF0546B4F1FF3F02D054
:101A7000044B1B781C44FFF7EDFF401BA042FAD338
:101A800038BD00BF0400002030B583B000230193AF
:101A9000002800F0E7800446836D13B323689A683A
:101AA00012F0005F05D09A6822F0204222F03F0237
:101AB0009A602268936813F0805F1FD1936823F0C7
:101AC000104323F03F0343F080539360664B1B6841
:101AD0009B09664AA2FB03239B0901335B00019328
:101AE00009E0FFF7C3FB0023E36584F85430D5E732
:101AF000019B013B0193019B002BF9D12268936864
:101B000013F0805F40F08580A36D43F01003A36560
:101B1000E36D43F00103E3650120936813F00403D0
:101B200000D00123A16D11F0100F40F09480002B24
:101B300040F09180A36D23F4817343F00203A36509
:101B4000936813F0010F1BD1494B9A6812F0010200
:101B500000D00122474B9B6813F0010300D0012302
:101B60001343454A926812F0010200D00122134348
:101B700006D1636841498A6822F47C1213438B6062
:101B8000627E636B43EA4233E2681343A268134305
:101B900094F8202043EA0243012A3CD0A26A22B1F1
:101BA00002F47072E16A0A4313432168CD68344A33
:101BB0002A401343CB602268936813F0080300D0D7
:101BC0000123BBB9E36C217E43EA813394F83010E2
:101BD00043EA4101D36823F4804323F006030B4317
:101BE000D36094F83830012B1AD02268136923F09F
:101BF000010313612369012B24D02268136B23F0A6
:101C00000F031363A36D23F0030343F00103A365E4
:101C100026E0002081E7626A013A43EA4243BDE7D9
:101C200021680B6923F4FF6323F00403E26B256C46
:101C30002A43656C2A43A56C2A43134343F00103EE
:101C40000B61D7E721680B6B23F00F03E269013AC0
:101C500013430B63D6E7A36D43F01003A365012084
:101C600003B030BD0120FBE700000020632D3E05DE
:101C7000000004500001045000020450000304500E
:101C800007C0F0FF7047704708B5806AFFF7FBFF99
:101C900008BD704708B50346806A826D12F0500F88
:101CA00030D1836D43F40073836503681A6812F0C2
:101CB000080F14D0DA6812F4406F20D1DB6813F4F7
:101CC000005F1CD1836D23F480738365836D13F4EF
:101CD000805F14D1836D43F0010383650FE0DB68FF
:101CE00013F0020F0BD1836D23F480738365836D32
:101CF00013F4805F03D1836D43F001038365FFF725
:101D0000C1FF08BD826D12F0100F04D1026D526B3D
:101D100018469047F5E7FFF7BCFFF2E708B5806A81
:101D2000836D43F040038365C36D43F00403C365D3
:101D3000FFF7AFFF08BD0000F0B583B000220192AD
:101D400090F85420012A00F05F820346012280F8B7
:101D500054200068826812F0040F09D09A6D42F096
:101D600020029A650120002283F8542003B0F0BDC0
:101D70004A68052A08D8023A032A00F29B80DFE865
:101D800002F0029B94960C2200F1300E100A8000A3
:101D900000F00C005EF8004002F01F024FF01F0C34
:101DA0000CFA02FC24EA0C0C0C68C4F3846404FAF8
:101DB00002F24CEA02024EF800201C68A26812F0FF
:101DC000040200D00122A06810F0080000D0012019
:101DD000002A35D1002833D18868B0F1004F6DD08A
:101DE0000E681434720E920002F00402A558C6F375
:101DF000045C072606FA0CF625EA060500FA0CF044
:101E00002843A0501868426922F0004242614C69A0
:101E10001868C268C2F3C102520004FA02F20D69E6
:101E2000042D60D00E68603050F82570AB4C3C40FB
:101E300006F0F8463243144344F0004440F825408D
:101E40001868826812F0010F18D10A68CD68D0F8BE
:101E5000B040C2F3120C24EA0C0405F0180CA04D9B
:101E600025FA0CFC02EA0C02C2F312022243C0F86B
:101E7000B020C8689B4A904200F09D800A689A4949
:101E80000A4200F0BD819949896801F0E0749848E0
:101E9000824200F05F819748824200F08681964836
:101EA000824200F09A8100205DE718226CE74FF42F
:101EB000807269E7062267E7122265E70868143432
:101EC000420E920002F00402A558C0F30450072607
:101ED00006FA00F025EA0000A0501868426942F0B6
:101EE0000042426193E7026E046EC4F384640A68A0
:101EF000C2F3120585BBC2F38462944234D01C68DD
:101F0000626E606EC0F384600A68C2F3120585BB1E
:101F1000C2F38462904234D01C68A26EA06EC0F3FB
:101F200084600A68C2F3120585BBC2F384629042E2
:101F300034D01C68E26EE06EC0F384600A68C2F3BD
:101F4000120585BBC2F3846290427FF479AFE26EE2
:101F500022F00042E26673E792FAA2F212B1B2FAFC
:101F600082F2CAE72022C8E7026E22F0004202662F
:101F7000C5E792FAA2F212B1B2FA82F2CAE72022BF
:101F8000C8E7626E22F000426266C5E792FAA2F2EA
:101F900012B1B2FA82F2CAE72022C8E7A26E22F09A
:101FA0000042A266C5E792FAA2F212B1B2FA82F238
:101FB000CAE72022C8E71C680A68C2F31205002D90
:101FC00038D1900E013000F01F0009288CBF00208E
:101FD0000120002866D0002D3BD1900E01308006F4
:101FE00000F0F840002D40D1960E013606F01F0794
:101FF0000126BE403043002D46D1920E013202F040
:102000001F0202EB420212050243886804F1140623
:10201000550EAD0005F004057459C2F304524FF09B
:10202000070C0CFA02FC24EA0C0C90404CEA00006D
:10203000705123E792FAA2F048B1B0FA80F0013073
:1020400000F01F0009288CBF00200120C1E72020DC
:10205000F5E792FAA2F030B1B0FA80F001308006D4
:1020600000F0F840BEE72020F8E792FAA2F64EB161
:10207000B6FA86F6013606F01F064FF0010C0CFA90
:1020800006F6B7E72026F5E792FAA2F242B1B2FAD5
:1020900082F2013202F01F0202EB42021205B3E7A4
:1020A0002022F6E755BB900E0130800600F0F84084
:1020B00085BB960E013606F01F070126BE40304351
:1020C000BDBB920E013202F01F0202EB42021E3A29
:1020D000120542F00072024397E700BF00F0FF03D1
:1020E000FFFF070000007F4000000880000304504D
:1020F000000052C7000084CB0100008092FAA2F0D9
:1021000030B1B0FA80F00130800600F0F840CFE73F
:102110002020F8E792FAA2F64EB1B6FA86F601361A
:1021200006F01F064FF0010C0CFA06F6C7E7202652
:10213000F5E792FAA2F25AB1B2FA82F2013202F053
:102140001F0202EB42021E3A120542F00072C2E781
:102150002022F3E711F4000F7FF49DAE1A682B499B
:102160008A4205D001F500718A4201D00020FAE5CB
:1021700044F4000426498A6822F0E07214438C601B
:10218000244A126892092449A1FB021292090132E1
:1021900002EB42029200019202E0019A013A01929E
:1021A000019A002AF9D10020DDE511F0807F7FF44B
:1021B00076AE1A6815498A4205D001F500718A4247
:1021C00001D00020CFE544F080721148816821F0F1
:1021D000E0710A4382600020C5E511F4800F11D13F
:1021E00019680A4A914201D00020BCE544F48002FB
:1021F0000748816821F0E0710A4382600020B2E55F
:102200000020B0E50020AEE50220AFE5000004505C
:102210000003045000000020632D3E0530B583B05C
:102220000023019303689A6812F0010F58D1044605
:1022300099682D4A114219D19A6822F0004222F081
:102240003F0242F001029A60284B9B6813F4000F92
:102250001CD0274B1B689B09264AA2FB03239B0922
:10226000013303EB43039B0001930CE0836D43F0C8
:1022700010038365C36D43F00103C365012030E0A3
:10228000019B013B0193019B002BF9D1FFF7E2FB7E
:10229000054623681A6812F0010F1FD19A6812F0E0
:1022A000010F07D19A6822F0004222F03F0242F06B
:1022B00001029A60FFF7CEFB431B022BE9D923688A
:1022C0001B6813F0010FE4D1A36D43F01003A36565
:1022D000E36D43F00103E365012002E0002000E02C
:1022E000002003B030BD00BF3F0000800003045059
:1022F00000000020632D3E052DE9F04104463C4BD3
:102300009E680068856815F0040F6CD10F469046F2
:1023100006F01F0694F85430012B67D0012384F88F
:102320005430344B984209D046B1052E06D0092EC0
:1023300004D0002384F85430012055E02046FFF7F4
:102340006DFF00284BD1A36D23F4706323F00103CC
:1023500043F48073A3652368274A934239D01A4611
:10236000934200D01EB9A36D23F48013A365A36D1F
:1023700013F4805F30D0E36D23F00603E365236D33
:102380001E4ADA62236D1E4A1A63236D1D4A5A6380
:1023900023681C221A60002384F854302268536892
:1023A00043F0100353602268D36843F00103D36005
:1023B000216843463A464031206D00F063FA2268B6
:1023C000936823F0004323F03F0343F0040393603A
:1023D0000AE0A2F58072C3E70023E365CFE700239C
:1023E00084F8543000E00220BDE8F0810220FBE7D1
:1023F000000304500002045000010450951C000822
:10240000891C00081D1D000838B504460268936841
:1024100013F0020300D00123916811F0010F39D0AD
:10242000002B39D1936803F00D03012B09D0A36D64
:1024300043F01003A365E36D43F00103E36501205E
:1024400029E0936823F0004323F03F0343F00203A5
:102450009360236803221A60FFF7FCFA054623689D
:102460009B6813F0010F13D0FFF7F4FA401B02280A
:10247000F5D923689B6813F0010FF0D0A36D43F0EA
:102480001003A365E36D43F00103E365012002E05F
:10249000002000E0002038BD0020FCE730B583B00C
:1024A0000023019390F85430012B41D004460D468F
:1024B000012380F85430FFF7A7FF80BBA36D23F4FE
:1024C000885323F0020343F00203A3652268936854
:1024D00023F0404323F03F0305F080452B4343F0B6
:1024E0000043936023689B68002B06DBA36D23F0F9
:1024F000030343F00103A36515E0019B013301933E
:10250000019BB3F5912FEDD3A36D23F0120343F09C
:102510001003A365002384F85430012006E0A36D66
:1025200043F01003A365002384F8543003B030BD9A
:102530000220FBE790F85420012A00F08C8010B4B0
:102540009BB00346012280F8542000221692179275
:102550000068424A90423FD000220092009A002A2E
:102560003ED0926812F0040200D00122806810F080
:10257000040F61D1002A5FD10A68002A39D0384C93
:10258000A26822F46042486893F830C040EA4C30B8
:102590000243A260314A906810F0010000D001208F
:1025A000304A926812F0010200D0012202432E4804
:1025B000806810F0010000D00120024347D1284C70
:1025C000A26822F4716222F00F0208688968014350
:1025D0000A43A260002034E002F580720092BDE759
:1025E0009A6D42F020029A65002283F8542001205F
:1025F0002AE01B498A6822F460428A60174A91687F
:1026000011F0010100D00121164A926812F0010276
:1026100000D001220A431449896811F0010100D059
:1026200001210A4315D10E498A6822F4716222F011
:102630000F028A60002004E09A6D42F020029A6541
:102640000120002283F854201BB010BC70470020EA
:10265000F7E70020F5E70220704700BF00000450B4
:10266000000304500001045000020450074AD368DC
:1026700023F4E0631B041B0C000200F4E06003433E
:1026800043F0BF6343F40033D360704700ED00E0D4
:1026900000B5194BDB68C3F30223C3F1070CBCF18F
:1026A000040F28BF4FF0040C03F1040EBEF1060F17
:1026B00018D9033B4FF0FF3E0EFA0CFC21EA0C0147
:1026C00099400EFA03F322EA0303194300280BDBB7
:1026D0000901C9B200F1604000F5614080F80013C3
:1026E0005DF804FB0023E5E700F00F000901C9B223
:1026F000024B1954F4E700BF00ED00E014ED00E0D8
:10270000002807DB00F01F02400901239340024A22
:1027100042F82030704700BF00E100E00138B0F11E
:10272000807F0BD24FF0E0235861054AF02182F8F8
:1027300023100020986107221A617047012070471A
:1027400000ED00E010B4446C04F01C0C012404FA09
:102750000CF4D0F840C0CCF804400468636083688F
:10276000102B05D0036899600368DA6010BC7047CD
:1027700003689A600368D960F8E70000002872D007
:1027800010B403460068394A904249D8384A024496
:102790003849A1FB0212120992005A64364A1A649F
:1027A000022283F82520016821F4FF4121F0700105
:1027B0009A68DC6822431C6922435C6922439C6955
:1027C0002243DC6922431C6A22430A4302609A685E
:1027D000B2F5804F1BD0196C274A91422BD0264A64
:1027E000D2F8A814586C00F01C0C0F2000FA0CF062
:1027F00021EA0001C2F8A814D2F8A81458685C6C49
:1028000004F01C0C00FA0CF00143C2F8A8140020DC
:10281000D863012283F8252083F8240010BC704778
:10282000164A02441349A1FB0212120992005A648B
:10283000134A1A64B4E7D2F8A810586C00F01C0CC4
:102840000F2000FA0CF021EA0001C2F8A810D2F81B
:10285000A81058685C6C04F01C0C00FA0CF00143E2
:10286000C2F8A810D3E70120704700BF0704024058
:10287000F8FFFDBFCDCCCCCC00000240F8FBFDBF83
:102880000004024038B5044690F82400012832D0F4
:10289000012084F8240094F82500C0B2012804D057
:1028A000002384F82430022038BD022084F825005B
:1028B0000020E0632568286820F001002860204699
:1028C000FFF740FF236B5BB12268136843F00E03F0
:1028D00013602268136843F0010313600020E3E7EC
:1028E0002268136823F0040313602268136843F01E
:1028F0000A031360EDE70220D6E738B5036C1968C8
:1029000004682568436C03F01C0304229A400A42C1
:1029100015D015F0040F12D0236813F0200F03D147
:10292000236823F004032360436C03F01C02016C52
:10293000042393404B60036B03B1984738BD0222D8
:102940009A400A421CD015F0020F19D0236813F0E8
:10295000200F06D1236823F00A032360012380F8A7
:102960002530436C03F01C02016C022393404B6042
:10297000002380F82430C36A002BDFD09847DDE7BE
:10298000082202FA03F30B42D8D015F0080FD5D075
:10299000236823F00E032360436C03F01C03016CD7
:1029A000012202FA03F34B60C26380F82520002362
:1029B00080F82430436B002BC0D09847BEE700005E
:1029C00070B582B0002365E085685E000324B440E2
:1029D00025EA0405CC68B4402C438460446824EAAA
:1029E0000C0C4C68C4F300149C4044EA0C04446092
:1029F00062E0DD08083550F8256003F007044FEA6F
:102A0000840C0F2404FA0CF426EA040E0C6904FA70
:102A10000CF444EA0E0440F8254064E0072400E08A
:102A2000002404FA0EF42C430CF1020C5D4D45F821
:102A30002C405D4CA568D44325EA0206D1F804C0B9
:102A40001CF4801F01D042EA0506574DAE60ED68C8
:102A500004EA0506D1F804C01CF4001F01D042EAC4
:102A60000506514DEE606D6804EA0506D1F804C014
:102A70001CF4003F01D042EA05064B4D6E602D6804
:102A80002C404E6816F4803F01D042EA0504464AC5
:102A9000146001330A6832FA03F400F081804FF0C9
:102AA000010C0CFA03FC1CEA0202F2D04C6804F0A0
:102AB0000304013C012C87D94C6804F00304032C67
:102AC0000CD0C4685D004FF0030C0CFA05FC24EA3E
:102AD0000C0C8C68AC4044EA0C04C4604C6804F0F4
:102AE0000304022C85D004684FEA430E4FF0030C18
:102AF0000CFA0EFC24EA0C0C4C6804F0030404FAF3
:102B00000EF444EA0C0404604C6814F4403FC0D056
:102B1000264C256E45F001052566246E04F001045F
:102B20000194019C4FEA930C0CF102051D4C54F8E2
:102B3000255003F003044FEA840E0F2404FA0EF428
:102B400025EA0405B0F1904F3FF46AAF184CA0425B
:102B50001AD004F58064A04218D004F58064A04225
:102B600016D004F58064A04214D004F58064A0421D
:102B700012D004F58064A04210D004F58064A04215
:102B80003FF44CAF08244CE701244AE7022448E70D
:102B9000032446E7042444E7052442E7062440E7EB
:102BA00002B070BD0000014000040140001002406E
:102BB000000400480AB181617047816270470000DB
:102BC000024B186800F4C060704700BF00700040FE
:102BD000B0F5007F0FD01F4B1B6803F4C063B3F543
:102BE000806F34D01B4A136823F4C06343F48063BE
:102BF000136000207047174B1B6803F4C063B3F5E4
:102C0000007F20D0134A136823F4C06343F4007399
:102C10001360114B1B68322202FB03F30F4AA2FB25
:102C200003239B0C013300E0013B0A4A526912F472
:102C3000806F01D0002BF7D1064B5B6913F4806FD6
:102C400003D1002070470020704703207047002008
:102C5000704700BF007000400000002083DE1B436F
:102C6000024A536843F40073536070470070004099
:102C700030B583B00446204B9B6D13F0805F0BD0C2
:102C8000FFF79EFFB0F5007F17D0802C1FD82DD006
:102C9000702C2DD000211BE0174DAB6D43F08053FD
:102CA000AB65AB6D03F080530193019BFFF788FF89
:102CB000AB6D23F08053AB65E4E7802C03D9A02CE7
:102CC00003D9022104E0002102E0012100E00321F8
:102CD0000A4A136823F007030B431360136803F0D9
:102CE00007038B4206D1002003B030BD0221EFE77D
:102CF0000121EDE70120F7E700100240002002402B
:102D0000284A9368D26802F0030213F00C030AD039
:102D10000C2B06D0042B1FD0082B20D000200246FD
:102D200010E0012AF6D11F4A126812F0080F0CD1E8
:102D30001C4AD2F89420C2F303221B4951F82220E6
:102D400043B100200C2B0DD07047164A1268C2F315
:102D50000312F2E71046F5E714480022F2E71448A0
:102D60000022EFE70F4BDB6803F00303022B16D0C2
:102D7000032B00D10E4A0B49C868C0F30210431C54
:102D8000C868C0F3062002FB00F0B0FBF3F0CB688C
:102D9000C3F3416301335B00B0FBF3F0D4E7034AB4
:102DA000E9E700BF0010024070A800080024F4000A
:102DB00000127A00002800F02283F0B583B00446A8
:102DC000964B9D6805F00C05DE6806F00306036867
:102DD00013F0100F5AD0E5B10C2D18D0A369002BB9
:102DE00000F0BB808D4A136843F001031360FEF7C7
:102DF00031FE0746894B1B6813F0020F40F09A80A2
:102E0000FEF728FEC01B0228F4D9032002E3012E9E
:102E1000E4D1824B1B6813F0020F03D0A369002B8F
:102E200000F0EF82206A7D4B1B6813F0080F5BD027
:102E30007A4B1B6803F0F00398425CD8774B1A6812
:102E400042F008021A601A6822F0F002216A0A436E
:102E50001A605A6822F47F42E16942EA01225A600C
:102E6000002D60D0FFF74CFF6C4B9B68C3F303133E
:102E70006B4AD35C03F01F03D8406A4B18606A4B5F
:102E80001868FEF7A3FD002840F0C482236813F001
:102E9000010F00F08180082D75D00C2D71D0636872
:102EA000B3F5803F00F09780B3F5A02F00F0998034
:102EB0005A4B1A6822F480321A601A6822F480226F
:102EC0001A606368002B00F09980FEF7C3FD074687
:102ED000524B1B6813F4003F5ED1FEF7BBFDC01BD5
:102EE0006428F5D9032095E24C4BD3F894301B09A4
:102EF00003F0F003A0E7FFF7BBFE002840F0838259
:102F0000464B1A6842F008021A601A6822F0F00272
:102F1000216A0A431A605A6822F47F42E16942EA50
:102F200001225A609EE7206AFFF7A2FE002899D08E
:102F300001206FE2394B1A6842F008021A601A68E1
:102F400022F0F002216A0A431A605A6822F47F4292
:102F5000E16942EA01225A6098E7304A136823F097
:102F600001031360FEF776FD07462C4B1B6813F038
:102F7000020F8BD0FEF76EFDC01B0228F5D903208F
:102F800048E2032E8BD1254B1B6813F4003F03D07E
:102F90006368002B00F03982236813F0020F58D0C9
:102FA000042D45D00C2D41D0E368002B77D01B4A6F
:102FB000136843F480731360FEF74CFD0646174B0D
:102FC0001B6813F4806F61D1FEF744FD801B02285B
:102FD000F5D903201EE2114A136843F480331360CD
:102FE0006FE703F18043A3F53C331A6842F4802273
:102FF0001A601A6842F480321A6062E7FEF72AFD0E
:103000000746064B1B6813F4003FC5D0FEF722FDB0
:10301000C01B6428F5D90320FCE100BF001002406A
:1030200058A800080000002008000020022EBBD194
:10303000A74B1B6813F4806F03D0E368002B00F0EC
:10304000E681A34A536823F0FE43216943EA016302
:103050005360236813F0080F4CD063699BB39C4AFC
:10306000D2F8943043F00103C2F89430FEF7F2FC3A
:103070000646974BD3F8943013F0020F3AD1FEF77F
:10308000E9FC801B0228F4D90320C3E1904A53686D
:1030900023F0FE43216943EA01635360D9E78C4A78
:1030A000136823F480731360FEF7D4FC0646884B44
:1030B0001B6813F4806FCCD0FEF7CCFC801B022879
:1030C000F5D90320A6E1824AD2F8943023F0010317
:1030D000C2F89430FEF7BEFC06467D4BD3F8943020
:1030E00013F0020F06D0FEF7B5FC801B0228F4D9BE
:1030F00003208FE1236813F0040F7AD0744B9B6D8B
:1031000013F0805F36D1724B9A6D42F080529A650F
:103110009B6D03F080530193019B01266D4B1B684F
:1031200013F4807F28D0A368012B39D0052B3FD022
:10313000674BD3F8902022F00102C3F89020D3F817
:10314000902022F00402C3F89020A368002B3DD009
:10315000FEF780FC07465E4BD3F8903013F0020F69
:1031600046D1FEF777FCC01B41F288339842F2D972
:1031700003204FE10026D1E7564A136843F48073D9
:103180001360FEF767FC0746524B1B6813F4807F01
:10319000C9D1FEF75FFCC01B0228F5D9032039E135
:1031A0004B4AD2F8903043F00103C2F89030CCE79C
:1031B000474BD3F8902042F00402C3F89020D3F894
:1031C000902042F00102C3F89020BEE7FEF742FCD7
:1031D00007463F4BD3F8903013F0020F08D0FEF7AC
:1031E00039FCC01B41F288339842F2D9032011E127
:1031F000E6B9236813F0200F35D0636AE3B1344A8F
:10320000D2F8983043F00103C2F89830FEF722FC60
:1032100006462F4BD3F8983013F0020F23D1FEF758
:1032200019FC801B0228F4D90320F3E0284A936D8F
:1032300023F080539365DCE7254AD2F8983023F0D9
:103240000103C2F89830FEF705FC0646204BD3F880
:10325000983013F0020F06D0FEF7FCFB801B02280B
:10326000F4D90320D6E0A36A002B00F0D280022B11
:1032700017D00C2D00F0D480154A136823F080730A
:103280001360FEF7E7FB0446114B1B6813F0007F49
:1032900000F0AE80FEF7DEFB001B0228F4D903200D
:1032A000B8E00B4BDB6803F00301E26A914213D0F4
:1032B0000C2D00F0B180064B1B6813F0806F40F0BE
:1032C000AD80034B1B6813F0805F2FD00120A1E07D
:1032D000001002400070004003F07002216B0139C1
:1032E000B2EB011FE4D103F4FE42616BB2EB012F9C
:1032F000DED103F07842A16BB2EBC16FD8D103F4F9
:10330000C001E26B5208013AB1EB425FD0D103F049
:10331000C063226C5208013AB3EB426FC8D1414BF3
:103320001B6813F0007F49D0002073E03D4A13680A
:1033300023F080731360FEF78DFB0546394B1B6845
:1033400013F0007F06D0FEF785FB401B0228F5D95D
:1033500003205FE0334AD36833491940E36A206BA6
:10336000013843EA0013606B43EA0023E06B400836
:10337000013843EA4053206C4008013843EA406377
:10338000A06B43EAC0630B43D360136843F08073C0
:103390001360D36843F08073D360FEF75BFB044691
:1033A000204B1B6813F0007F06D1FEF753FB001B78
:1033B0000228F5D903202DE000202BE0194B1A68D4
:1033C00042F080721A60DA6842F08072DA60FEF7CA
:1033D00041FB0446134B1B6813F0007F06D1FEF738
:1033E00039FB031B022BF5D9032013E0002011E069
:1033F0000C4AD1680D4B0B40D36000200AE001203D
:103400007047012006E0012004E0012002E00120D5
:1034100000E0002003B0F0BD0120FBE70120F9E748
:103420000120F7E7001002408C809D01FCFFEEFEBA
:10343000002800F0AF8070B50D460446594B1B685C
:1034400003F007038B420BD2564A136823F007039D
:103450000B431360136803F007038B4240F09C801A
:10346000236813F0020F0CD0A2684F4B9B6803F047
:10347000F0039A4205D94C498B6823F0F0031A43B4
:103480008A60236813F0010F39D06368032B09D0D9
:10349000022B26D063BB444A126812F0020F06D1F9
:1034A000012076E0404A126812F0007F76D03E4953
:1034B0008A6822F0030213438B60FEF7CBFA0646BC
:1034C000394B9B6803F00C036268B3EB820F16D094
:1034D000FEF7C0FA801B41F288339842F0D90320EE
:1034E00057E0314A126812F4003FE0D1012050E069
:1034F0002D4A126812F4806FD9D1012049E0236867
:1035000013F0020F0CD0A268274B9B6803F0F00366
:103510009A4205D224498B6823F0F0031A438A604B
:10352000204B1B6803F00703AB420AD91D4A1368FE
:1035300023F007032B431360136803F00703AB4228
:103540002ED1236813F0040F06D0174A936823F492
:10355000E063E1680B439360236813F0080F07D022
:10356000114A936823F46053216943EAC1039360CD
:10357000FFF7C6FB0C4B9B68C3F303130B4AD35CEA
:1035800003F01F03D8400A4B18600A4B1868FEF777
:103590001DFA70BD012070470120FAE70120F8E70D
:1035A0000120F6E7002002400010024058A8000861
:1035B0000000002008000020014B1868704700BF81
:1035C0000000002008B5FFF7F7FF054B9B68C3F329
:1035D0000223044AD35C03F01F03D84008BD00BF98
:1035E0000010024068A8000808B5FFF7E5FF054B8A
:1035F0009B68C3F3C223044AD35C03F01F03D84083
:1036000008BD00BF0010024068A80008F8B50446D5
:103610000F46584BDB6813F0030F18D0554BDB688F
:1036200003F003030268934202D001252846F8BD47
:10363000002A00F09D804F4BDB68C3F30213013377
:103640004268934201D00125F0E7002509E00368B4
:10365000022B56D0032B5BD0012B41D00125002D2E
:10366000E4D1444A136823F080631360FEF7F2F953
:103670000646404B1B6813F0006F05D0FEF7EAF9D1
:10368000831B022BF5D90325002DCFD1002F4DD15F
:1036900038490B6923F0784323F4FE43A068E268BD
:1036A000D20642EA002213430B61324A136843F008
:1036B00080631360FEF7CEF906462E4B1B6813F0AD
:1036C000006F05D1FEF7C6F9831B022BF5D9032540
:1036D000002DABD1274A1369A1690B431361A5E7FC
:1036E000244A126812F0020F1ED02248C26822F04B
:1036F00073026168013943EA01131343C360002573
:10370000ADE71C4A126812F4806FEED10125A6E7DE
:10371000184A126812F4003FE7D1164A126812F4F0
:10372000802FE2D101259AE7012598E7012F0FD0DC
:103730001048026922F0C06222F4FE42A168636967
:103740005B08013B5B0643EA012313430361ACE7DB
:103750000848026922F4C00222F4FE42A1682369EB
:103760005B08013B5B0543EA0123134303619CE7CC
:1037700001255BE700100240F8B504460F464F4BA9
:10378000DB6813F0030F18D04C4BDB6803F0030326
:103790000268934202D001252846F8BD002A00F0B5
:1037A0008B80464BDB68C3F30213013342689342BC
:1037B00001D00125F0E7002509E00368022B56D06F
:1037C000032B5BD0012B41D00125002DE4D13B4AD6
:1037D000136823F080531360FEF73CF90646374B1D
:1037E0001B6813F0005F05D0FEF734F9831B022B32
:1037F000F5D90325002DCFD1002F4DD12F494B698D
:1038000023F0784323F4FE43A068E268D20642EA3C
:10381000002213434B61294A136843F0805313601D
:10382000FEF718F90646254B1B6813F0005F05D11B
:10383000FEF710F9831B022BF5D90325002DABD120
:103840001E4A536961690B435361A5E71B4A12681D
:1038500012F0020F1ED01948C26822F0730261688C
:10386000013943EA01131343C3600025ADE7134A4E
:10387000126812F4806FEED10125A6E70F4A126894
:1038800012F4003FE7D10D4A126812F4802FE2D102
:1038900001259AE7012598E70848426922F0C062AD
:1038A00022F4FE42A16823695B08013B5B0643EA00
:1038B000012313434361AEE701256DE70010024089
:1038C0002DE9F04182B00446036813F4006F33D051
:1038D000836EB3F5000F1FD00CD823B3B3F5800F60
:1038E00005D100212030FFF747FF064620E00127E1
:1038F0003E4623E0B3F5400F0BD10026604AD2F8D4
:10390000883023F44003A16E0B43C2F888300027AF
:1039100014E001273E4611E0594AD36843F480334E
:10392000D3600026EAE700210430FFF76FFE064669
:10393000002EE3D0374601E000273E46236813F40B
:10394000805F30D0E36EB3F1007F1FD00DD81BB382
:10395000B3F1807F06D1002104F12000FFF70CFFB6
:10396000064605E001273E461DE0B3F1407F0AD13F
:10397000C6B9434AD2F8883023F04073E16E0B4356
:10398000C2F888300FE001273E460CE03C4AD3687D
:1039900043F48033D360EBE70021201DFFF736FEB0
:1039A0000646E5E73746236813F4003F71D0344BF1
:1039B0009B6D13F0805F4ED1314B9A6D42F0805277
:1039C0009A659B6D03F080530193019B4FF00108B2
:1039D0002C4A136843F480731360FEF73BF80546E6
:1039E000284B1B6813F4807F05D1FEF733F8401B8A
:1039F0000228F5D90326002E46D1214BD3F890306A
:103A000013F4407316D0D4F888209A4212D01C4A7E
:103A1000D2F8903023F44073D2F8901041F4803102
:103A2000C2F89010D2F8901021F48031C2F89010B2
:103A3000C2F8903013F0010F10D1002E40F0358104
:103A40000F4AD2F8903023F44073D4F888100B4317
:103A5000C2F8903019E04FF00008B9E7FDF7FAFF1F
:103A60000546074BD3F8903013F0020FE5D1FDF770
:103A7000F1FF401B41F288339842F2D90326DCE77C
:103A800000100240007000403746B8F1000F40F0CF
:103A90000E81236813F0010F08D0A44AD2F88830B1
:103AA00023F00303A16B0B43C2F88830236813F0A3
:103AB000020F08D09D4AD2F8883023F00C03E16B46
:103AC0000B43C2F88830236813F0040F08D0974ADC
:103AD000D2F8883023F03003216C0B43C2F88830D1
:103AE000236813F0080F08D0904AD2F8883023F0EA
:103AF000C003616C0B43C2F88830236813F0100FC9
:103B000008D08A4AD2F8883023F44073A16C0B4362
:103B1000C2F88830236813F0200F08D0834AD2F807
:103B2000883023F44063E16C0B43C2F8883023688B
:103B300013F4007F08D07D4AD2F8883023F4402364
:103B4000216E0B43C2F88830236813F4806F08D0CD
:103B5000764AD2F8883023F44013616E0B43C2F8E2
:103B60008830236813F0400F08D0704AD2F88830AC
:103B700023F44053216D0B43C2F88830236813F0BF
:103B8000800F08D0694AD2F8883023F44043616D31
:103B90000B43C2F88830236813F4807F08D0634A4F
:103BA000D2F8883023F44033A16D0B43C2F888303B
:103BB000236813F4801F08D05C4AD2F89C3023F0AD
:103BC0000303E16D0B43C2F89C30236813F4005FDC
:103BD0000FD0564AD2F8883023F04063216F0B4350
:103BE000C2F88830236FB3F1006F66D0B3F1806FF5
:103BF00068D0236813F4002F0FD04C4AD2F88830D5
:103C000023F04063616F0B43C2F88830636FB3F1F8
:103C1000006F5FD0B3F1806F61D0236813F4802F01
:103C20000FD0424AD2F8883023F04063A16F0B4393
:103C3000C2F88830A36FB3F1006F58D0B3F1806F32
:103C40005AD0236813F4804F0FD0384AD2F8883006
:103C500023F04053E16F0B43C2F88830E36FB3F1B8
:103C6000805F51D0B3F1005F56D0236813F4004F4A
:103C700009D02E4AD2F8883023F08043D4F880103F
:103C80000B43C2F88830236813F4803F09D0274AD9
:103C9000D2F8883023F00043D4F884100B43C2F8E4
:103CA0008830384602B0BDE8F0813746EDE61F4A5D
:103CB000936D23F080539365EBE6D36843F4801350
:103CC000D36096E70121201DFFF7A0FC002890D0CB
:103CD00007468EE7D36843F48013D3609DE7012144
:103CE000201DFFF793FC002897D0074695E7D3687F
:103CF00043F48013D360A4E70121201DFFF786FC65
:103D000000289ED007469CE70221201DFFF77EFC7D
:103D10000028AAD00746A8E7022104F12000FFF7F7
:103D20002BFD0028A1D007469FE700BF00100240EE
:103D300010B4036A046A24F001040462846924F064
:103D4000F00C4CEA021223F00A030B438261036277
:103D500010BC704710B4036A046A24F010040462B3
:103D6000846924F4704C4CEA023223F0A00343EA45
:103D700001138261036210BC7047836823F07003F3
:103D80000B4343F0070383607047000090F83D3019
:103D9000DBB2012B31D1022380F83D3003681A4A8F
:103DA00093421CD0B3F1804F19D0A2F594329342C4
:103DB00015D002F58062934211D002F580629342E1
:103DC0000DD002F59432934209D002F5406293423D
:103DD00005D01A6842F001021A6000207047996805
:103DE0000A4A0A40062A0AD0B2F5803F09D01A686A
:103DF00042F001021A600020704701207047002045
:103E000070470020704700BF002C014007000100F0
:103E10007047704770477047704770B50446036835
:103E2000DE681D6915F0020F10D016F0020F0DD0DC
:103E30006FF002021A610123037703689B6913F094
:103E4000030F64D0FFF7E6FF0023237715F0040F7C
:103E500012D016F0040F0FD023686FF004021A611D
:103E60000223237723689B6913F4407F55D02046B3
:103E7000FFF7D0FF0023237715F0080F12D016F0BC
:103E8000080F0FD023686FF008021A61042323770C
:103E90002368DB6913F0030F46D02046FFF7BAFF13
:103EA0000023237715F0100F12D016F0100F0FD04B
:103EB00023686FF010021A61082323772368DB69F7
:103EC00013F4407F37D02046FFF7A4FF0023237769
:103ED00015F0010F02D016F0010F33D115F0800F4D
:103EE00002D016F0800F35D115F4807F02D016F085
:103EF000800F37D115F0400F02D016F0400F39D1A6
:103F000015F0200F02D016F0200F3BD170BDFFF747
:103F100080FF2046FFF77FFF96E72046FFF779FFF7
:103F20002046FFF778FFA5E72046FFF772FF2046FF
:103F3000FFF771FFB4E72046FFF76BFF2046FFF75E
:103F40006AFFC3E723686FF001021A612046FFF79A
:103F50005FFFC3E723686FF080021A61204600F01C
:103F600086F9C1E723686FF480721A61204600F079
:103F70007FF9BFE723686FF040021A612046FFF720
:103F80004BFFBDE723686FF020021A61204600F066
:103F90006DF9BBE70368304A904212D0B0F1804F10
:103FA0000FD0A2F5943290420BD002F5806290427D
:103FB00007D002F58062904203D002F5943290421D
:103FC00003D123F070034A681343234A90421ED062
:103FD000B0F1804F1BD0A2F59432904217D002F579
:103FE0008062904213D002F5806290420FD002F5B9
:103FF000943290420BD002F54062904207D002F515
:104000008062904203D002F58062904203D123F493
:104010004073CA68134323F080034A691343036063
:104020008B68C3620B6883620B4B98420FD003F519
:10403000006398420BD003F54063984207D003F524
:104040008063984203D003F58063984201D10B69E5
:104050000363012343617047002C014060B310B536
:10406000044690F83D3013B3022384F83D302146D6
:1040700051F8040BFFF78EFF012384F8483084F8D1
:104080003E3084F83F3084F8403084F8413084F882
:10409000423084F8433084F8443084F8453084F862
:1040A000463084F8473084F83D30002010BD80F859
:1040B0003C30FDF7B5FBD7E70120704710B48468AA
:1040C00024F47F4C42EA03220A4342EA0C02826053
:1040D00010BC704790F83C30012B76D010B50446E8
:1040E000012380F83C30022380F83D30026890685C
:1040F000374B034093600B68602B4CD029D8402B82
:1041000054D00CD9502B22D1CA6849682068FFF7D7
:104110000FFE50212068FFF730FE002005E0202B25
:104120000DD009D9302B0AD00120012384F83D306D
:10413000002384F83C3010BD0BB1102B05D119467B
:104140002068FFF71AFE0020EFE70120EDE70120CD
:10415000EBE7B3F5805F34D0B3F5005F0CD1CB68EB
:104160004A6889682068FFF7A9FF2268936843F4CA
:10417000804393600020D8E7702B24D1CB684A6835
:1041800089682068FFF79AFF2268936843F07703F5
:1041900093600020C9E7CA6849682068FFF7DAFD24
:1041A00060212068FFF7E9FD0020BEE7CA68496882
:1041B0002068FFF7BDFD40212068FFF7DEFD0020ED
:1041C000B3E70020B1E70120AFE70220704700BF4E
:1041D0008800FEFF90F83C30012B42D030B4012320
:1041E00080F83C30022380F83D30026853689468C0
:1041F0001D4DAA4203D005F50065AA4203D123F460
:1042000070034D682B4323F070030D682B435360FC
:104210000368154A934216D0B3F1804F13D0A2F52C
:10422000943293420FD002F5806293420BD002F594
:104230008062934207D002F59432934203D002F594
:104240004062934204D124F080048A6814439C6045
:10425000012380F83D30002380F83C30184630BC04
:1042600070470220704700BF002C01407047704724
:104270007047026852E8003F23F4907342E800312F
:104280000029F6D1026802F1080353E8003F23F049
:104290000103083242E800310029F3D1036E012BFB
:1042A00006D02023C0F88030002303668366704761
:1042B000026852E8003F23F0100342E80031002971
:1042C000F6D1EEE710B5044601688368026913432E
:1042D00042691343C269134308688E4A024013437C
:1042E0000B602268536823F44053E1680B4353602A
:1042F000A1692268884B9A4201D0236A19439368C6
:1043000023F430630B4393602368844A934210D0B4
:10431000834A934221D0834A934237D0824A9342C0
:104320005CD0824A93426BD07B4A93427DD010226C
:104330003AE002F55842D2F8882002F00302032A3C
:1043400009D8DFE802F00204870601222CE00422EB
:104350002AE0082228E0102226E002F5E632D2F810
:10436000882002F00C020C2A0ED8DFE802F0070DBC
:104370000D0D090D0D0D750D0D0D0B00002213E037
:10438000042211E008220FE010220DE002F5E432D1
:10439000D2F8882002F03002202A5FD01AD8002AF2
:1043A0005ED0102A5ED104225B498B4276D0E06950
:1043B000B0F5004F00F0A380082A00F20E81DFE87C
:1043C00012F0DD00F300DB000C01F6000C010C0123
:1043D0000C01F900302A47D10822E5E702F5E23264
:1043E000D2F8882002F0C002802A3FD004D8FAB365
:1043F000402A3FD10422D7E7C02A3DD10822D3E783
:1044000002F5E032D2F8882002F44072B2F5007F63
:1044100034D005D8A2B3B2F5807F33D10422C3E7EC
:10442000B2F5407F30D10822BEE702F5C832D2F89B
:10443000882002F44062B2F5006F27D005D83AB365
:10444000B2F5806F26D10422AEE7B2F5406F23D1DA
:104450000822A9E70222A7E70222A5E70222A3E792
:104460000022A1E710229FE710229DE702229BE78E
:10447000002299E7102297E7102295E7022293E79E
:10448000002291E710228FE710228DE702228BE7AE
:10449000002289E7102287E7102285E7082A00F228
:1044A0008C80DFE802F0088A2A8A278A8A8A050037
:1044B0004FF4004003E0FFF785F800287FD06268E2
:1044C00002EB420383427CD8B0EB023F7BD8010E63
:1044D00000025308C0184FF0000341F10001FCF73F
:1044E0009BF8A0F54072124B9A426ED82368D860B0
:1044F000002055E0FEF704FCDFE70E48DFE7082A5E
:1045000065D8DFE802F019330564366464641D0081
:10451000084815E0F369FFEF0080004000380140D3
:104520000044004000480040004C00400050004063
:10453000FFFC0F000024F400FFF744F8002848D0E7
:104540006268530803EB4000B0FBF2F0A0F11002E8
:104550004FF6EF739A423ED883B223F00F03C0F3B5
:10456000420018432368D860002019E0FFF73CF8A8
:10457000E4E7FEF7C5FBE1E71B4802E0FFF722F89E
:1045800068B3636800EB5300B0FBF3F0A0F11002D6
:104590004FF6EF739A4224D8236880B2D860002087
:1045A0000023A366E36610BDFFF71EF8E8E7FEF7F9
:1045B000A7FBE5E74FF40040E3E70120F0E7002028
:1045C000EEE70120ECE70120EAE70120E8E701201F
:1045D000E6E70020E4E70120E2E70120E0E7002031
:1045E000DEE70120DCE700BF0024F400436A13F09B
:1045F000080F06D00268536823F40043416B0B4355
:104600005360436A13F0010F06D00268536823F425
:104610000033816A0B435360436A13F0020F06D0E4
:104620000268536823F48033C16A0B435360436AC2
:1046300013F0040F06D00268536823F48023016B43
:104640000B435360436A13F0100F06D0026893685F
:1046500023F48053816B0B439360436A13F0200F64
:1046600006D00268936823F40053C16B0B43936038
:10467000436A13F0400F0AD00268536823F4801392
:10468000016C0B435360036CB3F5801F0BD0436A7E
:1046900013F0800F06D00268536823F40023816C66
:1046A0000B43536070470268536823F4C003416CA6
:1046B0000B435360EBE72DE9F84305460F461646DA
:1046C0009946DDF820802C68E46937EA04030CBFC2
:1046D0004FF0010C4FF0000CB44532D1B8F1FF3F60
:1046E000F1D0FDF7B7F9A0EB090040452CD8B8F19F
:1046F000000F2BD02B681A6812F0040FE3D0DA6990
:1047000012F0080F11D1DA6912F4006FDBD04FF408
:1047100000621A622846FFF7ACFD2023C5F88430FA
:10472000002385F8783003200CE008241C6228461A
:10473000FFF79FFDC5F88440002385F878300120FD
:1047400000E00020BDE8F8830320FBE70320F9E741
:104750002DE9F04182B01E46C36F202B56D104468E
:104760000D469046002955D00AB901204FE000239C
:10477000C0F884302123C367FDF76CF90746A4F81D
:104780005080A4F85280A368B3F5805F02D04FF048
:10479000000818E0236913B14FF0000813E0A846A1
:1047A000002510E02023E367032030E038F8023BC7
:1047B0002268C3F308031385B4F8522092B2013A79
:1047C00092B2A4F85220B4F852309BB27BB100965A
:1047D0003B46002280212046FFF76DFF0028E1D1F3
:1047E000002DE3D0236815F8012B1A85E4E7009625
:1047F0003B46002240212046FFF75DFF10B92023F1
:10480000E36704E02023E367032000E0022002B016
:10481000BDE8F0810120FAE730B583B004460023FB
:10482000C0F88430FDF716F905462268126812F0C8
:10483000080F0FD123681B6813F0040F26D1202323
:10484000E367C4F8803000202066606684F8780052
:1048500003B030BD6FF07E430093034600224FF457
:1048600000112046FFF727FF0028E3D0226852E816
:10487000003F23F0800342E800310029F6D12023D5
:10488000E367002384F878300320E1E76FF07E438C
:1048900000932B4600224FF480012046FFF70BFFC8
:1048A0000028CCD0226852E8003F23F4907342E8FD
:1048B00000310029F6D1226802F1080353E8003FD5
:1048C00023F00103083242E800310029F3D120230C
:1048D000C4F88030002384F878300320B8E768B348
:1048E00010B50446C36F03B32423E367226813683B
:1048F00023F001031360636AE3B92046FFF7E2FC8B
:10490000012811D02268536823F490435360226831
:10491000936823F02A0393602268136843F001032D
:1049200013602046FFF778FF10BD80F87830FCF761
:10493000CBFFD9E72046FFF759FEDEE7012070479D
:10494000014B1868704700BF0C00002070B50D4E79
:104950000D4D761BB61006D0002455F8043B0134EB
:104960009847A642F9D1094E094D761B05F05CFF28
:10497000B61006D0002455F8043B01349847A642EF
:10498000F9D170BD60AC000860AC000868AC0008EC
:1049900060AC0008830730B548D0541E002A3FD0D1
:1049A000CAB2034601E0013C3AD303F8012B9D074C
:1049B000F9D1032C2DD9CDB245EA05250F2C45EAB6
:1049C000054536D9A4F1100222F00F0C03F1200E98
:1049D000E6444FEA121C03F1100242E9045542E991
:1049E000025510327245F8D10CF1010214F00C0F8F
:1049F00003EB021204F00F0C13D0ACF1040323F00C
:104A000003030433134442F8045B9342FBD10CF0DC
:104A100003042CB1CAB21C4403F8012B9C42FBD105
:104A200030BD64461346002CF4D1F9E70346144622
:104A3000BFE71A46A446E0E70FB400B5074983B0C4
:104A400004AB086853F8042B8168019300F008F860
:104A500003B05DF804EB04B0704700BF0C00002009
:104A60002DE9F04FD5B01C460791914605460990B7
:104A700003F0F6F80268179210460E94FCF740F81F
:104A800016901DB1AB6B002B00F02A82079A536E73
:104A9000DD0740F13881B2F90C2091B28F0409D4BE
:104AA000079B42F400529A8191B21A465B6E23F43E
:104AB000005353660E0740F1CB80079B1B69002B08
:104AC00000F0C68001F01A030A2B00F0CF8000240A
:104AD0002BAB4D46CDE92944CDE91944CDE91B4422
:104AE000129428939846189400230B940024CDE93F
:104AF00014342B78002B00F09D81AA4604E01AF8AC
:104B0000013F002B00F0C780252BF8D1BAEB05063A
:104B100040F0C5809AF80030002B00F08B81002314
:104B20004FF0FF329AF801608DF883300A930AF152
:104B3000010A08921F462B244FF020090AF1010AAE
:104B4000A6F120035A2B00F2ED80DFE813F0EB0210
:104B5000EB00EB00E602EB00EB00EB006A00EB0081
:104B6000EB005C028002EB0067028A02EB00850228
:104B70005B005B005B005B005B005B005B005B005D
:104B80005B00EB00EB00EB00EB00EB00EB00EB005D
:104B90007A01EB00F801D2017A017A017A01EB0087
:104BA000EB00EB00EB00E102EB00EB002D02EB0071
:104BB000EB00EB000202EB00A402EB00EB0083072A
:104BC000EB00EB00EB00EB00EB00EB00EB00EB008D
:104BD0007A01EB00F801D4017A017A017A01C70267
:104BE000D401CD01EB00D402EB006C022F02B50220
:104BF000CD01EB0002027E008007EB00EB006107B5
:104C0000EB007E00A6F1300300221AF8016B02EBE4
:104C1000820203EB4202A6F13003092BF5D90A9276
:104C20008EE7DDF824B0584603F01AF843681B936A
:104C30001846FBF765FF1C900646584603F010F82F
:104C400083681993002E40F0CD869AF8006075E7CE
:104C5000079D0998294601F0ADFC002841F01C830E
:104C6000A98901F01A030A2B7FF431AF079AB2F930
:104C70000E30002BFFF62BAF536ED80702D48905F8
:104C800041F13B810799099823464A4655B0BDE852
:104C9000F04F01F04FBCBAEB050600F0CB802A9B29
:104CA00033442A93299B0133072BC8E900562993E3
:104CB00005DC08F108080B9B33440B932AE707999E
:104CC000099828AA03F0ACFF80B90DF1AC08F2E70F
:104CD0000799099828AA03F0A3FF002800F09B80F9
:104CE0000D9B1BB10998194602F090FE079A536E6E
:104CF000D90740F1EA8093895B0601F1D9820B98CC
:104D000055B0BDE8F08F079BB3F90C20900591B228
:104D10003FF5C4AE1D46986D02F0AAFFB5F90C2010
:104D200091B2BBE6002E00F0858000228DF8EC6089
:104D30008DF883200123CDE90C32069308920F925F
:104D4000139210923BAD17F0020302D00699023184
:104D5000069117F0840B07D10A990698A1EB000978
:104D6000B9F1000F00F370832A9C8AB1299A0DF1E2
:104D7000830101320134C8F80010072A4FF0010105
:104D80002A942992C8F8041000F3B68308F10808A1
:104D900083B1299B21AA01330234C8F80020072BD4
:104DA0004FF002022A942993C8F8042000F3B2833A
:104DB00008F10808BBF1800F00F06982089B0C9A8B
:104DC000A3EB020BBBF1000F00F3AA82FB0500F17D
:104DD00000820C9BC8F804301C44299BC8F8005082
:104DE0000133072B2A94299300F3228308F1080842
:104DF000780705D50A9B069A9D1A002D00F3968325
:104E0000DDE90A2306998A42ACBF9B185B180B9315
:104E1000002C7FF45DAF002329930D9B1BB10D99EE
:104E2000099802F0F3FD0DF1AC0855462B78002BE4
:104E30007FF463AE2A9B002B41F0D381002329939A
:104E400054E70E9B073323F00702F2E80234CDE962
:104E50001434DDE9143424F000440E9299461846C7
:104E60002146B54B4FF0FF32FCF752F9002840F0D5
:104E7000EF84B14B484621464FF0FF32FCF72AF948
:104E8000002840F0E584DDE9140100220023FCF74E
:104E900017F9002840F067879DF88320A74DA84B9D
:104EA00027F080070321472EC8BF1D4600230D931E
:104EB00006910C9108930F9313931093002A3FF4DB
:104EC00042AF069B013306933DE7079B9B899A05FA
:104ED0003FF512AF079CA06D02F0CCFEA3890BE753
:104EE000099802F09BFCD1E59AF8006047F0200792
:104EF00024E647F01007BA060E9B40F13B840733C7
:104F000023F007031A465B6852F8084B0E92994645
:104F1000002BC0F24C84089B013300F0D88254EA85
:104F2000090327F0800B40F0D382089B002B40F050
:104F3000D4825F46002308930C9354AD1DE10E9B71
:104F4000002253F8041B8DF883208DF8EC100E938B
:104F5000F0E60E9C089B54F8045B4FF000098DF8B6
:104F60008390002D00F093855A1C00F051861A465C
:104F700049462846FBF7D4FC0D90002801F00E812D
:104F80000D9BCDF820905B1B0C930E9423EAE373EA
:104F90009DF883200693CDF83490CDF83C90CDF861
:104FA0004C90CDF8409089E747F0100717F02009A2
:104FB00000F0D2830E9B073323F00703D3F804904D
:104FC00053F8084B0E9327F4806B002300228DF8D2
:104FD0008320089A511C00F0B88054EA09012BF094
:104FE000800740F0B180002A40F0F685002BA1D167
:104FF0001BF001030C9300F0148430238DF84F3123
:105000000DF24F15B9E00E9B53F8042B0A92002ABB
:1050100080F2DA830A9A0E9352420A929AF800605A
:1050200047F004078AE5BD0600F1D184FC0600F1D3
:10503000D885780600F1A586B90540F1D2850E9B8A
:105040000B9953F8042B0E9311705546EEE69AF81F
:1050500000608DF8834071E59AF8006047F08007A2
:105060006CE5524612F8016B2A2E01F03F82A6F140
:105070003003092B924698BF002201F2BC801AF837
:10508000016B02EB820203EB4202A6F13003092B13
:10509000F5D9089254E547F0100B1BF0200900F0F9
:1050A00076830E9B073323F00703D3F8049053F85D
:1050B000084B0E93012389E70E9B53F8044B0E9384
:1050C000302378268DF884301E4B189347F0020B5E
:1050D0008DF885604FF00009022377E79AF80060A9
:1050E000682E03BF9AF8016047F400770AF1010ABD
:1050F00047F0400722E59AF800606C2E03BF9AF84B
:10510000016047F020070AF1010A47F0100715E592
:105110009AF8006047F0080710E59AF8006047F039
:1051200001070BE59DF88330002B7FF48EAD9AF8D4
:1051300000608DF8839001E5FFFFEF7FA4A80008D1
:10514000A8A80008B4A80008BB46012B00F0C08145
:10515000022B54AD20D1189A04F00F032409D35C1C
:1051600005F8013D44EA09744FEA191954EA0903A4
:10517000F2D154AB5B1B5F460C9308990C989DF8D9
:10518000832081424FF00003B8BF01460D93069182
:105190000F931393109391E604F00703E40844EA95
:1051A00049744FEAD909303354EA09012A4605F80F
:1051B000013DF1D11BF0010FDBD0302BD9D03023D2
:1051C000023A05F8013C54AB9B1A5F460C93154616
:1051D000D3E7652E40F3E680DDE9140100220023C9
:1051E000FBF764FF002800F0DC81299BBF4AC8F868
:1051F0000020013301340122072B2A942993C8F897
:10520000042000F3CC8408F10808229B129A9342F0
:1052100080F2D682169B179A1C44C8E90023299B6A
:105220002A940133072B299300F3248408F10808FA
:10523000129B5D1E002D7FF7DBAD102D299BDFF843
:10524000B09240F3BD8449462246B946DDF824B009
:10525000079C10260F4605E008F10808103D102DA8
:1052600040F3AA8401331032072BC8E90076CDE958
:105270002932F1DD28AA2146584603F0D1FC002846
:105280007FF42EADDDE929320DF1AC08E6E70A9B8B
:10529000069AA3EB020BBBF1000F7FF78FADBBF1BA
:1052A000100F299ADFF848922CDD1D9621464E46B4
:1052B000079CDDF82490102306E0ABF1100BBBF146
:1052C000100F08F108081ADD01321031072AC8E969
:1052D0000063CDE92921F0DD28AA214648460DF1D9
:1052E000AC0803F09DFC00287FF4FAACABF1100B86
:1052F000BBF1100FDDE929214FF01003E4DCB146CA
:105300001D9E0C4601325C44072ACDE92924C8F8C9
:105310000090C8F804B000F3A08308F108084DE538
:10532000BBF1100F299ADFF8C8912DDD41462046C8
:10533000A8464C46079DDDF82490102306E0ABF10B
:10534000100BBBF1100F01F1080119DD0132103013
:10535000072AC1E90043CDE92920F0DD28AA294622
:10536000484603F05DFC00287FF4BAACABF1100BAB
:10537000BBF1100FDDE929202BA94FF01003E5DC6C
:105380004546A1468846044601325C44072ACDE9D9
:105390002924C8F80090C8F804B000F3D08108F1BF
:1053A000080813E5129B012B40F38081299EC8F861
:1053B0000050013601340123072E2A942996C8F89B
:1053C000043000F37C8308F10808169B179A013615
:1053D0001C44072EC8E90023CDE9296400F37C832F
:1053E00008F10808DDE9140100220023FBF75EFE46
:1053F000002840F07881129B0136013B01351C44A6
:10540000072EC8F800502996C8F804302A9400F3F3
:105410005D8108F108081A9BC8F8043001361C4465
:10542000072E24ABCDE92964C8F800307FF7DEAC45
:105430000799099828AA03F0F3FB00287FF450ACE1
:105440002A9C0DF1AC08D3E4B9F1100FDDE9292154
:105450002BDDCDE91D3B1F96DDF824B04E46102410
:10546000A946079D04E0103E102E08F1080817DD3C
:105470000132204B1031072AC8E90034CDE9292137
:10548000F1DD28AA294658460DF1AC0803F0C8FB07
:1054900000287FF425AC103E102EDDE92921E7DC41
:1054A000DDE91D3B4D46B1461F9EC8F80490013210
:1054B00009EB0104072A0F49C8F80010CDE9292497
:1054C00000F351839DF8832008F108084DE4BB46A2
:1054D0000A2C79F1000380F00C83303401238DF81D
:1054E0004F415F460C930DF24F1546E6E4A80008C5
:1054F000F8A80008E8A80008079909981D9328AAA9
:1055000003F08EFB00287FF4EBAB2A9C1D9B0DF172
:10551000AC083DE40799099828AA03F081FB00280C
:105520007FF4DEAB2A9C0DF1AC0843E4102D299BDF
:1055300021DD099FDDF81C90102604E0103D102DA0
:1055400008F1080817DD0133BB4A1034072BC8E9FE
:105550000026CDE92934F1DD28AA494638460DF167
:10556000AC0803F05DFB00287FF4BAAB103D102DB2
:10557000DDE92934E7DC0133AF4AC8F804502C4494
:10558000072BCDE92934C8F800207FF739AC0799FB
:10559000099828AA03F044FB00287FF4A1AB2A9CB9
:1055A0002EE42299002940F31481DDF84090129BEB
:1055B0009945A8BF9946B9F1000F0BDD299B01332E
:1055C0004C44072BC8E900592A94299300F39A8583
:1055D00008F10808109EB9F1000FA8BFA6EB090654
:1055E000002E00F34683DDF840B07905AB4400F1AE
:1055F000CE84229B129A934202DBFA0740F1B883D1
:10560000169A17991444C8E90012299A2A9401326B
:10561000072A299200F3838508F10808129AAE1828
:10562000A6EB0B06D51AAE42A8BF2E46002E0DDD06
:10563000299BC8F800B001333444072BC8F8046034
:105640002A94299300F3F18508F10808002EA8BFD9
:10565000AD1B002D7FF7CCAB102D299BDFF8DC9123
:1056600040F3AE8249462246B946DDF824B0079C95
:1056700010260F4605E008F10808103D102D40F3F4
:105680009B8201331032072BC8E90076CDE929321D
:10569000F1DD28AA2146584603F0C2FA00287FF41B
:1056A0001FABDDE929320DF1AC08E6E7FE073FF557
:1056B0007DAE299EC8F80050013601340123072E23
:1056C0002A942996C8F804307FF7A3AE0799099861
:1056D00028AA03F0A5FA00287FF402ABDDE92964CB
:1056E0000DF1AC0897E6129B5D1E002D7FF793AE7F
:1056F000102DDFF8489140F37F8222460897099CDD
:10570000079F4FF0100B05E008F10808103D102D21
:1057100040F3708201361032072EC8E9009BCDE9B4
:105720002962F1DD28AA3946204603F079FA0028DB
:105730007FF4D6AADDE929620DF1AC08E6E7079906
:10574000099828AA03F06CFA00287FF4C9AA2A9CB9
:105750000DF1AC08FFF73ABB17F0100372D117F048
:10576000400200F0BD820E9A52F8044B0E92994608
:10577000A4B228E453F8044B0E93FB0656D47D06DE
:1057800051D544F3C0394B4624B2FFF7C1BB1BF0DF
:10579000100340F036811BF0400200F092820E9A16
:1057A00052F8044B0E929946A4B201230EE42D2325
:1057B00064428DF8833069EB4909BB46012308E454
:1057C000F8077FF515AB25E59AF800600E93FFF713
:1057D000B5B9299B1A4AC8F80020013301340122C7
:1057E000072B2A942993C8F8042000F3708408F149
:1057F0000808002940F01E82129A07F001031343A3
:105800003FF4F6AA169B1799E218C8E90013299BE2
:105810002A920133072B299300F3618308F10808CA
:1058200019E254ADA9E4B80500F1B4824FEAE47975
:105830004B46FFF76DBB00BFE8A80008F8A80008BA
:10584000E4A800080E9B53F8044B0E93FFF7BBBB74
:10585000DDE9140102460B46FBF75AFC002840F034
:10586000A085612E00F05085412E00F09982089BA2
:10587000013326F02003069300F08F85472B00F0BC
:105880007985DDE9141247F480730F931346002BDA
:10589000C0F2ED850C9300231D938B460D93069B60
:1058A000462B00F04A84452B00F04F850899019162
:1058B00026A9049123A9039122A9029102210C9BFC
:1058C000099800915A4600F083FF069B472B054636
:1058D00040F01C8617F0010FB9460F9F40F0D984A5
:1058E000269B5B1B1293069B472B00F01883069B9D
:1058F000462B00F05F84229B1093109B069A013B7D
:10590000412A229300F0AA85F2B20021002BB8BFF1
:10591000109B8DF89020BABFC3F101032D222B22DA
:10592000092B8DF8912040F363850DF19F04BD4F45
:105930002246104687FB0321DA17C2EBA10202EBD5
:105940008201A3EB4101303100F8011C19466329A3
:10595000134600F1FF32ECDC3033D9B2831E9C4297
:1059600002F8011C40F2CE8513460DF1920201E0CF
:1059700013F8011B02F8011B9C42F9D10DF1A103A0
:105980000DF192021B1A134424AA9B1A1A93129B1C
:105990001A9A012B1A440C9240F372850C9B169AAA
:1059A00013440C930C9A002329F4806722EAE272D4
:1059B00047F480770F930692139310931D9B002B4F
:1059C00040F0DE829DF883200893FFF777BA0E9BA4
:1059D0000B9853F8041B0E93C217C1E900025546F9
:1059E000FFF724BA199B002B3FF42FA9199B1B78B2
:1059F000002B3FF42AA99AF8006047F48067FFF76C
:105A00009DB80E9B53F8044B0E930123FFF7DEBAAB
:105A1000854B189317F0200949D00E9B073323F0CC
:105A20000703D3F8049053F8084B0E93F80709D5F1
:105A300054EA090306D030238DF8856047F0020749
:105A40008DF8843027F4806B0223FFF7BFBABB4682
:105A5000FFF723BB754B1893DCE70799099828AA31
:105A600003F0DEF800287FF43BA92A9C0DF1AC0876
:105A7000FFF7A4B90799099828AA03F0D1F80028DC
:105A80007FF42EA92A9C0DF1AC08FFF7D1BB062BA1
:105A9000294628BF062308950D952A460693644D8E
:105AA0000E940C930F9113911091FFF707BA17F012
:105AB000100369D00E9B53F8044B0E93B6E7079979
:105AC000099828AA03F0ACF800287FF409A9DDE9B9
:105AD00029640DF1AC0878E40799099828AA03F025
:105AE0009FF800287FF4FCA8DDE929640DF1AC08DB
