:020000040800F2
:1000000030380020F9590008895800088B5800083A
:100010008D5800088F580008915800080000000013
:1000200000000000000000000000000093580008DD
:1000300095580008000000009758000899580008DB
:10004000555A0008595A00085D5A0008615A0008BC
:10005000655A0008695A00086D5A0008715A00086C
:10006000755A0008795A00087D5A00089D58000802
:10007000815A0008855A0008895A00088D5A0008DC
:10008000915A0008955A0008995A00089D5A00088C
:10009000A15A0008A55A0008A95A0008AD5A00083C
:1000A000B15A0008B55A0008B95A0008BD5A0008EC
:1000B000C15A0008C55A0008C95A0008CD5A00089C
:1000C000D15A0008D55A0008D95A0008DD5A00084C
:1000D000E15A0008E55A0008A3580008A95800088A
:1000E000E95A0008ED5A0008F15A0008AF58000814
:1000F000B1580008B9580008BB580008F55A000864
:10010000F95A0008FD5A0008015B0008055B000869
:10011000095B00080D5B0008115B0008155B000817
:10012000195B00081D5B0008215B0008255B0008C7
:10013000295B00082D5B0008315B0008355B000877
:10014000395B00083D5B0008415B0008455B000827
:10015000495B00084D5B0008BD580008515B000872
:10016000555B0008595B00085D5B0008615B000897
:10017000655B0008695B00086D5B0008000000001B
:10018000715B0008755B0008795B00087D5B000807
:10019000815B0008855B0008895B00088D5B0008B7
:1001A000915B0008955B0008995B00082DE9F14F11
:1001B000B2B09946924600230691CDE900333C9AAD
:1001C0000F930DF14A0114914A7011E0329E574687
:1001D0002C4617F8011B0698B0470028069000F03F
:1001E00026810F98401C641E0F90F2D13296AA44CB
:1001F0009AF80000252808D10021002209910A92CE
:100200000B910C920D910E920FE06A464FF0FF3168
:10021000504601F07FF8050002D10F9800F066BE4D
:10022000D4D50125E3E741F001011AF8010F202898
:10023000F9D023280CD02B2804D02D2805D0302825
:1002400009D00BE041F00201EFE741F00401ECE7D7
:1002500041F00801E9E741F01001E6E72A280FD153
:10026000D9F8002052F8040BC9F80020002811909A
:1002700003D54042119041F004010AF1010A14E053
:100280001192DFF8EC3B0AE01198984205DA00EB96
:10029000800402EB4402303A11920AF1010A9AF802
:1002A0000020A2F130000A28EED39AF800002E2890
:1002B00003D04FF0FF32109229E01AF8010F2A28DC
:1002C00009D1D9F8000050F8042BC9F800001092A9
:1002D0000AF1010A1BE02D280CBF0AF1010A0020D7
:1002E00000221092DFF8882B0BE040B9109B93425C
:1002F00005DA03EB830504EB4504303C10940AF166
:10030000010A9AF80040A4F130030A2BEDD3ADF8AE
:1003100048100FF660309AF8001001F005F808B1A7
:100320001AF8010B8DF84A009DF84A00682805D19B
:100330009AF8000068280CD1622106E06C2804BFFE
:100340009AF800006C2804D171218DF84A100AF146
:10035000010A1FA808901AF801BBBBF125012DD096
:100360001C3900F06181091F022940F25D810E39BC
:100370002AD0491F00F0B384093900F05581891E45
:1003800000F04985491E00F0F584491E022940F21B
:100390004B81091F00F0EE84491F00F0BA80491E0E
:1003A00000F09D84491E65D0C91E21D0891E00F031
:1003B0009684C91E00F0938400F04CBD25238DF86F
:1003C0007C30012109912AE06C208DF84A00D9F88F
:1003D000000050F8042BC9F80000002A43D11499FA
:1003E000487800283DD04FF0FF340FF6902012E0FF
:1003F0009DF84A006C28EAD0D9F8000050F8044B68
:10040000C9F800000794D4B91499487898B14FF00E
:10041000FF340FF6842000F0A1FF201A07D1329894
:100420001FAA04A900F065FD00287FF5E1AE4FF09A
:10043000FF3000F05BBD0FF67C200790EFE7109DCA
:10044000002D04D5204600F0A9FF044607E02A4607
:10045000204600F0ADFF002814BF041B2C460A9470
:10046000DDE70FF65422329804A900F0C8FD0028F9
:10047000D5D5DCE7D9F8001051F8040BC9F8001005
:1004800020F00004002121F0FF351FABCDE9044529
:100490000793DDE9042308993C2413B90AB910989D
:1004A00098B102F00F053035641EEEB23A2EA8BFA7
:1004B0002735120942EA03721B090D5508BF002AAD
:1004C00003D007980D19A842EBD308190790C4F17F
:1004D0003C0210980A92824209DABDF84810821A4A
:1004E0004FF6EF7001400C92ADF8481097E70028E6
:1004F00095D59DF8480000F0140010288FD1119B6D
:1005000009990C985B1A1B1A9A1A002A87DD0C921B
:1005100085E71499487820B14FF0FF340FF69C100E
:1005200079E79DF84A00622862D0682819D06A28C5
:1005300040D06C2806D071284DD074282DD07A2850
:100540001ED064E0D9F8001051F8040BC9F800106F
:1005500020B94FF0FF340FF67C105CE70F99016073
:100560005DE7D9F8001051F8040BC9F8001020B964
:100570004FF0FF340FF65C104DE70F9901804EE706
:10058000D9F8001051F8040BC9F800100028E5D183
:100590004FF0FF340FF63C103DE7D9F8001051F84A
:1005A000040BC9F800100028D8D14FF0FF340FF623
:1005B000241030E7D9F8001051F8040BC9F80010E6
:1005C00020B94FF0FF340FF60C1024E70F9AD31721
:1005D000C0E9002323E7D9F8001051F8040BC9F84B
:1005E00000100028F2D14FF0FF340FF6E80012E7B8
:1005F000D9F8001051F8040BC9F8001020B94FF0D9
:10060000FF340FF6D00006E70F99017007E7D9F81D
:10061000001051F8040BC9F8001000289ED14FF0CB
:10062000FF340FF6B000F6E6D9F80020D21D22F014
:100630000702C9F80020D2E900010832C9F80020F9
:10064000CDE90401C80F02D009982D210AE0BDF8B8
:100650004800810702D509982B2103E0C00705D582
:10066000099820211FAA1154401C0990DDE9042398
:1006700009991FA8CDE92E2308444BF020016129D8
:10068000079015AC0BD01099002902D506211091C6
:1006900005E001BF4BF02001672901221092DDE93E
:1006A000042359004915491C10D11A030ED0ABF18F
:1006B000610503211A2D0A9102D20FF6A43101E03F
:1006C0000FF6A031032200F09FFEA8E6590049155D
:1006D000491C0AD11A0308D1ABF1610503211A2D77
:1006E0000A9116D30FF68431ECE7DDE90401CDE978
:1006F0003001DDE9302323F00047B7F5801F22F0F9
:1007000000060DD20022002F08BF002E029203D156
:1007100016E00FF65431D5E702AA00F0C9FE0FE04B
:10072000DFF8EC0ADFF8EC1A00EB17500290DDE975
:1007300030234FF0FF301940DFF8DC7A10403943A6
:10074000CDE904014BF0200061280DD1079830213C
:100750000170821CBBF1610F07920CBF78215821F8
:1007600041700998801C0990DDE9040120F0000225
:1007700031F0004308BF002A02D10026002571E1B4
:100780004BF02008B8F1610F40F0BE8010980028AF
:1007900047BF21210391401C0390039FDDE92E01F7
:1007A0007F1C00220023DDE9044500F0B9FE029918
:1007B0008DF8542038BF85F00045091F002F0291A5
:1007C0000DF155065DDDDFF8541ACDE9302140F218
:1007D000FF732E93204629460022002300F0B8FE26
:1007E0004FD24800400D00F11C0215D0002A13DD45
:1007F0002E9B9A420ADBDDE9300121F0004205F030
:1008000000400243DDE93001114611E06FF31E5153
:1008100041EA025120460BE024F0000035F000418F
:1008200008BF00280FBF29461C22294600F0A8FE59
:1008300004460D4600F042FFFF1F002F804609DDF1
:1008400000F05AFF02460B462046294600F066FF9C
:1008500004460D46F01D0721B8F1000F0CDD491EBE
:100860005EBF08F00F0200F8012D4FEA2818F3D5FB
:1008700002E0002200F8012D491EFAD5C61D002F06
:10088000A8DC0DF15500361A03988642D8BF3046D1
:1008900000280DF1550430D4B04206DA0DF15501AF
:1008A0000A5C082AA8BF0F2100DA0021024615AB16
:1008B000134400E0401E13F80159521E8D42F9D036
:1008C0000F2904D10DF155018B5C5B1C8B54002A60
:1008D00004D50299091D15AC401C0291411E0CD48F
:1008E0006218ABF13A0613783033DDB23A2DA8BF67
:1008F000F318491E02F80139F5D51099002940F185
:10090000AF80421E1092ABE00299DFF8142947F243
:100910009750414391FBF2F2DDE92E45029225F01A
:100920000045D2F1070204DD2046294600F04CFCC8
:100930000BE052420020DFF8EC1800F045FC0246C4
:100940000B462046294600F05BFF0446B8F1660FCF
:10095000109806BF029F0A3706273F18142FC8BFFA
:10096000142730208DF854000D460020DFF8B81809
:10097000CDE92E010DF15506002F33DD2046294625
:1009800001F062F801460A4606F1080304200A262F
:10099000B2FBF6F606EB860EA2EB4E02303203F8FF
:1009A000012C0A22B6FBF2F202EB820EA6EB4E06F7
:1009B0003036401E03F8026DE9D1083F002F03F1E5
:1009C0000806D9DD084601F053F802460B462046DA
:1009D000294600F0A3FEDDE92E2301F057F8044676
:1009E0000D46CBE70DF15500361A0DF1550404E024
:1009F0000298401E761E0290641C20783028F7D0A2
:100A0000B8F1660F02D10299491C04E0B8F1650FF4
:100A10000CBF01210021109808188642B8BF701E33
:100A200000281DD4B04204DA215C3429C8BF392122
:100A300000DC30210246631E9D1800E0401E15F8C0
:100A40000169521E8E42F9D0392902D1A15C491C9C
:100A5000A154002A04D50299491C1C46401C02914D
:100A60000646029D00F05AFC406A0778DDF8408097
:100A700030B2002802DC01260FF2F4744BF02000A3
:100A8000662808BF6D1C16D0672846D128B210F121
:100A9000040F48DB404546DA9DF848006D1C01070D
:100AA00003D430B24045B8BF804628B2B8EB000846
:100AB00048BF4FF000080FFA85FB07980A99BBF171
:100AC000000F00F3B2804A1C0A9230234354B8F15D
:100AD000000F03DC9DF84800010704D50A98411C6B
:100AE0000A9107990F5418EB0B0FB8BFC8F1000516
:100AF0002DB268420D90A84432B29045B8BF464628
:100B0000079B0A9836B20B9632462146184400F0ED
:100B10007BFCA8EB06000E90CBE0BBF1610F17D178
:100B20004FF0700B19E030B2404504DA9DF84810E0
:100B30000A0758BF8046B8F1010848BF4FF00008C7
:100B4000BBF1670F14BF4FF0450B4FF0650B04E08E
:100B5000BBF1410F08BF4FF0500B0A98411C0A919E
:100B6000B8F1000F079914F8012B0A5403DC9DF823
:100B7000480001071AD50A98411C0A91B8F1000FE4
:100B800007990F5412DD761E30B2804507980A9BF4
:100B9000B8BF464632B22146184400F035FC0A99E7
:100BA00036B271180A91A8EB06000D9007980A99C1
:100BB00008442AB2002A80F800B003D42B224270E5
:100BC000811C04E02D2141701546811C6D420020DE
:100BD0002EAA0A2409E02B4693FBF4F505EB8506C3
:100BE000A3EB460302F8013B401C2DB2002DF2DCC2
:100BF000012806DC4BF02002652A04BF302201F8F0
:100C0000012B00282EAA08D1302001F8010B06E0A4
:100C1000401E135C303301F8013B0028F8DC079AD2
:100C20000A981044091A0B9143E0084431B22AB2E1
:100C3000914219DA32B2214600F0E6FB0A9936B247
:100C40007118ABEB0606B8F1000F0A910D9603DCA4
:100C50009DF84800020704D5079847540B99491C92
:100C60000B91CDF8388024E0214600F0CDFB0A98A6
:100C7000761B5844B8F1000F0A9003DC9DF8481029
:100C80000A0703D5411C0A9107990F5430B28045D9
:100C900007980A9BB8BF464632B204EB0B011844D2
:100CA00000F0B2FB0A9836B230180A90A8EB0600A2
:100CB0000D909DF8480000F0140010287FF4AFABB1
:100CC000099A0A990D988A180B9982180E988A1811
:100CD000821811988242BFF6A2AB821A17E49DF8DF
:100CE0004A00622808D068280ED06A2814D06C28E0
:100CF0001FD0712810D01CE0D9F8001051F8040B57
:100D0000C9F80010C0B21AE0D9F8001051F8040B6D
:100D1000C9F8001080B212E0D9F80020D21D22F0EC
:100D20000702C9F80020D2E900010832C9F8002002
:100D300006E0D9F8001051F8040BC9F800100021A2
:100D4000CDE904019DF8480001075AD5DDE90423E7
:100D5000002B08BF002A54D04BF02000782850D137
:100D600009981FA930220A54401C431C099301F81A
:100D700000B046E09DF84A00622808D068280ED0EE
:100D80006A2814D06C281FD0712810D01CE0D9F824
:100D9000001051F8040BC9F8001040B21AE0D9F85D
:100DA000001051F8040BC9F8001000B212E0D9F895
:100DB0000020D21D22F00702C9F80020D2E900016C
:100DC0000832C9F8002006E0D9F8001051F8040BE9
:100DD000C9F80010C117CDE90401002902D509980E
:100DE0002D210AE0BDF84800810702D509982B2182
:100DF00003E0C00705D5099820211FAA1154401C03
:100E000009901FA809990144079104A8594600F0C8
:100E100056F9FFF704BB9DF84A006C280BD001215E
:100E20000991D9F8000050F8041BC9F800008DF8AA
:100E30007C10FFF7F4BAD9F8000050F8041BC9F889
:100E4000000015914FF0FF3210920021169115AA63
:100E5000FFF709BB25210122BBF1000F8DF87C10A3
:100E600009923FF4DCAA8DF87DB00221FFF7AABAFF
:100E7000CBCCCC0C686A6C747A4C00007072696ED2
:100E800074665F733A2062616420256C732061721E
:100E900067756D656E7400007072696E74665F735D
:100EA0003A2062616420257320617267756D656EFA
:100EB0007400000000000000000000007072696E05
:100EC00074665F733A20256E20646973616C6C6F81
:100ED000776564007072696E74663A20626164209E
:100EE000256E20617267756D656E740033B0BDE864
:100EF000F08F2DE9FC410F46064690467A6B7869E3
:100F0000396ABC6A121AB869521A796A121AF869EF
:100F1000521A121A97F83800141B41070FD42020D8
:100F2000002C8DF800000ADD254601236A4639466B
:100F3000304600F07DF900285DD16D1EF5D17B694A
:100F400042463946304600F073F9002853D130202C
:100F50008DF800003D6A002D09DD01236A463946FF
:100F6000304600F065F9002845D16D1EF5D1BB690A
:100F7000FA683946304600F05BF900283BD1302052
:100F80008DF800007D6A002D08DD01236A46394690
:100F9000304600F04DF970BB6D1EF6D1F868B969A6
:100FA000FB6942183946304600F042F918BB302040
:100FB0008DF80000BD6A002D08DD01236A46394620
:100FC000304600F035F9B0B96D1EF6D197F838000B
:100FD00041070DD52020002C8DF8000008DD0123ED
:100FE0006A463946304600F023F920B9641EF6D12E
:100FF0000020BDE8F6814FF0FF30BDE8F6812DE915
:10100000F8470D46A3B02F6B002F8246904648BF8D
:101010006FF0004700F00BFE696B401801AA002139
:10102000C2E90011812828BF4FF0FF3044D2894621
:101030001EE0A74230DB6869201881280BD300210D
:10104000696303AA29465046FFF753FF5FEA000988
:1010500022D40020686103AB6E6922466946981964
:1010600000F0D2F9A6196E6158F8040BA0B13F1B2D
:10107000002F11DDD8F8001001AA684600F04CF9E5
:101080000446002C05D4D8F800000028D1D1641EF5
:10109000CFD54FF0FF390EE0B9F1000F504604D123
:1010A00003AA2946FFF725FF8146B9F1000F02D1B7
:1010B000002068616863484624B0BDE8F0872DE9E8
:1010C000FC4307466F293E6908BF082405D041F05C
:1010D0002000782814BF0A2410243C25D7E90023D7
:1010E000642918BF69299046994605D1002B03D57C
:1010F000D8F1000869EB4909B9F1000F08BFB8F150
:10110000000F0CD1386B50B9082C39D197F8380042
:10111000010735D530203B2586F83B0030E08DF8BF
:101120000010404649462246E31700F085FD303264
:10113000D0B26D1E3A28019504DB9DF80000A0F1A5
:1011400051018A187255404649462246E31700F07D
:1011500073FD80465FEA010908BFB8F1000F03D0B4
:10116000F86871198842DCD3082C09D197F8380047
:10117000010705D5705D302802D06D1E30207055F6
:10118000C5F13C02BA617119F960386B824208DA24
:10119000821A3A624FF6EF70398F01403987BDE805
:1011A000F38300280ED597F8380000F014001028BB
:1011B00008D17B6B7969386A5B1A1B1A9A1A002A64
:1011C000C8BF3A62BDE8F3832DE9D04306460F4617
:1011D00014464FF00008DFF8549012E0E00707D5FE
:1011E00042464B463046394600F050FC06460F4614
:1011F0004046494642464B4600F048FC6410804653
:101200008946002CEAD130463946BDE8D08300003B
:1012100002FCFFFFFFFF0F800000E03F0000F07FB7
:10122000A08601000000F03F84D7974100002440D1
:10123000F8B505460E4617461C4600205CB117F867
:10124000011BB068A847B06030B1F06A401CF06282
:101250000020641EF3D1F2BD4FF0FF30F2BD00005C
:101260006E616E004E414E00696E6600494E46004A
:10127000300030B4002513E050F8042BD30744BFEE
:10128000A9F101039A18091F042942F8045BFAD254
:1012900013468C0744BF15809B1CC90748BF1D70AF
:1012A00050F8041B0029E7D130BC70471C48704738
:1012B00070B45368D41801E05B1C491E042B08DA93
:1012C00000291FBF057804F8015B10F8016B002EA0
:1012D000F2D1536070BC704738B514461D4661B1F9
:1012E000FFF7E6FF61686A6B204690476FF00102E6
:1012F000811A02D0491E01D001E003E005E000217F
:10130000616032BD6FF0010032BD4FF0FF3032BD81
:10131000DA6B1047024BDFE7014BF9E701487047F2
:101320007C30002044300020C9B202788A421AB1D1
:101330001CBF10F8012FF9E718BF00207047B1F566
:10134000807F02D34FF0FF3070470170012070475B
:101350000078401E8041C043C00F704780B500B97F
:1013600006A005490B681BB122220021984701E025
:1013700000F0E5FC222002BD28340020636F6E736C
:10138000747261696E742068616E646C65723A2073
:10139000626164206D6573736167650000F101032C
:1013A00010F8011B11B110F8011BFBE7C01A7047C0
:1013B000C9B2830706D0521E22D310F8013B9942CE
:1013C000F7D11FE0083A13D302F1040241EA0121E8
:1013D00041EA014150F8043B121F21BF4B40A3F1E9
:1013E000013C2CEA030C1CF0803FF3D0C9B2001F73
:1013F000083210F8013B521E28BF91EA030FF8D8BB
:1014000018BF0120401E704762B38B0708D0521EE0
:1014100011F8013B00F8013B00F024808B07F6D166
:10142000830740F0208000BF103A07D330B4B1E802
:101430003810103AA0E83810F9D230BC530724BF56
:10144000B1E80810A0E8081044BF51F8043B40F888
:10145000043BD20724BF31F8022B20F8022B44BFF3
:101460000B7803707047121F17D35B0009D151F836
:10147000043B20F8023B1B0C121F20F8023BF6D263
:101480000BE051F8043B00F8013B1B0A20F8023B3B
:101490001B0C121F00F8013BF3D238BF121D521E65
:1014A00024BF11F8013B00F8013BF8D870472E002B
:1014B00010B5144600F002F8226010BDC1F30A53C3
:1014C00043B14A0012F5001F28D2A3F2FE32A1EB6D
:1014D0000251704750EA410C20D001F0004C31EA33
:1014E0000C01B1FA81F204BFB0FA80F3D2180B3AC2
:1014F000B2F120032CBF00FA03F1914041EA0C0144
:101500003EBFC2F1200C20FA0CF319439040524226
:1015100040F2FD33D21A01EB0351704700227047AD
:101520004FF4001C1CEB410F94BF1CEB430F09E070
:1015300041EA030C50EA4C0C52EA0C0C03D29942DB
:1015400008BF9042704714BF8B42824270474300ED
:101550004FF4001C1CEB410F94BF1CEB430F09E040
:1015600041EA030C50EA4C0C52EA0C0C03D28B42B9
:1015700008BF8242704714BF9942904270470000F2
:10158000124254D440F2FF7C1CEA11530FD0634541
:1015900031D09B1863453CBF01EB0251704701F00D
:1015A000004141EA0C510020AFF30080704750EA3F
:1015B000410320D001F0004C91EA0C011CD0B1FA9B
:1015C00081F30B3B9A420DD9D21A994051EA0C0192
:1015D000C3F1200C20FA0CFC61449840531C40F2EB
:1015E000FF7CD7E7914041EA0C01C2F1200C20FAC0
:1015F0000CF3194390407047B0FA80F31533202B59
:10160000E0D3202AEED3203A203B9A4209D9D21ABD
:1016100000FA03F141EA0C010020531C40F2FF7C68
:10162000B8E700FA02F141EA0C010020704752428B
:1016300040F2FF7C1CEA11530DD06345DBD0B2EBC6
:10164000030C3CBFA1EB025170470CF1010221EAEF
:10165000035141F4801150EA410CCCD001F0004C10
:10166000352A27DC30B481EA0C01B2F1200309DA13
:10167000C2F12003044601FA03F5D0402843D140CB
:101680009C400CE0C3F12002450020FA03F418BF8F
:1016900044F0010421FA03F091400C43002174F15D
:1016A000004550F1000051EB0C01244230BC7FF4A6
:1016B0007BAF70476146002076E70000C1F30A5314
:1016C00040F2FE329B1A14DDD3F120034FEAE1729F
:1016D00008DDC90241EA505141F00040D84080186D
:1016E0005040704703F2E13010B1D24382F0004025
:1016F0007047002070470000C11768B14840401A89
:10170000B0FA80F29040D21CC907C2F5846241EA67
:10171000025202EBD02140057047000070B44FF038
:10172000004591EA030F40F10D836B40841A71EB81
:10173000030603D2001BB141121973414FF4001C80
:101740001CEB410F34BF7CEB430442E00C0DA4EBD7
:101750001356352E4FDC45EAC323DB0A45EAC12187
:10176000C912B6F120050DDD63FA05F6EB4086EAF5
:101770000305124218BF45F00105C01851F10001E0
:101780000CD213E062FA06F5F2405540F3415A409C
:10179000B340F3405A408018594107D349085FEAE3
:1017A00030005FEA350528BF45F0010501F58011DD
:1017B000420875F1004250F1000041EB04514E0027
:1017C00016F5001F70BC38BF70470020090D0905D1
:1017D00070471CEB410F10D252EA43060BD0BCEB12
:1017E000410F05D80C0DAB43661E342EB6DD02E06A
:1017F000AB438018594170BC704770BC7047000003
:10180000F0B540F2FF7581EA030C0CF0004C15EACC
:1018100011541DBF15EA1357AC42AF42E5E0BC417D
:10182000C1F31301C3F31303801A994143F48013E6
:1018300004D2641E4000494180185941C90241EA5E
:101840005051B1FBF3F603FB1611A2FB0675D7EB63
:10185000C020A94102D2761E80185941C90241EA2E
:101860005051B1FBF3FE03FB1E11A2FB0E75D7EB2B
:10187000C020A94103D2AEF1010E8018594189025E
:1018800041EA9051760546EA8E2EB1FBF3F603FB52
:101890001611A2FB0675D7EB8020A94102D2761E55
:1018A00080185941C90241EA50514EEA060EB1FB77
:1018B000F3F603FB1611A2FB0675D7EBC020A94176
:1018C00002D2761E80185941C90241EA5051B1FB3B
:1018D000F3F703FB1711A2FB0735D3EBC020A94197
:1018E00067F100070CBF004247F0010766F3D527F8
:1018F0004FEA1E31B80814F5806412DDBD0775F19A
:10190000004250EB0E5051EB045111F5801F5CBFAB
:1019100041EA0C01F0BD4CF07F6141F0E041002054
:10192000F0BDBD076D0840EA0E5041F48011D4F1BE
:101930000104B4F120060ADAC4F120060200E040F6
:1019400001FA06F3E1401843B24015430EE0342C8F
:1019500013DCC6F1200445EA40056D0820FA06F2C2
:10196000154321FA06F0A1400D43002175F1004214
:1019700050F1000051EB0C01F0BD00205FEA0C01BA
:10198000F0BDCFB992185B41B3FA83F704BFB2FA46
:1019900082F6BF190B3FB7F120062FBF02FA06F3FC
:1019A000BB40C7F1200622FA06F638BF3343BA40DF
:1019B0001CB1E419641E33E77F4231F00041B1FAF3
:1019C00081F404BFB0FA80F6A4190B3CB4F12006F0
:1019D0002FBF00FA06F1A140C4F1200620FA06F656
:1019E00038BF3143A0403C1B1AE7AC421ABF05EA9E
:1019F0001357AF4212E050EA41061CBF52EA4306B9
:101A0000BFE750EA4107304661461CBF41EA055135
:101A1000F0BD52EA430C08BFC143F0BD00204FF4B3
:101A2000001616EB410F98BF16EB430F08BF16EBDD
:101A3000410F24BFC14305E016EB430F0CBF6146C5
:101A40004CEA0551F0BD0000400D491840EA8120E4
:101A50000CD2490DA1F58061491C40F0004005DB26
:101A6000D1F11F0154BFC840C01770470020704714
:101A7000014648B1B0FA80F18840C91CC1F58461C3
:101A8000090501EBD021400570470000B0B581EA9F
:101A9000030C0CF0004C40F2FF7515EA11541DBF09
:101AA00015EA1357AC42AF4239E0E41923EA455333
:101AB00043F48013C90241F0004141EA505EC7027D
:101AC0001100A7FB020200284FF00000EEFB0120EE
:101AD0004FF00001E3FB072118BF42F0010240185C
:101AE00000214941E3FB0E01A4F580640F0302D2FB
:101AF00052004041494154F101046CDD470872F144
:101B0000004250F1000051EB0451A1F580115CBF7F
:101B100041EA0C01B0BD4CEA05510020B0BD05EA18
:101B20001357AC4214BFAF4241E050EA410E1CBF14
:101B300052EA430E02E061460020B0BD24423C441C
:101B40001BD15FEA070EF6D0090302BF0146002051
:101B5000AEF1140EB1FA81F7AEEB070401FA07FEFD
:101B60000C37C7F1200100FA07F7C8404EEA000E13
:101B700023EA455343F48013A2E733F00043B3FA5A
:101B800083F704BFB2FA82FE77440B3FE41BB7F140
:101B9000200E2FBF02FA0EF3BB40C7F1200E22FA2F
:101BA0000EFE38BF43EA0E03BA40641C82E750EAD7
:101BB000410E14BF52EA430E6FF000014FF40017BC
:101BC00017EB430F8ABF194617EB410FB5E74CEAF5
:101BD00005510020B0BDD4F10104B4F120070FDAA3
:101BE000C4F12007520828BF42F0010210FA07F59D
:101BF00001FA07F7E1BF2A43E0403843E1400FE034
:101C0000352C98DCC7F1200452EA400220FA07F292
:101C100018BF42F0010231FA07F0A1400A43002147
:101C200072F1004250F1000051EB0C01B0BD80B5E3
:101C3000FFF73CFB006C02BDD3BBD9B1B2F5803FCE
:101C40005BD2022A1ED98C46B1FBF2F102FB11C312
:101C50001B0443EA1043B3FBF2FC02FB1C3380B2CB
:101C600040EA0343B3FBF2F002FB103240EA0C40BF
:101C700000237047022A05D98446B0FBF2F002FB2C
:101C800010C270474AB105D100F0010249085FEA6D
:101C90003000704700220023704700F009B90B00A4
:101CA0000200002100207047F7D300220023704774
:101CB000904271EB030CF2D370B5B1FA81F4B3FA30
:101CC00083F52C1BA340C4F1200532FA05F63343FB
:101CD000A2405FF00046E64002E05B085FEA3202A5
:101CE000841A71EB030524BF204629467641F4D3BC
:101CF00002000B003000002170BD70B5B1FA81F414
:101D0000B2FA82F5C4F120046419B4F12006DAD3E2
:101D1000B2405FF00044F440002502E052085FEA60
:101D20003303C61A71EB020E24BF3046714664417C
:101D30006D41F3D302000B002000290070BD01208B
:101D400000F0B8B8841A71EB030604D26E40001B91
:101D5000B141121973414FF4001C1CEB410F34BF09
:101D60007CEB430683E00C0DA4EB1356362E00F3F8
:101D70007C80012E45EAC32341DC43EA525312BF63
:101D8000D20292025B08240545EAC12141EA505182
:101D9000D2EBC020994125D407D1B0FA80F610FAD1
:101DA00006F162D00020203608E0B1FA81F6B14099
:101DB000C6F1200220FA02F21143B0404FEAF47457
:101DC000B4EB465434F001064FEA74040AD8D6F551
:101DD0000016760D04F00044F04061FA06F250401F
:101DE000F1404840C00A40EA415021F0004128BF7C
:101DF0005FEA500550F1000044EBD12135E0DB0AE9
:101E000045EAC121C90AB6F120050EDD42EA0242C7
:101E1000120CC5F1200603FA06F6EB4042EA06056D
:101E20006D42984161F100010DE062FA06F5F24061
:101E3000554063FA06FC82EA0C02F3405A406D42B8
:101E4000904161EB030111F4801F05D1641E62050E
:101E500002D06D004041494121F48011430875F1E1
:101E6000004350F1000041EB045170BC70471CEB83
:101E7000410F15D223F0004352EA43060BD04FEA3C
:101E80004C0CBCEB410F04D80C0D661E342EB7DD94
:101E9000EBE7801A994150EA410608BF0021E4E7C8
:101EA00008BF1CEB430F28BF6FF00001DDE7000007
:101EB0007047000080B5AFF30080024A110018207F
:101EC000ABBEFBE72600020038B5040001D10120BB
:101ED00032BD04F17805686808B900F017F800F021
:101EE0001AF808B100F031F800F02CF8012804D0FD
:101EF00000F004F821F02A0116E032BD20684168A4
:101F000021F4904141602068816870470021297068
:101F1000204600F07CBD24206860206801684908E4
:101F200049000160606A7047816000F004F8BDE814
:101F3000324000F05CBB2068016841F001010160A3
:101F400020467047204600F0DBB9204600F0ECBA8E
:101F50002DE9F843054605F150060C46F06A2028A5
:101F6000174699463ED10CB1380001D101203AE024
:101F7000002070632121F16200F00CFE3780804662
:101F80007780A868B0F5805F04BF286900281ABF71
:101F9000204600272746044611E00022802100F059
:101FA00024F8D8B92868002C12BF14F8011B37F8A0
:101FB000021BC1F3080101857088411E71804346F0
:101FC0007088CDF800900028E7D10022402100F071
:101FD0000CF818B92020F062002004E02020F06204
:101FE000032000E00220BDE8F283284600F048BB51
:101FF00038B50346D3F8800020280AD109B1100073
:1020000001D1012032BD00F006F8BDE8384000F0F3
:1020100078BB022032BD00201866DFF8E042186865
:10202000A0420CD04068040209D5186850E8004F5F
:10203000054644F0806445E800400028F5D1184684
:102040007047286800F1080151E8001F490800F1B5
:102050000803490043E800100028704743E80020C7
:1020600000287047F8B5054640F60F002B68D9697F
:102070001A689E68084005F158040BD1880600D5FF
:10208000970640F17C802169002977D02846BDE879
:10209000F4400847F00703D4DFF888743A426ED062
:1020A000C80707D5D70505D501201862E36A43F0B4
:1020B0000103E362880708D5F30706D52F680220DD
:1020C0003862E06A40F00400E062480708D5F30790
:1020D00006D52F6804203862E06A40F00200E06212
:1020E00008070AD5930601D4F00706D52E68082301
:1020F0003362E06A40F00800E062080509D5530148
:1021000007D52E684FF400603062E06A40F020008E
:10211000E062E06A002831D0880605D5910603D533
:10212000216909B128468847E06A29688A6851060A
:1021300002D410F0280F1CD000F0E1FA2868816862
:10214000480611D500F0C6F8FCD1E06960B10FF285
:10215000D1618163E06900F0DDFD00280ED0E06907
:10216000816BBDE8F44008472846BDE8F24000F026
:102170006EBE284600F06BFE0020E062F1BDA06854
:10218000012876D1C80674D5D70672D510201862FA
:1021900029688868410637D5E1690868406880B2D7
:1021A0000028EBD022889042E8DA60800868016855
:1021B0008A0623D400F09CF821F4807100F05CFAC8
:1021C000F8D1FFF73EFFFCD1286800F1080151E883
:1021D000001F00F1080321F0400100F077F8F3D16F
:1021E0002020A0620021A16000F082F821F01001FF
:1021F00000F042FAF8D1E06900F069FD0220E060E9
:1022000021886088091A2EE0228861886088511A26
:1022100000281CBF88B2002855D0286850E8002F3D
:10222000034622F49072FFF719FFF6D1286800F1F7
:10223000080252E8002F520800F10806520046E852
:1022400000200028F2D12020A0620022A26022619A
:102250002A6852E8002F2B6822F01002FFF7FEFEDA
:10226000F6D10220E0602846BDE8F44089B200F0D3
:10227000EFBDC80209D5760207D54FF48010186269
:102280002846BDE8F24000F0E4BD080607D5130675
:1022900005D56169B9B12846BDE8F440084748064C
:1022A00011D551060FD500F023F821F0400100F0C0
:1022B000E3F9F8D120206062002161612846BDE881
:1022C000F24000F04DBFF1BD21F0800143E8001065
:1022D00000287047296801F1080252E8001F2868A9
:1022E00000F1080321F0400143E800100028704786
:1022F000286850E8001F0246704700000080004038
:10230000F8B50446DFF85C062268DFF85C761368EF
:10231000A168034020690B4361690343E0690B43F3
:102320000343136000255168E06821F440510143E4
:102330005160A369DFF828168A421CBF206A034354
:102340009668DFF8280626F4306633439360BA4275
:102350004FF40043DFF8186632D1366806F0030602
:10236000032E3BD8DFE806F0027161840127E169A2
:10237000B1F5004F4FF6F07640F0AB805FB1012F22
:1023800000F09F80022F0AD0042F00F09D80082FBC
:1023900000F09D80BFE001F054FB00280FD0616881
:1023A0004A0802EB4002B2FBF1F0A0F11001B14289
:1023B000F0D20640C0F3420006432068C660ABE09E
:1023C000DFF8B075BA4221D1366816F00C0660D03D
:1023D000042E3AD0082E28D00C2E49D010278A423D
:1023E000C5D137B1022F08D0042F54D0082F55D0B3
:1023F00091E001F026FB0028E1D0626802EB420187
:10240000884202D3130383424AD284E0DFF868751E
:10241000BA420CD1366816F030063AD0102E14D0DD
:10242000202E02D0302E23D0D8E70227D7E7DFF8BE
:102430004C75BA420BD1366816F0C00629D0402E32
:1024400003D0802EF1D0C02EEDE70427C7E7DFF8D8
:102450003075BA420ED1366816F4407619D0B6F50A
:10246000807FF2D0B6F5007FDFD0B6F5407FB5D1E2
:102470000827B4E78A42B1D1366816F4406608D01E
:10248000B6F5806FE1D0B6F5006FCED0B6F5406FEF
:10249000C9E70027A3E701F08BFAACE71846ACE7E1
:1024A000010E560816EB002069410023FFF7C4FB1C
:1024B000A0F54071DFF8CC2491422CD22168C8608D
:1024C0002AE001F0C6FA68E701F072FA65E71846FB
:1024D00065E747B1012F16D0022F07D0042F15D082
:1024E000082F16D017E001F0ACFAA8B1616800EB34
:1024F0005100B0FBF1F0A0F11001B1420BD2226803
:1025000080B2D06008E001F0A4FAEEE701F050FAE2
:10251000EBE71846EAE701250020A066E0662846BA
:10252000F2BD00002001000490F824100A0706D52F
:1025300002685368416B23F400430B43536090F8E7
:102540002410CA0706D502685368816A23F4003351
:102550000B43536090F824108A0706D5026853682D
:10256000C16A23F480330B43536090F824104A0768
:1025700006D502685368016B23F480230B43536034
:1025800090F82410CA0606D502689368816B23F47C
:1025900080530B43936090F824108A0606D5026896
:1025A0009368C16B23F400530B43936090F824109D
:1025B0004A0610D502685368016C23F480130B435C
:1025C0005360036CB3F5801F05D15368416C23F44D
:1025D000C0030B43536090F824100A0606D5016827
:1025E0004A68806C22F4002202434A607047F8B5C2
:1025F000054605F178040020E0606FF07E4700F0AA
:10260000C9FA0646286801680A0711D500973346BB
:1026100000224FF40011FFF7E8FC48B1FFF768FE15
:1026200021F0800100F028F8F8D12020606015E04A
:10263000286801684A0715D50097334600224FF4F1
:102640008001FFF7D2FC68B1FFF752FE00F012F8EC
:10265000FAD1FFF7F6FCFCD12020A0600021217008
:102660000320F2BD20206060A0600020286668661C
:102670002070F2BD21F4907142E8001000287047EC
:102680002DE9F041069C05460E4690461F462868F7
:10269000C1693140B1420CBF0120002040452BD11F
:1026A00014F1010FF3D000F075FAC01B844200D37F
:1026B00014B90320BDE8F081286801684A07E6D50F
:1026C000C1690A070DD4C1690A05E0D54FF400615C
:1026D00000F014F805F178002021C160002202709A
:1026E000E7E7082100F00AF805F178000821C16049
:1026F000002202700120DDE70020DBE701622846AE
:1027000059E020B503460020596503F158010A80BD
:102710004A800861FF229868B0F5805F04D118698B
:1027200090B940F2FF120FE018B9186960B17F202C
:1027300007E0B0F1805F06D1186908B97F2203E095
:102740003F20888001E000228A800020C862222287
:102750008A62186800F1080252E8002F00F10805AB
:1027600042F0010245E800200028F2D19868B0F557
:10277000805F04BF186900280DD10FF205120A61AD
:10278000186850E8001F024641F02001FFF774FF6F
:10279000F6D1002020BD0FF299020A6118690028C5
:1027A000EED0196851E8001F1A6841F49071FFF7E4
:1027B00063FFF6D1EDE710B500F00EF8FCD100F0A4
:1027C00015F8FCD1016E00F01EF82021C0F8801031
:1027D00000220266826610BD016851E8002F0B4698
:1027E00022F4907243E8002100297047016801F14A
:1027F000080252E8002F520801F10804520044E890
:10280000002100297047012909D1026852E8002FF0
:10281000036822F0100243E800210029F5D1704737
:10282000806A00F1520100220A810A8000F00FBB89
:1028300038B500F04DF81ED18B8C9188446D0B405B
:102840002370416D4B1C00F049F818D100F04DF891
:1028500000F060F8FCD100F06AF80BD1002393601F
:1028600000F04EF8FCD10168CB69DC0644BF1023B0
:102870000B6289E08DE0088B40F00800088331BDD1
:1028800038B500F025F81ED18B8C9188446D0B4033
:102890002380416D8B1C00F021F818D100F025F841
:1028A00000F038F8FCD100F042F80BD1002393601F
:1028B00000F026F8FCD10168CB69DC0644BF102388
:1028C0000B6261E065E0088B40F00800088331BDD1
:1028D00000F158020168936A222B704743655188C2
:1028E0004B1E5380518800297047036853E8003F0E
:1028F000046823F4907344E800310029F5D170474F
:10290000016851E8003F0C4623F0100344E8003111
:1029100000297047016801F1080353E8003F5B0894
:1029200001F108055B0045E80031002970472021CE
:10293000916200231361D3600168094B99420CD066
:1029400049680B0209D5016851E8003F0C4623F0A5
:10295000806344E800310029F5D19168012970476E
:1029600000800040F369FFEF003801400024F400CC
:10297000881002400044004000480040004C0040E5
:102980000050004000FD0F001188BDE8344000F009
:102990005FBABDE8324000F0E7BB000080B5744884
:1029A000744901604FF4165200230C214260836089
:1029B000C36003614161836103624362FFF784FA8C
:1029C00000B108E001BD80B56B486C4900F00FF81C
:1029D00000B100E001BDBDE8014000F0F3BC80B5EE
:1029E0006748684900F003F800B1F4E701BD0160F1
:1029F0004FF4165200230C2142608360C3600361D0
:102A000041618361C36103624362FFF75DBA30B520
:102A1000A9B0044614220021684601F081F88C22F6
:102A2000002106A801F07CF820685249564D8842E2
:102A300034D120224FF400610692199106A801F0CA
:102A400079F808B100F0BEFC286940F00100286167
:102A5000286900F0010005900598296841F04001BF
:102A600029602A6802F040020592059801F046FBB1
:102A70004FF4C071009102220021029101920821BD
:102A80000322049103926946404801F04FFB002263
:102A90000021462001F062FC462040E037493C4CD2
:102AA00088421CD1022200210692159106A801F04D
:102AB00041F808B100F086FCE86840F40030E860B6
:102AC000E86800F4003000F02EF8602100F032F8E1
:102AD00000220021262001F041FC26201FE0294988
:102AE00088421ED1042200210692169106A801F008
:102AF00021F808B100F066FCE86840F48020E86046
:102B0000E86800F4802000F00EF84FF4407100F007
:102B100011F800220021272001F020FC272001F0DD
:102B20003BFC29B030BD05900598296841F00801AB
:102B3000296070472A6802F008020592022205986F
:102B40000091019200210291032207210491039236
:102B50006946204601F0EABA01B54FF6FF7301223B
:102B600069460348FFF7F4F9009802BD0000000031
:102B70000C310020008000409431002000440040CF
:102B80001C320020004800404C1002400018004851
:102B9000000C004801484068704700BF34300020F6
:102BA000F0B508B90120F0BD0568274E274CB542A5
:102BB00000F1240308D226494A191427B2FBF7F280
:102BC00092001A62DC6108E022494A191426B2FB1D
:102BD000F6F2920020491A62D96102225A702E68D8
:102BE0008168C2686FF30E160E430169164342698D
:102BF0000E4381691643C2690E43016A16430E43B0
:102C00002E608268B2F5804F17D0DA690F21A24298
:102C10000CBF124A124A146893F8205005F01C05A4
:102C2000A94024EA01011160116893F8204040682E
:102C300004F01C04A04001431160002098610121B0
:102C400059701870F0BD00000804024000000240F6
:102C5000F8FFFDBFF8FBFDBF00040240A8000240E2
:102C6000A8040240F8B5044604F124060025307893
:102C7000012801D10220F2BD012030707778012FA8
:102C800021D102207070B561206807687F087F003D
:102C90000760204600F0C7F82168F06820B10A6894
:102CA00042F00E020A6008E0086820F004000860A4
:102CB0002068016841F00A0101602068016841F064
:102CC0000101016001E0357002252846F2BD00F1E6
:102CD00024014A78022A05D00420886100220A7063
:102CE000012070470268136823F00E031360006828
:102CF0000268520852000260012091F82020CB693E
:102D000002F01C02904058600022012048700A70B6
:102D10000020704738B500F1240100244A78022AC7
:102D200003D004208861012417E00268136823F0AF
:102D30000E031360026815686D086D0015600122AE
:102D400091F82030CD6903F01C039A406A6001229B
:102D50004A700C70496901B18847204632BDF8B508
:102D600000F124010423CA6914680268156891F807
:102D7000206006F01C0603FA06F73C4210D06F07ED
:102D80000ED51468A50603D4146824F00404146056
:102D900000F03AF8C968002935D0BDE8F44008478A
:102DA000022303FA06F73C4213D0AF0711D514688B
:102DB000A50605D4146824F00A04146001224A70A0
:102DC00000F022F800220A708968E1B1BDE8F44001
:102DD0000847082303FA06F6344214D02B0712D50D
:102DE000146824F00E041460012200F015F89A40D3
:102DF000626001228A614A7000220A70096911B179
:102E0000BDE8F4400847F1BD91F82020CC6902F0FC
:102E10001C0293406360704791F82030CC6903F046
:102E20001C037047000070B590F84450066C0124F4
:102E300005F01C05AC40746004686360806810286D
:102E400002D1A260E16070BDA160E26070BD704718
:102E5000704770472DE9F84FDFF83C45DFF83C85B7
:102E6000DFF83C95A520A07201F0C2FA00F037F916
:102E700000F031F900F02FF900F02DF901F0C8FA57
:102E800001F04CFBFFF78AFD01F060FB01F062FCF2
:102E9000FFF799FDFFF7A3FD00F07DF900F059FA67
:102EA00000F0E4F97F21DFF8FC0401F0C5FCDFF855
:102EB000F80401F088FD00F0D9F900F001F900F004
:102EC00004F9012200F0EDF80A2001F07FFF05224D
:102ED000DFF8D8144846FFF78BF843F23000271884
:102EE00000F0E8F843F210002518E868FEF756FAFB
:102EF00082B2E96800F0DAF800F0DCF800F0DAF805
:102F00002869FEF74BFA82B2296900F0CFF800F089
:102F1000D1F89EE00C2204F1100142438B5800EBE3
:102F2000400204EB82019E194A698969401CB0F590
:102F3000806F93448A44EDDB00F0C2F800224FF426
:102F40008041404601F0D6F906EB46164FF420408A
:102F500096FBF0F028604FF420410BEB4B1090FBF8
:102F6000F1F169604FF420400AEB4A1191FBF0F057
:102F7000A86029680FF2504001F03CFF69680FF229
:102F8000544001F037FFA9680FF2544001F032FFBE
:102F90006A684FF47A71B2FBF1F14FF47A7000FB7A
:102FA0001122A2816423A28992FBF3F3642000FB27
:102FB000132262714FF00A0C627992FBFCFC0A202A
:102FC00000FB1C22E271303130332171A3710CF10E
:102FD00030022272217063700A23E079303060720F
:102FE000A270394603224846FEF7B2FF6869FEF731
:102FF000D5F982B2696900F059F80A230322214603
:103000004846FEF7A5FF00F055F8322001F0DEFE3D
:1030100000F050F8E869FEF7C1F982B2E96900F002
:1030200045F800F047F8322001F0D0FE00F042F8F9
:10303000A869FEF7B3F982B2A96900F037F800F089
:1030400039F8002200F03DF800F03FF8642001F06C
:10305000BDFE00F020F8012809D10A2001F0B6FEDB
:1030600000F019F8012802D1A07AC043A072A07A1A
:103070005A2814BF0122002200F013F84FF44062D6
:1030800004F11001DFF81C0301F0C4FF0026B34671
:10309000B24600203EE74FF40051DFF8140301F080
:1030A00023B91021DFF80C0301F024B90A234846A4
:1030B000FEF74EBF0A23032239464846FEF748BFB3
:1030C00001228021404601F015B901224FF48041D0
:1030D000404601F00FB94FF47A7001F077BE80B529
:1030E00096B04422002105A800F01AFD1422002108
:1030F000684600F015FD4FF4007000F0D1FF08B1F4
:1031000000F060F94FF480710891402201210B9189
:10311000099260210D91002201210C9210911191D0
:1031200012200590022228210F92129113921492DC
:10313000159205A800F05AF908B172B6FEE70F2003
:103140000321009001910022029203920492042133
:10315000684600F095FB08B172B6FEE717B000BDF7
:10316000954901200870704710B59048416B027D69
:103170004254491C43181A1FD478FF2C02BF1278FE
:103180000A2A0021416300F11401BDE81040012228
:103190008A48FEF72DBF00B585B0A02100F00DF8DC
:1031A0004FF0904000F0C2FF4FF4804100F005F86E
:1031B000834800F0BBFF05B000BD00910122002153
:1031C00002910391019269467047F8B504460D4695
:1031D0007B4F00F045F800F099F800F047F814B183
:1031E000012C02D00EE0182600E0192600F038F875
:1031F00000F03CF800224FF48041384601F07AF8A4
:1032000000F034F8082430064CBF0122002200F000
:1032100089F800F02BF800F08AF800F027F800F0A9
:1032200025F800F073F800F021F87600641EEAD16A
:10323000102428044CBF0122002200F073F800F093
:1032400015F800F074F800F011F800F00FF800F035
:103250005DF800F00BF86D00641EEAD138464EE0D0
:1032600001224FF48041384601F044B8012001F0BA
:10327000ADBDF8B504460F461646514D00F04CF86A
:1032800000F044F8FFF7F2FF012C0BD800F044F8EF
:10329000FFF7ECFF00224FF48041284601F02AF8A6
:1032A000FFF7E4FF082438064CBF0122002200F09B
:1032B00039F8FFF7DBFF00F03AF8FFF7D7FFFFF729
:1032C000D5FF00F023F8FFF7D1FF7F00641EEAD19D
:1032D000102430044CBF0122002200F023F8FFF735
:1032E000C5FF00F024F8FFF7C1FFFFF7BFFF00F0B4
:1032F0000DF8FFF7BBFF7600641EEAD12846BDE853
:10330000F84001224FF4804100F0F4BF0022202158
:103310004FF0904000F0EEBF01224FF4804128466C
:1033200000F0E8BF80214FF0904000F0E3BF0122A1
:1033300020214FF0904000F0DDBF10B54AF2D334A9
:1033400021460120FFF741FF2146BDE81040002043
:103350003BE780B501223F210020FFF78AFF0122D1
:103360003F210120FFF785FF032220210020FFF7E6
:1033700080FF032220210120FFF77BFF0322302161
:103380000020FFF776FF032230210120FFF771FFB5
:10339000BDE80140D1E70000000000200004004823
:1033A00094310020A43200205C330020F033002050
:1033B00000080048001000482C3400200C31002088
:1033C000000C004872B6FEE764617461303A202553
:1033D0006400000064617461313A202564000000DB
:1033E00064617461323A2025640000002DE9FC47D5
:1033F000050065D0DFF8E876DFF8F466BC68F868A9
:1034000000F003082878C10604F00C0448D524B164
:103410000C2C08BFB8F1010F2CD13868810702D5F8
:10342000A86900284CD0396808074EBF3968716810
:103430000909286A01F0F001814206D200F015FB6B
:1034400000283DD100F004FA07E000F001FA24B9A9
:10345000286A00F00AFB002832D100F0A9FABA6805
:1034600000F09CFADFF88006006802F00DF9010018
:1034700016D0E7E1A86928B3396841F00101396045
:10348000FFF788FB81463868810707D4FFF782FB86
:10349000A0EB09000328F6D30320D3E100F0D8F90C
:1034A0002878C10755D5082C04D00C2C08BFB8F1DA
:1034B000030F17D1386881034BD56868002848D1BD
:1034C0000120BFE138684008400000F0D6F981468D
:1034D00038688107E4D5FFF75DFBA0EB09000328FE
:1034E000F6D3D9E76868B0F5803F04D1386840F476
:1034F0008030386011E0B0F5A02F386806D140F474
:1035000080203860396841F4803105E020F4803053
:103510003860396821F480213960686860B1FFF74C
:1035200039FB81463868810313D4FFF733FBA0EBE6
:1035300009006528F6D3AFE7FFF72CFB8146386812
:10354000810306D5FFF726FBA0EB09006528F6D31B
:10355000A2E72878810713D5042C04D00C2C08BFCF
:10356000B8F1020F22D13868410502D5E868002879
:10357000A6D07868296920F0FE4040EA01607860B2
:103580002878010742D56869002870682FD040F07C
:1035900001007060FFF7FEFA80467068810735D43D
:1035A000FFF7F8FA00F050F9F7D375E7E86878B15B
:1035B000396841F480713960FFF7ECFA8046386869
:1035C0004105D6D4FFF7E6FA00F03EF9F7D363E7FA
:1035D000386820F4807000F050F980463868410562
:1035E000CED5FFF7D7FA00F02FF9F7D354E740080C
:1035F00040007060FFF7CEFA80467068810705D5FD
:10360000FFF7C8FA00F020F9F7D345E7287841071B
:1036100067D5B86DC1004FF000080AD4B86D40F00E
:103620008050B8654FF00108B86D00F080500090F0
:103630000098DFF8C094D9F80000C10513D4D9F878
:10364000000040F48070C9F80000FFF7A3FA82463A
:10365000D9F80000C10506D4FFF79CFAA0EB0A00D8
:103660000328F5D318E7A868012804D1306840F092
:103670000100306010E00528306806D140F00400F9
:103680003060316841F0010105E0400840003060E1
:10369000316821F004013160A86841F2893960B1D4
:1036A000FFF778FA82463068810713D4FFF772FA81
:1036B000A0EB0A004845F6D3EEE6FFF76BFA824628
:1036C0003068810706D5FFF765FAA0EB0A00484588
:1036D000F6D3E1E6B8F1000F03D0B86D20F08050CA
:1036E000B8652878810621D5686A0028B0680ED0B0
:1036F00040F00100B060FFF74DFA8046B0688107E6
:1037000014D4FFF747FA00F09FF8F7D3C4E6400857
:103710004000B060FFF73EFA8046B068810705D5EB
:10372000FFF738FA00F090F8F7D3B5E6A86A00285A
:1037300000F08780022870D1F868EA6A00F003017F
:10374000914201BF00F070012A6B521EB1EB021FC3
:103750001BD16A6B00F4FE41B1EB022F02BF00F0F7
:103760007841AA6BB1EBC26F0FD1EA6B520800F43B
:10377000C001521EB1EB425F07D1296C490800F02D
:10378000C060491EB0EB416F43D00C2C46D0386866
:10379000410101D43868C1003FF592AE00F06AF8EB
:1037A00004463868810105D5FFF7F4F9001B0328AA
:1037B000F7D371E6F868DFF84013EA6A0840296B2E
:1037C0001043491E40EA0110EA6B696B520840EA57
:1037D0000120296C521E490840EA4250491E40EA25
:1037E0004160A96B40EAC160F860386840F08070C1
:1037F0003860F96841F08071F960FFF7CBF9044651
:10380000386881011DD4FFF7C5F9001B0328F7D3E1
:1038100042E63868810114D4E7E70C2C3FF450AE3F
:1038200000F028F804463868810105D5FFF7B2F9A1
:10383000001B0328F7D32FE6F868DFF8C012084012
:10384000F8600020BDE8F687A0EB08000328704769
:10385000386840F0080038603968286A21F0F001C3
:10386000014339607968E86921F47F4141EA002128
:1038700079607047386820F080703860FFF78AB947
:103880002DE9F0410400884655D0DFF874623068B5
:1038900000F00700404502D200F06FF84BD12078CD
:1038A000DFF83C52810706D5A068A96801F0F00155
:1038B000814200F06CF82078C1072AD5606803289F
:1038C00002D129688A0108E0022802D129688A0306
:1038D00003E00028296802D18A0702D42BE04A05B8
:1038E00029D5A968890840EA8100A860FFF752F944
:1038F0000746A868616800F00C00B0EB810F08D0A3
:10390000FFF748F9C01B41F289318842F1D3032007
:1039100031E02078810706D5A068A96801F0F001A0
:10392000884200F034F8306800F00700804504D287
:1039300000F023F801D001201DE02078410705D5D3
:10394000AA68E06822F4E0620243AA6021780807CE
:1039500006D5A968206921F4605141EAC001A96037
:1039600000F026F8AA6800F019F8BDE8F0415E48BA
:10397000006801F089BEBDE8F0813168C90848EAF5
:10398000C1013160306800F007004045704704D243
:10399000A96821F0F0010843A86070475949C2F3B3
:1039A0000312895C4F4A01F01F01C8401060704744
:1039B00070B54B4A554B9068D6680025002110F031
:1039C0000C0006F00306524C03D00C2812D1012E35
:1039D0001AD115682E0704D4444D2E68C6F303256A
:1039E00002E01568C5F303154A4E56F8255048B94C
:1039F000294624E0042808BF214620D008281ED1EB
:103A000019461CE00C281AD1D06800F003000228E7
:103A100003D0032808BF1D4600E02546D168D068C2
:103A2000D268C0F306204543C1F30210C2F34161DE
:103A3000401C491CB5FBF0F04900B0FBF1F1084611
:103A400070BD2848304A006813683349C3F3022226
:103A500006E024482C4A006813682F49C3F3C222A9
:103A6000895C01F01F01C84070477CB52B4E0546AC
:103A700030680024C10002D500F00CFB0EE0306875
:103A800040F080503060316801F080510091009822
:103A900000F000FB316821F080513160B0F5007F0B
:103AA00004D1802D0CD9A12D09D304E0802D88BF2D
:103AB000032405D801D1022402E0702D00D1012495
:103AC0000F480168C90844EAC1010160006800F0BC
:103AD0000700A04201D0012076BD002076BD000085
:103AE00000100240403000203C3000209410024082
:103AF00090100240007000408C809D01FCFFEEFEA3
:103B000000200240945900080810024000127A0078
:103B10000024F400E85800084C5A000858100240ED
:103B200010B5044610460A460146204601F0CEFD77
:103B3000204610BD2DE9F84F064600253068DFF815
:103B40004C730105A84621D5B06E70B1B0F5800F59
:103B500017D0B0F5000F03D0B0F5400F09D013E037
:103B60003A6842F480323A6004E0002100F08BF9B8
:103B7000054655B9F96FB06E21F440010143F9676C
:103B800004E000F07AF9F3E70125A8463068C104A3
:103B900021D5F06EA8B1B0F1807F17D0B0F1007FD1
:103BA00003D0B0F1407F04D013E0396841F4803194
:103BB00039607DB9F96FF06E21F040710143F9670A
:103BC00009E0002100F05FF90546F2E700F055F941
:103BD000FAE70125A8463068DFF8B44281032ED504
:103BE000F86CC1004FF000090AD4F86C40F0805026
:103BF000F8644FF00109F86C00F0805000900098D4
:103C0000DFF890A2DAF8000040F48070CAF80000F3
:103C1000FEF7C0FF8346DAF80000C10500F18B8093
:103C2000FEF7B8FFA0EB0B000328F4D30325A8464A
:103C3000B9F1000F03D0F86C20F08050F8643078B0
:103C4000C10705D5FA6FB06B920840EA8202FA67A5
:103C50003178880705D5F96FF06B21F00C0101432D
:103C6000F9673178480705D5F96F306C21F03001DC
:103C70000143F9673178080705D5F96F706C21F0B9
:103C8000C0010143F9673178C80605D5F96FB06CFA
:103C900021F440710143F9673178880605D5F96F41
:103CA000F06C21F440610143F9673168880505D55E
:103CB000F96F306E21F440210143F96731684805FE
:103CC00005D5F96F706E21F440110143F967317821
:103CD000480605D5F96F306D21F440510143F9676D
:103CE0003178080605D5F96F706D21F44041014324
:103CF000F9673168C80505D5F96FB06D21F4403119
:103D00000143F9673168C80205D5E168F06D89089B
:103D100040EA8101E1603168880446D5F96F306F6F
:103D200021F040610143F967306FB0F1006F34D189
:103D300000F09EF839E0002D7FF479AF206810F490
:103D4000407006F184051CBF696888420BD020686A
:103D5000216841F48031216020F44070226822F40F
:103D6000803222602060C00710D5FEF713FF824624
:103D7000206881070AD4FEF70DFFA0EB0A0041F28C
:103D800089318842F4D34FF0030851E7216868680D
:103D900021F44071014321604AE7B0F1806F04D102
:103DA00000F070F8010018BF80463068010314D598
:103DB000FA6F706F22F040620243FA67706FB0F1E1
:103DC000006F02D100F054F807E0B0F1806F04D129
:103DD00000F058F8010018BF80463068410314D540
:103DE000FA6FB06F22F040620243FA67B06FB0F131
:103DF000006F02D100F03CF807E0B0F1806F04D111
:103E000000F040F8010018BF80463068410418D522
:103E1000FA6FF06F22F040520243FA67F06FB0F190
:103E2000805F03D1022100F02EF807E0B0F1005FBF
:103E300007D1022106F1200000F0A1F8010018BF0F
:103E400080463068010406D5FA6FD6F8800022F06B
:103E500080420243FA673168C80306D5F96FD6F885
:103E6000840021F000410143F9674046BDE8F28F2C
:103E7000386840F4801038607047002106F1200057
:103E800000F07DB80121301D00F006B80C10024092
:103E900090100240007000402DE9F0410546794F36
:103EA00028680C46F968002611F0030F0DD0F96858
:103EB00001F00301814231D180B3F8686968C0F331
:103EC0000210401C88420ED028E0012804D025D3DF
:103ED00003281DD018D321E03A6891071ED5FA684F
:103EE000696800F0C3F8386820F0806000F0C6F818
:103EF00080463868010113D5FEF74CFEA0EB0800A0
:103F00000328F6D3032637E039684A05E7D405E0ED
:103F100039688A03E3D439684A03E0D401262BE0E8
:103F2000A9682CB93A695848EB6800F08FF80FE09F
:103F3000012C3A6909D12B69544802405B0842EAD6
:103F400001215B1E41EA435102E06B6900F084F8F5
:103F50003961386840F0806000F090F804463868B5
:103F6000010105D4FEF716FE001B0328F7D3C9E7AD
:103F70003869A969084338613046BDE8F0812DE908
:103F8000F04106463F4F30680C46F968002511F0B5
:103F9000030F0DD0F96801F00301814231D180B3E4
:103FA000F8687168C0F30210401C88420ED028E007
:103FB000012804D025D303281DD018D321E03A6866
:103FC00091071ED5FA68716800F050F8386820F043
:103FD000805000F053F880463868810013D5FEF712
:103FE000D9FDA0EB08000328F6D303252BE03968A0
:103FF0004A05E7D405E039688A03E3D439684A03FF
:10400000E0D401251FE0B1687A69002C04D11E4874
:10401000F36800F01BF802E0336900F01DF87961E5
:10402000386840F0805000F029F804463868810074
:1040300005D4FEF7AFFD001B0328F7D3D5E7786959
:104040007169084378612846BDE8F081024042EA80
:10405000012141EAC36170470D4802405B0842EA12
:1040600001215B1E41EA43617047000022F07302A8
:104070001043491E40EA0110F86070473860FEF7AF
:1040800089BD000000100240FF80FF07FF809FFFF6
:10409000FF80FFF9DFF88400006800F4C06070471B
:1040A00010B5DFF87810B0F5007F086800F4C06044
:1040B00019D1B0F5007F1FD00868DFF86420DFF861
:1040C000644020F4C06040F4007000F01EF800E08E
:1040D000401E4A69530501D50028F9D148694105B8
:1040E0000AD5032010BDB0F5806F05D0086820F414
:1040F000C06040F480600860002010BDDFF8280038
:10410000016841F400710160704708603220136853
:104110004343B3FBF4F0401C7047000000700040C4
:104120004030002040420F00047000402DE9F84F5D
:104130000027734A734B4FF00F0805460E4634E0D4
:10414000714CA54214BF082407248C406F4944EAEF
:104150000E0441F82C40C143946801EA040C7468D1
:10416000E40248BF40EA0C0CC2F808C0D46801EA77
:10417000040C7468A40248BF40EA0C0CC2F80CC0DE
:10418000546801EA040C7468A40348BF40EA0C0CAC
:10419000C2F804C0146801EA040C7168C90348BF7E
:1041A00040EA0C0CC2F800C07F1C316831FA07F0FD
:1041B00000F098800124BC4014EA0100F4D04FEADA
:1041C000470C032101FA0CF16FEA010E716801F04E
:1041D0000309B9F1010F1CBF01F00301022912D13B
:1041E000A968D6F80C900EEA010109FA0CF949EA1F
:1041F0000101A960696821EA04047168C1F3001132
:10420000B9400C436C60B900347904F00304032C0A
:1042100021D0EC68D6F808900EEA040409FA0CF9EB
:1042200049EA0404EC60347904F00304022C12D14E
:10423000FC0805EB840401F01C09D4F820A008FA5E
:1042400009FB2AEA0B0AD6F810B00BFA09F949EA79
:104250000A09C4F820902C680EEA040E347904F0A0
:10426000030404FA0CF444EA0E042C60746814F499
:10427000403F99D01C6844F001041C604FEA970C41
:104280001C6804F00104009401F00C01009C1F4C18
:1042900054F82C4008FA01FE24EA0E0EB5F1904FB6
:1042A00008BF00241DD01A4CA54208BF012418D015
:1042B000184CA54208BF022413D0174CA54208BFD2
:1042C00003240ED0154CA54208BF042409D0144C79
:1042D000A54208BF052404D0124CA5427FF430AF9C
:1042E000062432E7BDE8F18F0069084018BF0120BD
:1042F000C0B270470AB181617047816270470000A7
:104300000004014060100240001C00480800014009
:104310000004004800080048000C00480010004855
:1043200000140048001800480901020002D42A487D
:1043300081547047294B02F00F021A4402F8041C02
:104340007047274B19684FF6FF020002114000F436
:10435000E0600843234908431860704770B5204B5C
:104360001C68C4F302230124C3F10705052D2EBFE9
:104370000F2504FA05F56D1E1E1D072E34BF002300
:10438000DB1E2940994004FA03F3BDE870405B1E30
:104390001A401143C8E70000010007D4012200F0D1
:1043A0001F01114B8A40400943F82020704710B587
:1043B000401EB0F1807F01D3012010BD0B4C606026
:1043C0000F214FF0FF30FFF7AFFF0021A160072062
:1043D0002060002010BD000000E400E018ED00E0C7
:1043E0000CED00E00000FA0500E100E010E000E064
:1043F000032010B5FFF7A5FF0F2001F045F90024B9
:10440000002814BF012401F095F9204610BD0000DA
:1044100038B586B0142200216846FFF781FB364884
:10442000364D0168364C41F004010160026802F02B
:10443000040205920599026842F080020260036856
:1044400003F0800300F066F842F0010202600368A6
:1044500003F0010300F05EF842F00202026003681C
:1044600003F0020300F056F842F00802026003680D
:1044700003F0080300F04EF842F0400202600368C7
:1044800003F0400300F046F842F0100202600068BA
:1044900000F0100005900598FFF730FE0022802103
:1044A0002846FFF727FF00224FF480412846FFF7F8
:1044B00021FF012210212046FFF71CFF4FF481410C
:1044C0000091012200F020F82846FFF72FFE10216E
:1044D0000091112200F018F82046FFF727FE4FF454
:1044E0000051009100220192029203926946054810
:1044F000FFF71CFE07B030BD4C100240000400481E
:104500000010004800080048002102910391019228
:1045100069467047059305990268704780B50A4857
:10452000016841F0010101600022006800F0010013
:104530000090002100980B20FFF710FFBDE802401B
:104540000B20FFF729BF00BF4810024018B589B003
:104550000C22002106A8FFF7E3FA18220021684682
:10456000FFF7DEFA714C7248206000216160E16063
:1045700004200121606121614FF480600321E06229
:10458000E16104F1300000224FF4B861A26022839F
:1045900084F82020A162027042600272204600F07E
:1045A00066FC08B1FEF70EFF0020069006A9204623
:1045B00000F08CF908B1FEF705FF06220192029285
:1045C0007F225C490091039204210491002205920C
:1045D0006946204600F0A4FD08B1FEF7F3FE5649F7
:1045E00000910C2200F015F808B1FEF7EBFE5349DC
:1045F0000091122200F00DF808B1FEF7E3FE5049D9
:104600000091182200F005F808B1FEF7DBFE0AB0B1
:1046100010BD01926946204600F082BD30B5A9B0B8
:104620000446142200216846FFF77AFA8C22002102
:1046300006A8FFF775FA20683D4988426BD14FF410
:10464000804206924FF080510122079208922591F4
:104650001022099202214FF080720A910B910C9165
:104660000D9206A8FFF766FA08B1FEF7ABFE3548D3
:10467000354D016841F400510160026802F40052B6
:1046800005920599026842F004020260036803F093
:10469000040305930599026842F001020260036871
:1046A00003F0010305930599026842F002020260DB
:1046B0000121006800F00200059003220598009196
:1046C00001920021029128466946FFF72FFD022042
:1046D00000F023F8042000F020F8082000F01DF876
:1046E0001A4D1B48286000216960E9604FF4007092
:1046F000802168612961202000224FF40061E86177
:10470000AA60A9612A622846FEF74AFA08B1FEF7B4
:1047100059FE2565AC6229B030BD0321009001919E
:104720000022029269462846FFF700BDA43200200D
:104730000000045002003004040060080800900CDF
:104740001000C0104C10024000080048A8330020A0
:104750000800024018B587B01022002103A8FFF717
:10476000DFF90C2200216846FFF7DAF92F4C3048B8
:1047700020600A2141F288300022E0606160A2607E
:1047800022616261A261204600F010F908B1FEF7D3
:1047900019FE4FF48050039003A9204600F015FA4B
:1047A00008B1FEF70FFE20204FF400110090019198
:1047B000002202926946204600F0D4FF08B1FEF7BD
:1047C00001FE08B010BD00681949884200D070474A
:1047D00080B51848026842F4005202600022006866
:1047E00000F400500090002100982B20FFF7B6FD48
:1047F0002B20FFF7D1FD002200212C20FFF7AEFD7A
:104800002C20FFF7C9FD002200212D20FFF7A6FD77
:104810002D20FFF7C1FD002200212E20FFF79EFD75
:10482000BDE802402E20FFF7B7BD00005C3300203A
:1048300000340140601002407CB50446002004F1C1
:1048400054060D4600903178012901D1022076BD31
:104850000120307000F035F8010070682AD120F492
:10486000885040F00200706005F080452268DFF853
:104870005800936803401D4345F00045956020684B
:104880008068C00F10D00098401C00900098B0F5D0
:10489000912FF4D3706820F0020040F01000706097
:1048A00000203070012076BD706820F0020040F0DA
:1048B000010001E040F010007060002030700846F8
:1048C00076BD204600F043BEC0FFFF3F2DE9F0411A
:1048D00000F154049AB023780022012B08BF022073
:1048E0004ED0012525701692179203682A4DAB42CF
:1048F0002AD12A4FDFF8A8E03B68DEF800506D07A8
:1049000038D45B0736D40B68264DDFF89CC0214EA7
:10491000FBB1336890F8300023F460484B6843EAF9
:10492000080343EA40303060DEF800003B68DCF802
:10493000007018433843C3071FD437680868896874
:104940003D4005430D4313E000F01EF822700120A6
:1049500016E0306820F460403060DEF8000039680E
:10496000DCF8003008431843C00706D431680D4016
:10497000356002E000F008F80122002020701046A7
:104980001AB0BDE8F0810000606840F0200060606F
:104990007047000008030450000004500801045050
:1049A00008000450E0F0FFFF0802045038B504008E
:1049B00001D1012032BD00F061F818B900F064F9AE
:1049C000FFF701FF37E090F83D10012901D00120E9
:1049D0007047022180F83D100168DFF884008142B1
:1049E00018BFB1F1804F12D0DFF8780081421CBFB0
:1049F000DFF8742091420AD0DFF8700081421FBFB7
:104A0000DFF86C209142DFF86C0081420DD18A689A
:104A1000DFF864000240062A18BFB2F5803F08D0D4
:104A2000086840F00100086003E00A6842F00102F3
:104A30000A600020704702206870211D206800F085
:104A400027F901202873A870E87028716871A8718F
:104A5000E87128726872A872E8726870002032BD2E
:104A6000002C01400004004000080040000C004001
:104A700000340140004001400700010004F13C0502
:104A80006878704770B504462068C5680669B10744
:104A900014D5AA0712D56FF0020101610122227715
:104AA000806910F0030F204602D000F0A5FE03E05D
:104AB00000F0A3FE00F086F800202077700715D5DF
:104AC000690713D520686FF0040202610221217783
:104AD000806910F4407F204602D000F08DFE03E094
:104AE00000F08BFE00F06EF800202077300715D51F
:104AF000290713D520686FF008020261042121778D
:104B0000C06910F0030F204602D000F075FE03E0EC
:104B100000F073FE00F056F800202077F00615D55F
:104B2000E90613D520686FF0100202610821217791
:104B3000C06910F4407F204602D000F05DFE03E023
:104B400000F05BFE00F03EF80020207706F0010147
:104B500005F00100014206D020686FF001010161FB
:104B6000204600F04BFE300608D5290606D52268FF
:104B70006FF080001061204600F041FEF00508D57E
:104B8000290606D522686FF480701061204600F077
:104B900037FE700608D5690606D522686FF040001A
:104BA0001061204600F02DFEB0060AD5A90608D5F2
:104BB00022686FF0200010612046BDE8704000F0D0
:104BC00021BE70BD204600F01EBE70B5064606F13F
:104BD0003C0500242878012801D1022070BD012065
:104BE000287002226A70DFF854013268936803402B
:104BF00093600868020018BF102830D0202818BF22
:104C000030282CD0402826D0502819D060281BD01E
:104C1000702806D0B0F5805F27D0B0F5005F07D0D0
:104C200022E000F02CF83068816841F0770105E05F
:104C300000F025F83068816841F48041816014E01B
:104C400000F019F850210BE0CA684968306800F09C
:104C500096F8602104E000F00EF8402100E00146E3
:104C6000306800F09EF800E001240120687000F038
:104C70000BF870BD0000CA684968306870E0CB6806
:104C80004A688968306894E000212970204670479E
:104C90002DE9F043DFF8A870D0F800C0DFF8A430A9
:104CA000DFF8A440DFF8A450DFF8A460DFF8A4E048
:104CB000DFF8A480DFF8A490B84218BFB0F1804FAD
:104CC00007D0484518BF404503D0704518BFB042D3
:104CD0000ED14A68B8422CF0700C18BFB0F1804F6A
:104CE00042EA0C0C0CD048451CBF4045704507D02B
:104CF000B04218BFA84203D0A04218BF984204D1C6
:104D0000CA682CF4407C42EA0C0C4A692CF0800CF6
:104D100042EA0C020260B8428A68C26218BFB0421E
:104D20000A68826204D0A8421CBFA042984201D106
:104D30000969016301224261BDE8F0838800FEFF3A
:104D4000002C014000480140004401400040014067
:104D500000340140000C0040000800400004004006
:104D600010B5036A046A64086400046223F00A034D
:104D7000846924F0F00444EA0214846123E010B54D
:104D8000036A046A24F01004046223F0A003846917
:104D900024F4704444EA0234846143EA0113036258
:104DA00010BD826822F07002114341F0070181605A
:104DB000704710B5846824F47F442143114341EACD
:104DC0000321816010BD1943016210BD38B504464E
:104DD000FDF7E0FE14F1010F054602D0044801780A
:104DE0006418FDF7D7FE401BA042FAD331BD00BFC7
:104DF000343000200EB4C0B5024603A80021019053
:104E0000009101AB0121044878440C30FBF7CEF946
:104E100006BC5DF810FB00BFBF0B0000603000EB6C
:104E20008100006800F0F8407047603000EB8100BE
:104E3000016821F000410A4302607047C06800F435
:104E40004060401E8041C00F7047CB0D10B514303C
:104E500003F004031818090D01F01F01036807246B
:104E60008C40A34302FA01F11943016010BDF8B56B
:104E70000025044600950CB90120F2BD04F154064A
:104E8000706820B92046FFF7C9FBB560357021680E
:104E90008868800004D58A68DFF85C0202408A6076
:104EA00021688868C00012D48A68DFF85002024086
:104EB00042F080528A60DFF84812DFF84822086822
:104EC000B0FBF2F2521C5200009200F038FB206856
:104ED0008168C90008D4726842F01002726001252E
:104EE000B16841F00101B160836871689B08CA062E
:104EF00000D4D90700F18380726822F4807242F0F6
:104F0000020272608068C00714D4DFF8FC11DFF879
:104F1000FC2108681168DFF8F8713A68084310430B
:104F2000C00707D4DFF8EC110A68606822F47C122D
:104F300002430A6004F13002607E5768E16894F829
:104F400020C047EA4037A0680F430743BCF1010F78
:104F500047EA0C4703D1606A401E47EA4047A06A0F
:104F600020B1E16A00F47070084307432168DFF85C
:104F7000A801D1F80CC000EA0C000743CF60D907A4
:104F80002768B86826D4000724D4FB68DFF88C11A2
:104F9000D0690B40217E0343107843EA813343EA12
:104FA0004003FB60107A01280FD123681F69D16884
:104FB00010696FF38A070F435169074390690F43E4
:104FC000074347F001071F6104E0206801694908B1
:104FD00049000161206901282068016B05D1E2695F
:104FE0000909521E42EA011101E0090909010163A0
:104FF000706820F0020040F00100706004E070680A
:1050000040F01000706001252846F2BDDFF8B405BD
:10501000046870472DE9F04105460E46FFF7F6FF9C
:10502000286881684907904604F01F0461D405F19F
:1050300054073A78012A5CD0DFF88C250121904290
:1050400018BF002C397003D0052C18BF092C4CD187
:10505000284600F02BFA010044D17968DFF860059A
:10506000014041F480717960DFF8D80329688142FA
:1050700000D11CB9786820F48010786043467868C5
:10508000C10446BFB86820F006000020B8600FF2E7
:105090006551286DC162286D0FF2CD510163286DF5
:1050A0000FF2CD5141631C212A6811600020387035
:1050B00032462868416841F0100141602868C168A3
:1050C00041F00101C160286800F14001286DFDF741
:1050D000C9FD2A68DFF8F41493680B4043F0040319
:1050E000936007E00021397004E0002201203A704B
:1050F00000E00220BDE8F081C0FFFF5FC0FFFF7F3E
:1051000040300020400D0300080004500801045006
:10511000080204500803045007C0F0FFF9BFFFFF66
:10512000F8B50646002406F154050F460094297888
:10513000012901D10220F2BD012028703068816868
:10514000490700F173817968062910D2891E032965
:105150000CD8DFE801F0020406080C2107E0122158
:1051600005E0182103E04FF4807100E006218B096F
:10517000303003F00C033A68181801F01F01D0F822
:1051800000C01F238B40C2F384622CEA030302FA9F
:1051900001F119430160306882688168520731D497
:1051A00009072FD4BA68B2F1004F08D1396800223C
:1051B000FFF74BFE3068416941F0004106E0396875
:1051C000FFF743FE3068416921F0004141613068DA
:1051D000C1683A69042A16D060303B6800EB820C43
:1051E0009748DCF80020024003F0F8431343C90855
:1051F0007A69480000F006008240134343F0004300
:10520000CCF8003076E00021FFF708FE400330685C
:10521000214604D1FFF702FEC0F3846003E0FFF7EC
:10522000FDFD00F011F939684A030EBFC1F3846136
:1052300091FAA1F1B1FA81F1884204D130680022DB
:105240000021FFF7F2FD00F011F9400304D100F056
:105250000DF9C0F3846003E000F008F900F0F4F801
:1052600039684A030EBFC1F3846191FAA1F1B1FA22
:1052700081F1884204D1306800220121FFF7D5FD79
:1052800000F0F0F8400304D100F0ECF8C0F38460C3
:1052900003E000F0E7F800F0D7F839684A030EBFE2
:1052A000C1F3846191FAA1F1B1FA81F1884204D18C
:1052B000306800220221FFF7B8FD00F0CFF840036C
:1052C00004D100F0CBF8C0F3846003E000F0C6F82E
:1052D00000F0BAF839684A030EBFC1F3846191FA4D
:1052E000A1F1B1FA81F1884204D130680022032192
:1052F000FFF79BFD31688868C00747D4FA683B68B0
:10530000D1F8B0C0DFF8C8E202F01802C3F312000F
:105310002EFA02F22CEA000013400343C1F8B03029
:10532000F868DFF8B012884230D1386841030EBF08
:10533000C0F3846290FAA0F1B1FA81F2521C01210B
:1053400002F01F020A2A0DD200F094F89B0602F028
:105350001F02401C03F0F843914000F01F0000F0D2
:105360009FF80FE000F086F8401C9B0602F01F0239
:1053700000F01F0003F0F84391400A3800F090F865
:1053800041F00071BA683068FFF75FFD3B68DFF8F5
:10539000480203424FD0DFF82C02DFF840C2016818
:1053A000DFF82472DFF83822634501F0E0711ED186
:1053B0000B0240D43368934218BFBB423BD100F08C
:1053C00048F841F400010160DFF81802DFF8182204
:1053D0000168B1FBF2F2521C0C204243009200988B
:1053E00000281EBF0098401E0090F8D123E0DFF88F
:1053F000FCE173450BD1CB011DD43368934218BF38
:10540000BB4218D100F025F841F080710CE0DFF8C4
:10541000E071BB420FD14B020DD4366896420AD1DF
:1054200000F017F841F48001016004E0686840F082
:10543000200068600124002028702046F2BD000092
:1054400000F0FF030001045090FAA0F0B0FA80F0E1
:105450007047026822F0E072114370473068032100
:10546000FFF7DCBC30680221FFF7D8BC30680121AF
:10547000FFF7D4BC420304D1C0F384621346104644
:105480000BE090FAA0F2B2FA82F390FAA0F290FA4E
:10549000A0F0B2FA82F2B0FA80F05B1C521C7047A6
:1054A000194300EB400041EA005170477CB50446C7
:1054B0000020009021688868C20734D488686FF3A0
:1054C0009E1000282CD18868404D284040F00100F3
:1054D00088603C49086800020AD54249424B0A6884
:1054E000B2FBF3F35B1C0C204343009300F027F85E
:1054F000FDF750FB064620680168CA0713D481688F
:10550000C90704D482682A4042F001028260FDF794
:1055100041FB801B0328EED320680168CA07EAD448
:1055200000F003F876BD002076BDA06D40F01000BD
:10553000A065E06D40F00100E0650120704702E0E9
:105540000098401E009000980028F9D1704738B5A7
:105550000446216888688A68D2072ED580072CD433
:105560008A6802F00D02012A1DD18A68174802409C
:1055700042F002028A60032120680160FDF70AFB05
:10558000054621688868C10717D5FDF703FB401B56
:105590000228F6D920688168C807F2D5A16D41F0CC
:1055A0001001A16503E0A06D40F01000A065E06D62
:1055B00040F00100E065012032BD002032BD000056
:1055C000FEF1FFFF0803045000020450C0FFFF7FFC
:1055D000FFFF070000007F4000000880000052C766
:1055E0000000045040300020400D0300000084CB38
:1055F0000100008010B5846AA16D11F0500F26D112
:10560000A06D40F40070A065206801680A070BD502
:10561000FFF714FCB0B12068C168880412D4A16DF2
:1056200021F48071A16506E0C06881070AD4A06DED
:1056300020F48070A065A06DC10403D4A06D40F07B
:105640000100A0652046BDE8104000F0DDB8A16D66
:10565000CA0604D52046BDE8104000F0D6B8216D3A
:105660004A6BBDE810401047806A00F0CFB80000D8
:10567000806A816D41F040018165C16D41F0040196
:10568000C16500F0C2B8000070B50E4E0446307817
:105690000025A0B14FF47A710B4AB1FBF0F110680C
:1056A000B0FBF1F0FEF783FE48B9102C07D20022C0
:1056B00021464FF0FF30FEF751FEB46000E00125B7
:1056C000284670BD343000204030002062F30F22A5
:1056D00062F31F42401810F0030308D0C91A1FD309
:1056E000DB0748BF00F8012D28BF20F8022D13006A
:1056F00030B414461546103928BF20E93C00FAD8CA
:10570000490728BF20E90C0048BF40F8042D890054
:1057100028BF20F8022D48BF00F8012D30BC70478B
:10572000C91818BF00F8012DCB0728BF00F8012DBC
:10573000704700000A4881B0816841F00101816032
:10574000816801F0010100910099026842F08052E5
:105750000260006800F080500090009801B070472F
:1057600058100240F0B500F13C042278012A01D122
:105770000220F0BD01222270022363700668DFF868
:1057800068E07768DFF864C0B568764518BF66459D
:1057900003D14B6827F470071F430A6827F070078E
:1057A000174377600268724518BFB2F1804F0CD082
:1057B0000C4882421CBF0E4B9A4206D008488242D7
:1057C0001EBF62450B4B9A4204D1886825F08005C4
:1057D000054395600121617000202070F0BD00003C
:1057E000000C004000040040002C01400034014047
:1057F0000008004000400140704770477047704704
:105800007047704770477047704770477047F0B4F3
:105810000246106895681318506803EB5004C007DF
:105820001CD54D441AE013F8017B05F8017B491E95
:10583000F9D198B113F8011BC6F38106032E08BFF6
:1058400013F8016B01EB06214942801C294405D065
:1058500011F8016B05F8016B401EF9D1A3420ED07F
:1058600013F8016B16F0030104BF13F8011BC91CE8
:1058700030090F28DBD113F8010B0F30D7E7F0BC4C
:1058800002F10C0070470000FEE7FEE7FEE7FEE7CE
:10589000FEE770477047704700F01EB80948FDF7F3
:1058A0005EBA0948FCF7DEBB0848FCF7DBBB00E04A
:1058B00000BF0748FFF7E6B8FBE7FAE70548FCF743
:1058C000D1BB0000A8330020943100201C320020FE
:1058D0005C3300200C3100200248416802788A18AD
:1058E0004260704734300020A0860100400D030064
:1058F000801A060000350C0040420F0080841E0014
:1059000000093D0000127A000024F40000366E0108
:105910000048E801006CDC0210B5074979441831F1
:10592000064C7C44163404E00A68081D114488477C
:105930000146A142F8D110BD2C0000004800000033
:105940004EF68851CEF20001086840F470000860FD
:10595000BFF34F8FBFF36F8F4FF00070E1EE100A6F
:10596000704700000FB9FFFF240300000C31002036
:10597000000000009BFEFFFF24020000E801000081
:10598000000000200248016841F470010160704786
:1059900088ED00E0000000000000000001020304A8
:1059A0000607080900F00DF8002801D0FFF7B4FF42
:1059B000AFF300800020AFF30080FDF74BFA00F05A
:1059C00002F80120704700F001B800000746384691
:1059D000FCF770FAFBE738B504460D46284600F0A0
:1059E00005F8A84218BF0024204632BD0149FDF742
:1059F000B3B800BFC43000200148804701480047C9
:105A000085590008395A0008636C7320424C4143A1
:105A10004B00000061646420312C312C0000000038
:105A200061646420312C322C313037006164642091
:105A3000312C332C35370000AFF30080FFF780FFA7
:105A4000FFF7B0FF706167652032000000000000C2
:105A500001020304FFF7FEBFFFF7FEBFFFF7FEBF23
:105A6000FFF7FEBFFFF7FEBFFFF7FEBFFFF7FEBF6A
:105A7000FFF7FEBFFFF7FEBFFFF7FEBFFFF7FEBF5A
:105A8000FFF7FEBFFFF7FEBFFFF7FEBFFFF7FEBF4A
:105A9000FFF7FEBFFFF7FEBFFFF7FEBFFFF7FEBF3A
:105AA000FFF7FEBFFFF7FEBFFFF7FEBFFFF7FEBF2A
:105AB000FFF7FEBFFFF7FEBFFFF7FEBFFFF7FEBF1A
:105AC000FFF7FEBFFFF7FEBFFFF7FEBFFFF7FEBF0A
:105AD000FFF7FEBFFFF7FEBFFFF7FEBFFFF7FEBFFA
